S0190000446576426F6172645F375365676D656E742E737265639B
S11300000C944E000C946B000C946B000C946B00DD
S11300100C946B000C946B000C946B000C94570ABA
S11300200C946B000C946B000C946B000C946B00A0
S11300300C946B000C940C050C9433050C946B001D
S11300400C946B000C946B000C946B000C946B0080
S11300500C946B00FA0225032503250325030003F2
S1130060250325032503250305032503250325036C
S113007025030B032503250325032503100325036B
S1130080250325032503160325032503250325033B
S11300901B032503250325032503210311241FBE68
S11300A0CFE5D8E0DEBFCDBF11E0A0E6B0E0E2EEE0
S11300B0FAE102C005900D92AA32B107D9F726E001
S11300C0AAE2B1E001C01D92A337B207E1F70E9492
S11300D0BD080C946F0D0C94000000C000C000C05B
S11300E000C000C000C000000895A198A098A9987D
S11300F0A8980895A19AF1DF1DD00895A09AEDDF84
S1130100A198EBDFA098E9DFA19AE7DF13D0089567
S1130110082EA19AE2DF802D0DD0882311F002D0A1
S1130120F8CF0895A09AA19AD8DFA098D6DFA19815
S1130130D4DF08950894881F01C0880F59F0A09A4D
S113014018F40000A19802C0A19A00C0C6DFA098CC
S1130150C4DFF3CFA09AA198C0DFA098989BFECFEC
S11301608827999981E0B9DF99270895882701C0E4
S113017081E071E0A09AA198B0DFA098AEDF989BCF
S1130180FECF889499990894771FA0F7A09A81309C
S113019011F0A19801C0A19AA0DFA098989BFECF6E
S11301A09CDF872F99270895EAE2F1E081E38083B9
S11301B03EE2318320E2228390E3938334832583D8
S11301C0868392E39783908744E34187328723872A
S11301D0848727E3258786879787108ACF01089528
S11301E0FC0190E081918D3241F49F3758F4808175
S11301F08B3219F482E0890F08959F5F9F3791F73E
S11302008FEF08958FEF0895FC01108211821282FE
S113021013821092410110924001158214821092AF
S11302203F010895EF92FF920F931F93CF93DF93B3
S1130230EC018B010E94F00080933F018F3F09F491
S11302406DC0282F082E000C330BDE01A20FB31F44
S11302509C919550F801908311964C91119741838C
S113026012964C911297428313964C9113974383A1
S1130270F90134967F01EC0EFD1EF7016081609355
S11302804101992349F0A9014B5F5F4F4C0F5D1F5A
S1130290F8015583448303C0F80115821482109237
S11302A04001F7011082E82F880FFF0B2B5F3F4FAF
S11302B02C0F3D1F90E047E08D91982788E099230B
S11302C01CF4990F942701C0990F8150C1F7A2170C
S11302D0B30791F790933E0190934001D8015C914C
S11302E05523B9F03596EC0FFD1F30E047E021911E
S11302F0922728E099231CF4990F942701C0990FA1
S11303002150C1F73F5F351790F390933E019093CE
S1130310400190914001691303C003C081E001C012
S113032082E0DF91CF911F910F91FF90EF9008959C
S1130330CF93DF93DC01109246011496DC9114975D
S11303401596CC9115978C9190E005968F3F910569
S113035018F021E020933D01E2E4F1E0808311965E
S11303608C911197818312968C91129782831396A4
S11303708C911397838367E471E090E047E02191C7
S1130380292738E0222324F4922F990F942702C0BE
S1130390922F990F3150292FA9F7E617F70779F70C
S11303A090933E015C915523C1F0ED2FFC2F40E06A
S11303B087E02191292738E0222324F4922F990FF2
S11303C0982702C0922F990F3150292FA9F74F5F18
S11303D0451778F390933E0107C081E080933D0177
S11303E015961C921E921497E2E4F1E094831296FF
S11303F01C92129711961C92119713961C92F093CB
S11304003C01E0933B0160913B0170913C01809180
S11304103D01DF91CF910895EF92FF920F93FC017C
S1130420628341832383F582E48200830F91FF90EA
S1130430EF900895CF93DF93EC010E949801A82FC9
S1130440CB0165E00E94920568818C819D810E94A8
S11304509205DF91CF910895909366008093650093
S11304600895282FA0916500B09166008C912817FB
S113047081F0882381F080E08F5FE82FF0E0EE0FB9
S1130480FF1FEA0FFB1F9081921731F09111F4CFF7
S1130490089580E0089580E008958B3731F4E8E40E
S11304A0F1E080E2808381830AC0E8E4F1E0982FE0
S11304B092959F70905D90838F70805D8183E8E456
S11304C0F1E08EE2828380E283836B3719F48483C4
S11304D085830AC0E8E4F1E0862F82958F70805D01
S11304E084836F70605D6583E8E4F1E08EE2868367
S11304F080E287834B3719F4808781870AC0E8E458
S1130500F1E0842F82958F70805D80874F70405D0D
S113051041871092520188E491E00895FC0166231A
S1130520CCF46195442329F0413049F080E2808382
S113053016C08DE2808313C080E6808310C08AE5F4
S113054001C080E08A3519F48DE2808308C084EB11
S1130550808305C0442381F3413099F3E7CF97E6C4
S11305606902912D11249595959567FD939580E3E6
S1130570890F8183990F892F880F880F980F691B22
S1130580605D628380EB838383E484831582CF017F
S113059008950F931F93CF93C62F00916500109178
S11305A066000E943102E82FF0E0EE0FFF1FE00F1B
S11305B0F11F818180950E943F038C2F80958F7756
S11305C00E944E03CF911F910F910895E09147012E
S11305D0E33218F0109247010DC0EF5FE09347013A
S11305E08E2F90E08432910580F5FC01E65DFF4F8B
S11305F00C941F0D60E4809160000E94C90208956C
S113060067E880E20E94C902089560E28091610077
S11306100E94C902089567E880E20E94C902089511
S113062060E1809162000E94C902089567E880E257
S11306300E94C902089568E0809163000E94C90283
S1130640089567E880E20E94C90208958AB3886F1A
S11306508ABB84B3806E84BBBF9ABE9AA49A81B3CA
S11306608C6F81BB84B38C6084BBA49A87B3807F76
S113067087BBD098AC988AB3897F8ABB0895CF93FF
S1130680C82F80E40E94880082E10E949A008C2F87
S11306900E949A000E949200CF910895CF93C82F90
S11306A080E40E94880083E10E949A008C2F0E94BB
S11306B09A000E949200CF91089580E40E948800DD
S11306C01092530180E00E949A00809153010E948D
S11306D09A0081E00E949A00809153010E949A003E
S11306E00E94920080E00E943F0380E00E944E033B
S11306F00895982F92959F70990F292F220F220FFA
S1130700920F8F70890F08959DEC899F912D11246C
S113071096959695969520E1929FA0011124990FA4
S1130720292F220F220F920F891B842B08950F93D8
S11307301F93CF93DF93182F062F842FC4E5D1E0A6
S113074092E098830E9484038983802F0E9484030B
S11307508A83812F0E9484038B8382EA0E9488000B
S11307600FE511E089910E949A00C017D107D1F7D3
S11307700E949200DF91CF911F910F910895EF9203
S1130780FF920F931F93CF93DF938C01C4E5D1E0C5
S113079082E0888382EA0E947A0088810E949A001B
S11307A083EA0E947E00882319F00E94920014C0FC
S11307B0C4E5D1E00F2EFFE5EF2EF1E0FF2EF02D82
S11307C00E94B8008993CE15DF05D1F70E94B600C8
S11307D080935F010E949200E4E5F1E0A081E801CA
S11307E0A8837181798362816A8353815C833481B4
S11307F03D8345814B83868190E09F838E8327814F
S113080028879085998781858A87E285AF77A88331
S11308107F7779836F736A835F735C834F714B83D4
S113082037703D832F7728879F7799878F778A87BB
S11308308E2F8F778B87DF91CF911F910F91FF9030
S1130840EF900895BC0180E090E00E94100C20E03D
S113085030E04FE253E40E949E0C20E03FEF4FE76C
S113086057E40E94680B20E030E044E352E40E9425
S1130870FB0A0E94DA0BCB010895CF93DF93109209
S1130880670085E90E9488000E94B800C0E6D1E0B4
S113089088830E94B80089830E94B6008A830E94DC
S11308A092008881809598E021E388231CF4880FC6
S11308B0822701C0880F9150C1F790916101892767
S11308C098E021E388231CF4880F822701C0880F55
S11308D09150C1F780935F0190916201981309C010
S11308E0E0E6F1E0808190E0982F88272181822B37
S11308F007C0E7E6F0E080818260808384EA96E0C6
S1130900DF91CF9108950E943D040E9422048093B8
S11309106900089584E90E94880082EA0E949A008E
S113092080E30E949A000E94920008950E948A0423
S113093084E90E94880087E20E949A0087E30E946B
S11309409A0080EE0E949A0080E00E949A000E9421
S113095092000895FC0171836083415042831382A5
S113096014820895FC01262F8381628190E0019610
S113097070E00E940B0D9481981749F0A081B18119
S11309809381A90FB11D2C93838380E0089582E0A5
S11309900895FC0193818481981791F0A081B1811D
S11309A08481A80FB11D8C91DB018C9384816281B9
S11309B090E0019670E00E940B0D848380E008951E
S11309C081E00895CF93DF9383E90E9488000E9419
S11309D0B800D82F0E94B600C82F0E9492008C2F16
S11309E090E09D2B929582958F7089279F7089271F
S11309F0DF91CF9108950E94E204BC0180E090E071
S1130A000E94100C20E030E040E85DE30E949E0C60
S1130A100E94DA0B862F08951F920F920FB60F9241
S1130A2011242F933F934F935F936F937F938F93EF
S1130A309F93AF93BF93EF93FF936CB188E496E0D9
S1130A400E94B204FF91EF91BF91AF919F918F915A
S1130A507F916F915F914F913F912F910F900FBEB6
S1130A600F901F9018951F920F920FB60F9211249A
S1130A702F933F934F935F936F937F938F939F93A2
S1130A80AF93BF93EF93FF93CF93DF931F92CDB7B1
S1130A90DEB7BE016F5F7F4F8EE496E00E94C9040B
S1130AA0813011F4559802C089818CB90F90DF917F
S1130AB0CF91FF91EF91BF91AF919F918F917F91D2
S1130AC06F915F914F913F912F910F900FBE0F90B7
S1130AD01F901895CF93DF93EC0140E250E065E658
S1130AE075E08EE496E00E94AA0440E054E065E6D6
S1130AF071E088E496E00E94AA04DD231CF482E0FD
S1130B008BB9DF77D0BDC9B988E98AB986E880BDD9
S1130B10DF91CF910895682F8EE496E00E94B2048D
S1130B20559A08950F931F93CF93DF93009781F005
S1130B30662371F0EC016150062F10E00F5F1F4F28
S1130B40080F191F89910E948B050C171D07D1F7F7
S1130B50DF91CF911F910F9108950F931F93CF931E
S1130B60DF931F92CDB7DEB78C01BE016F5F7F4F5D
S1130B7088E496E00E94C90481111CC0809164013C
S1130B808D3041F489818A3029F410926301802FD9
S1130B90912F12C09091630181E0890F80936301CA
S1130BA08981F801E90FF11D80838093640180E05D
S1130BB090E002C080E090E00F90DF91CF911F9110
S1130BC00F91089580E00895EF92FF920F930F2EF6
S1130BD0F0EFEF2EF0E0FF2EF02D04E020E044E0F3
S1130BE060E08DE696E00E940C028DE696E00E949D
S1130BF01A0280E00F91FF90EF900895EF92FF9218
S1130C000F93CF93DF9300D0CDB7DEB7DC011496FA
S1130C10ED91FC9115979081292F30E081818130ED
S1130C2041F120F0823009F445C052C0273031052B
S1130C3080F462B32F5F3F4F41E050E0FA0102C0FD
S1130C40EE0FFF1F2A95E2F79F012095262322BB72
S1130C503FC065B32550310941E050E0DA0102C0DC
S1130C60AA0FBB1F2A95E2F79D012095262325BBD9
S1130C702FC02730310578F462B32F5F3F4F41E036
S1130C8050E0FA0102C0EE0FFF1F2A95E2F79F0120
S1130C90262B22BB1DC065B32550310941E050E02D
S1130CA0DA0102C0AA0FBB1F2A95E2F79D01262B89
S1130CB025BB0EC0292F220F220F22BB292F207CF7
S1130CC030E0329522952F7023273F70232725BBD0
S1130CD099838A83FE0131967F0102E020E040E09F
S1130CE065E08DE696E00E940C028DE696E00E9497
S1130CF01A0280E00F900F90DF91CF910F91FF9037
S1130D00EF900895EF92FF920F93CF93DF9300D06B
S1130D1000D000D0CDB7DEB7A7E6B0E012968C9134
S1130D2012978983EBE6F0E082818A8313968C9193
S1130D3013978B8311968C918C8383818D8381810E
S1130D408E83CE0101967C0106E020E045E066E05A
S1130D508DE696E00E940C028DE696E00E941A024F
S1130D6080E026960FB6F894DEBF0FBECDBFDF91AC
S1130D70CF910F91FF90EF900895EF92FF920F9310
S1130D80CF93DF9300D000D01F92CDB7DEB7E5E557
S1130D90F6E0858196818983858196819A83818510
S1130DA092858B83818592859C8384B78D83CE01C4
S1130DB001967C0105E020E040E067E08DE696E0E6
S1130DC00E940C028DE696E00E941A0280E00F90C9
S1130DD00F900F900F900F90DF91CF910F91FF9094
S1130DE0EF900895EF92FF920F9380915406811132
S1130DF019C081E0809354060F2EF5EFEF2EF0E03A
S1130E00FF2EF02D0DE020E044E06FEF8DE696E03C
S1130E100E940C02E0E6F0E080E380838183828319
S1130E20838310C0109254060F2EF3E0EF2EF1E0EE
S1130E30FF2EF02D0DE020E044E06FEF8DE696E00C
S1130E400E940C028DE696E00E941A0280E00F9147
S1130E50FF90EF900895EF92FF920F930E94D400B9
S1130E607C0101E120E044E061E08DE696E00E942F
S1130E700C028DE696E00E941A0280E00F91FF902A
S1130E80EF900895EF92FF920F93CF93DF93EC01CD
S1130E9086E990E00E942C02EC81FD81CF0101964D
S1130EA09D838C838081882319F08130C9F031C0FF
S1130EB082E890E00E942C0280E3E0E6F0E0808388
S1130EC08183828383832FEF39E698E12150304078
S1130ED09040E1F700C000008F5F873381F719C0AD
S1130EE0E0E6F0E024E630E0AC81BD81CD0101967E
S1130EF09D838C838C91805D81932E173F07A1F78E
S1130F002FEF3DE389E4215030408040E1F700C0F9
S1130F100000E12CF12C00E020E040E062E08DE6EE
S1130F2096E00E940C028DE696E00E941A0280E090
S1130F30DF91CF910F91FF90EF900895EF92FF9280
S1130F400F93FC012081233019F5A481B581CD01D3
S1130F500196958384838C919D012E5F3F4F358349
S1130F60248312964C91129711966C910E949703C8
S1130F70E12CF12C00E020E040E063E08DE696E017
S1130F800E940C028DE696E00E941A0280E001C0E5
S1130F9081E00F91FF90EF900895EF92FF920F93ED
S1130FA01F93CF93DF9300D000D000D0CDB7DEB72E
S1130FB000E616E0F80182810E9479038983F80132
S1130FC081810E9479038A83F80180810E947903D8
S1130FD08B83F80184810E9479038C83F8018381D7
S1130FE00E9479038D83F80186810E9479038E83A0
S1130FF0CE0101967C0106E020E040E064E08DE64D
S113100096E00E940C028DE696E00E941A0280E0AF
S113101026960FB6F894DEBF0FBECDBFDF91CF91F9
S11310201F910F91FF90EF90089580916D00809330
S11310305606E7E6F0E092812181921714F490932A
S1131040680020916C00821714F480936C00209146
S11310506A00291714F490936A0090916E0098170F
S113106014F480936E0008958EB589608EBD89B79F
S1131070806189BF80ED97E09BBD8ABD0895CF93C1
S1131080DF93EC010E945A0D823A39F010926C06FB
S113109062EACE010E94620D03C081E080936C0677
S11310A0DF91CF9108959F92AF92BF92CF92DF923A
S11310B0EF92FF920F931F93CF93DF938C017B01E9
S11310C0D42EFC0101900020E9F731975F01A81AA2
S11310D0B90A86E990E00E942C02C0906F00C5E531
S11310E0D6E0BB24B501615071096894992495F840
S11310F08A819B818E159F0580F18C8181112DC081
S11311004C2D0C2C000C550BA0E6B0E0F801E40FBC
S1131110F51F9A012C5F3F4F200F311FCF01801B19
S1131120910B12F49C9207C06817790714F49C92EF
S113113002C080818C9311963196E217F30771F700
S11311404A155B0539F48CEF80936F0081E080933E
S1131150590607C0C3941B821A82D110C9CFC0920A
S11311606F00DF91CF911F910F91FF90EF90DF906F
S1131170CF90BF90AF909F900895CF93DF93CDB75A
S1131180DEB728970FB6F894DEBF0FBECDBF0E941E
S1131190260383E390E00E946A0580E090E00E94C9
S11311A03F080E9475000E945D030E9496040E94FD
S11311B034088DE696E00E94040178940F2EF1E144
S11311C0EF2EF1E0FF2EF02D04E020E044E06FEF7D
S11311D08DE696E00E940C028DE696E00E941A02CB
S11311E08DE696E00E942B0781E08093590605E581
S11311F016E00F2EF0E6EF2EF0E0FF2EF02DCE01DC
S1131200039698878F830F2EF7E64F2EF0E05F2E1C
S1131210F02D0F2EF0E28F2EFDE29F2EF02D68941C
S1131220AA24A5F8B12C0F2EFBE62F2EF0E03F2EBA
S1131230F02D0F2EF0E66F2EF6E07F2EF02D8AE8CB
S113124095E00E94AD0590930B0680930A060097E3
S113125059F16DE676E00E941201811125C0E091FA
S11312606F06F0E0EE0FFF1FEA5EFE4F0190F08183
S1131270E02D8DE696E00995F80181859285019629
S11312809287818780918905F1E08F278093890572
S113129080FF06C085B3837F85BB8CE382BB04C01B
S11312A090EC92BBECE0E5BBF80184818823C9F0A3
S11312B080915406811161C08081816080830E9485
S11312C08304F20182830E94FB04F10182830E9461
S11312D01508C3010E94BF03F80180818E7F8083BB
S11312E0148280915406811148C01A82198284E0C4
S11312F0EF81F88511928A95E9F740E0F201628165
S1131300CE0101960E948E02BC018CE096E00E9400
S1131310530D0F2EFCE0CF2EF6E0DF2EF02DF6015C
S113132001900020E9F7319791828082B382A282F2
S113133041E0F1016281CE0101960E948E02BC015E
S1131340C6010E94480DF60101900020E9F731978B
S113135091828082B382A282F30140816181828181
S11313600E944D02BC01C6010E94480D40E06CED94
S113137075E0C6010E94530862CFF80121853285C9
S1131380369527953695279536952795A5ECB0E2A1
S11313900E94250DAC01529542954F7045275F7010
S11313A045279A01ADECBCEC0E94250D96958795D6
S11313B096958795969587959C01220F331F880FE4
S11313C0991F880F991F880F991F820F931F481B1D
S11313D0590B405DF7014083F8012185328536952C
S11313E0279536952795ABE7B4E10E94250DAC010E
S11313F0569547959A01ADECBCEC0E94250D969547
S1131400879596958795969587959C01220F331F0E
S1131410880F991F880F991F880F991F820F931F98
S1131420481B590B405DF7014183F8012185328542
S11314300E94250DAC0156954795569547955695AE
S113144047959A010E94250D9695879596958795BF
S1131450969587959C01220F331F880F991F880F3B
S1131460991F880F991F820F931F481B590B405DCA
S1131470F7014283F801418552859A010E94250DA6
S11314809695879596958795969587959C01220FB5
S1131490331F880F991F880F991F880F991F820F78
S11314A0931F481B590B405DF7014383C8CE1F921D
S11314B00F920FB60F9211242F933F934F935F9384
S11314C06F937F938F939F93AF93BF93EF93FF9308
S11314D0E5E5F6E08281938101969383828380918E
S11314E0850590918605A0918705B09188050196A0
S11314F0A11DB11D813127E2920708F062C0AA271D
S1131500BB278093850590938605A0938705B093A8
S11315108805893C9105A105B10510F4C79824C03C
S1131520AC01BD014059514061097109493C510563
S11315306105710510F4C79A17C0AC01BD01485E7E
S1131540534061097109413951406105710510F435
S1131550C7980AC080549640A109B109893C9105F5
S1131560A105B10508F4C79AE0E7F0E0818924E019
S11315708202C00111248F70818BC99B03C08189B1
S11315808260818BCA9B05C0E0E7F0E081898160BD
S1131590818BA0E7B0E05196EC9151970E2E000C90
S11315A0FF0BE059FF4F808150969C915097890F13
S11315B050968C938091550680FD0CC00E94E602E3
S11315C009C0109285051092860510928705109225
S11315D08805A4CFFF91EF91BF91AF919F918F9117
S11315E07F916F915F914F913F912F910F900FBE1B
S11315F00F901F9018955058BB27AA270E94130BD1
S11316000C94640C0E94560C38F00E945D0C20F07F
S113161039F49F3F19F426F40C94530C0EF4E0951E
S1131620E7FB0C944D0CE92F0E94750C58F3BA1784
S1131630620773078407950720F079F4A6F50C94E4
S1131640970C0EF4E0950B2EBA2FA02D0B01B901C7
S113165090010C01CA01A0011124FF27591B99F024
S1131660593F50F4503E68F11A16F040A22F232F30
S1131670342F4427585FF3CF469537952795A79580
S1131680F0405395C9F77EF41F16BA0B620B730B27
S1131690840BBAF09150A1F0FF0FBB1F661F771F98
S11316A0881FC2F70EC0BA0F621F731F841F48F44D
S11316B0879577956795B795F7959E3F08F0B0CFD6
S11316C09395880F08F09927EE0F979587950895BD
S11316D00E947C0B0C94640C0E945D0C58F00E94D8
S11316E0560C40F029F45F3F29F00C944D0C511135
S11316F00C94980C0C94530C0E94750C68F3992369
S1131700B1F3552391F3951B550BBB27AA276217F9
S11317107307840738F09F5F5F4F220F331F441F06
S1131720AA1FA9F335D00E2E3AF0E0E832D091503A
S11317305040E695001CCAF72BD0FE2F29D0660F27
S1131740771F881FBB1F261737074807AB07B0E86A
S113175009F0BB0B802DBF01FF2793585F4F3AF070
S11317609E3F510578F00C944D0C0C94980C5F3FFF
S1131770E4F3983ED4F3869577956795B795F795F6
S11317809F5FC9F7880F911D9695879597F90895DE
S1131790E1E0660F771F881FBB1F6217730784077A
S11317A0BA0720F0621B730B840BBA0BEE1F88F789
S11317B0E09508950E94E10B6894B1110C94980C83
S11317C008950E947D0C88F09F5798F0B92F9927AF
S11317D0B751B0F0E1F0660F771F881F991F1AF018
S11317E0BA95C9F714C0B13091F00E94970CB1E0DA
S11317F008950C94970C672F782F8827B85F39F0D9
S1131800B93FCCF3869577956795B395D9F73EF4B0
S113181090958095709561957F4F8F4F9F4F089558
S1131820E89409C097FB3EF4909580957095619576
S11318307F4F8F4F9F4F9923A9F0F92F96E9BB272C
S11318409395F695879577956795B795F111F8CFA8
S1131850FAF4BB0F11F460FF1BC06F5F7F4F8F4F13
S11318609F4F16C0882311F096E911C0772321F009
S11318709EE8872F762F05C0662371F096E8862FA1
S113188070E060E02AF09A95660F771F881FDAF7F8
S1131890880F9695879597F9089597F99F6780E83B
S11318A070E060E008959FEF80EC089500240A94AE
S11318B01616170618060906089500240A94121627
S11318C01306140605060895092E0394000C11F45A
S11318D0882352F0BB0F40F4BF2B11F460FF04C007
S11318E06F5F7F4F8F4F9F4F089557FD9058440F60
S11318F0551F59F05F3F71F04795880F97FB991F6B
S113190061F09F3F79F08795089512161306140627
S1131910551FF2CF4695F1DF08C0161617061806B4
S1131920991FF1CF86957105610508940895E8948F
S1131930BB2766277727CB0197F908950E94B10C3E
S11319400C94640C0E94560C38F00E945D0C20F03C
S1131950952311F00C944D0C0C94530C11240C94FD
S1131960980C0E94750C70F3959FC1F3950F50E08D
S1131970551F629FF001729FBB27F00DB11D639F3D
S1131980AA27F00DB11DAA1F649F6627B00DA11DE3
S1131990661F829F2227B00DA11D621F739FB00D89
S11319A0A11D621F839FA00D611D221F749F3327F9
S11319B0A00D611D231F849F600D211D822F762F92
S11319C06A2F11249F5750409AF0F1F088234AF06F
S11319D0EE0FFF1FBB1F661F771F881F91505040DB
S11319E0A9F79E3F510580F00C944D0C0C94980C73
S11319F05F3FE4F3983ED4F3869577956795B79562
S1131A00F795E7959F5FC1F7FE2B880F911D96957B
S1131A10879597F9089597FB072E16F4009407D03D
S1131A2077FD09D00E94340D07FC05D03EF4909553
S1131A3081959F4F0895709561957F4F0895EE0F9E
S1131A40FF1F0590F491E02D0994A29FB001B39F6C
S1131A50C001A39F700D811D1124911DB29F700DB3
S1131A60811D1124911D0895AA1BBB1B51E107C0C0
S1131A70AA1FBB1FA617B70710F0A61BB70B881F1A
S1131A80991F5A95A9F780959095BC01CD010895A9
S1131A90FB01DC010D900020E9F7119701900D92F4
S1131AA00020E1F70895FB01DC0101900D92002074
S1131AB0E1F70895E199FECF9FBB8EBBE09A992789
S1131AC08DB30895262FE199FECF9FBB8EBB2DBB0E
S1131AD00FB6F894E29AE19A0FBE01960895F8942D
S1051AE0FFCF32
S1131AE220202020000000007F1981007F1981FC42
S1131AF20000FF00000000010100000000FF0000E0
S1131B0200003001310232043308341035203640EB
S1131B12378020000000303F3106325B334F346699
S1131B22356D367D3707387F396F2E8020002D4082
S1131B32B0636001B4082D4041776177427C627CD6
S1131B4243396358445E645E4579657946716671CA
S1131B524C386C38487668764F5C6F5C563E763EFD
S1131B6252507250507370734A1F6A1F3A30000009
S1131B7270696E670044656275675F4D6F64655F87
S1131B82456E0044656275675F4D6F64655F4469C5
S1131B9200426F6F7400E4052B0742079E07CD07CE
S10D1BA2FE058206BD06F206E20508
S9030000FC
