S0190000446576426F6172645F375365676D656E742E737265639B
S11300000C944E000C946B000C946B000C946B00DD
S11300100C946B000C946B000C946B000C94EE0924
S11300200C946B000C946B000C946B000C946B00A0
S11300300C946B000C9485040C94B0040C946B0029
S11300400C946B000C946B000C946B000C946B0080
S11300500C946B00AB02D602D602D602D602B102D1
S1130060D602D602D602D602B602D602D602D602EC
S1130070D602BC02D602D602D602D602C102D602EB
S1130080D602D602D602C702D602D602D602D602BB
S1130090CC02D602D602D602D602D20211241FBE48
S11300A0CFE5D8E0DEBFCDBF11E0A0E6B0E0E0ECE4
S11300B0F9E102C005900D92AC33B107D9F726E0FF
S11300C0ACE3B1E001C01D92AB37B207E1F70E9487
S11300D041080C94DE0C0C94000000C000C000C069
S11300E000C000C000C000000895A198A098A9987D
S11300F0A8980895A19AF1DF1DD00895A09AEDDF84
S1130100A198EBDFA098E9DFA19AE7DF13D0089567
S1130110082EA19AE2DF802D0DD0882311F002D0A1
S1130120F8CF0895A09AA19AD8DFA098D6DFA19815
S1130130D4DF08950894881F01C0880F59F0A09A4D
S113014018F40000A19802C0A19A00C0C6DFA098CC
S1130150C4DFF3CFA09AA198C0DFA098989BFECFEC
S11301608827999981E0B9DF99270895882701C0E4
S113017081E071E0A09AA198B0DFA098AEDF989BCF
S1130180FECF889499990894771FA0F7A09A81309C
S113019011F0A19801C0A19AA0DFA098989BFECF6E
S11301A09CDF872F99270895ECE3F1E081E38083B6
S11301B03EE2318320E2228340E343833483258378
S11301C0868395E3978393E3908791873287238788
S11301D09487458786878787108ACF010895FC0115
S11301E0108211821282138210925101158214829C
S11301F00895CF93DF93FC01EB01828185508883BE
S11302009381998394819A8395819B83768170935A
S11302105101882329F0CF0107969D838C8302C066
S11302201D821C821682DF011296379630E027E089
S11302309D91932788E0992324F4990F392F32272D
S113024002C0392F330F8150932FA9F7AE17BF0780
S113025079F73093500168816623B1F040E057E0AC
S11302602191922F932728E0992324F4990F392F71
S1130270352702C0392F330F2150932FA9F74F5F31
S1130280461770F330935001731382E0DF91CF91DE
S11302900895CF93DF93DC01109256011496DC91FC
S11302A014971596CC9115978C9190E005968F3FF5
S11302B0910518F021E020934F01E2E5F1E08083FD
S11302C011968C911197818312968C911297828347
S11302D013968C911397838367E571E090E047E070
S11302E02191292738E0222324F4922F990F94276F
S11302F002C0922F990F3150292FA9F7E617F7075B
S113030079F7909350015C915523C1F0ED2FFC2FA8
S113031040E087E02191292738E0222324F4922F1A
S1130320990F982702C0922F990F3150292FA9F7BE
S11303304F5F451778F39093500107C081E0809395
S11303404F0115961C921E921497E2E5F1E09483F6
S113035012961C92129711961C92119713961C9246
S1130360F0934E01E0934D0160914D0170914E0167
S113037080914F01DF91CF910895EF92FF920F93F7
S1130380FC01628341832383F582E48200830F911D
S1130390FF90EF900895CF93DF93EC010E94490101
S11303A0A82FCB0165E00E94120568818C819D8194
S11303B00E941205DF91CF91089590936600809377
S11303C065000895282FA0916500B09166008C9176
S11303D0281781F0882381F080E08F5FE82FF0E018
S11303E0EE0FFF1FEA0FFB1F9081921731F091115E
S11303F0F4CF089580E0089580E008958B3731F4B8
S1130400E8E5F1E080E2808381830AC0E8E5F1E079
S1130410982F92959F70905D90838F70805D8183FB
S1130420E8E5F1E08EE2828380E283836B3719F49E
S1130430848385830AC0E8E5F1E0862F82958F7076
S1130440805D84836F70605D6583E8E5F1E08EE232
S1130450868380E287834B3719F4808781870AC0BB
S1130460E8E5F1E0842F82958F70805D80874F707E
S1130470405D41871092620188E591E00895FC0196
S11304806623CCF46195442329F0413049F080E29D
S1130490808316C08DE2808313C080E6808310C001
S11304A08AE501C080E08A3519F48DE2808308C0B2
S11304B084EB808305C0442381F3413099F3E7CF73
S11304C097E66902912D11249595959567FD93956D
S11304D080E3890F8183990F892F880F880F980FE4
S11304E0691B605D628380EB838383E4848315826C
S11304F0CF0108950F931F93CF93C62F00916500EA
S1130500109166000E94E201E82FF0E0EE0FFF1F59
S1130510E00FF11F818180950E94F0028C2F80955D
S11305208F770E94FF02CF911F910F910895E09160
S11305305701E33218F0109257010DC0EF5FE093BA
S113054057018E2F90E08432910580F5FC01E65D21
S1130550FF4F0C94A20C60E4809160000E947A0228
S1130560089567E880E20E947A02089560E280912B
S113057061000E947A02089567E880E20E947A028C
S1130580089560E1809162000E947A02089567E80C
S113059080E20E947A02089568E0809163000E94DC
S11305A07A02089567E880E20E947A0208958AB385
S11305B0886F8ABB84B3806E84BBBF9ABE9AA49AA8
S11305C081B38C6F81BB84B38C6084BBA49A87B3E2
S11305D0807F87BBD098AC988AB3897F8ABB089503
S11305E0CF93C82F80E40E94880082E10E949A0081
S11305F08C2F0E949A000E949200CF910895CF936D
S1130600C82F80E40E94880083E10E949A008C2F06
S11306100E949A000E949200CF91089580E40E9463
S113062088001092630180E00E949A008091630127
S11306300E949A0081E00E949A00809163010E94C6
S11306409A000E94920080E00E94F00280E00E94E2
S1130650FF020895982F92959F70990F292F220FCA
S1130660220F920F8F70890F08959DEC899F912D11
S1130670112496959695969520E1929FA0011124B8
S1130680990F292F220F220F920F891B842B089573
S11306900F931F93CF93DF93182F062F842FC4E655
S11306A0D1E092E098830E9435038983802F0E94D1
S11306B035038A83812F0E9435038B8382EA0E944B
S11306C088000FE611E089910E949A00C017D107B3
S11306D0D1F70E949200DF91CF911F910F9108955D
S11306E0EF92FF920F931F93CF93DF938C01C4E695
S11306F0D1E082E0888382EA0E947A0088810E94A5
S11307009A0083EA0E947E00882319F00E949200D6
S113071014C0C4E6D1E00F2EFFE6EF2EF1E0FF2E69
S1130720F02D0E94B8008993CE15DF05D1F70E9401
S1130730B60080936F010E949200E4E6F1E0A0818C
S1130740E801A8837181798362816A8353815C8320
S113075034813D8345814B83868190E09F838E83E2
S1130760278128879085998781858A87E285AF7755
S1130770A8837F7779836F736A835F735C834F7118
S11307804B8337703D832F7728879F7799878F779F
S11307908A878E2F8F778B87DF91CF911F910F914F
S11307A0FF90EF900895BC0180E090E00E94A70BB9
S11307B020E030E04FE253E40E94350C20E03FEFAC
S11307C04FE757E40E94FF0A20E030E044E352E49C
S11307D00E94920A0E94710BCB010895CF93DF937C
S11307E01092670085E90E9488000E94B800C0E763
S11307F0D1E088830E94B80089830E94B6008A836E
S11308000E9492008881809598E021E388231CF45B
S1130810880F822701C0880F9150C1F79091710110
S1130820892798E021E388231CF4880F822701C0DC
S1130830880F9150C1F780936F01909172019813C2
S113084009C0E0E7F1E0808190E0982F88272181BA
S1130850822B07C0E7E6F0E080818260808384EA2F
S113086096E0DF91CF9108950E94EE030E94D30396
S113087080936900089584E90E94880082EA0E94B6
S11308809A0080E30E949A000E94920008950E94B8
S11308903B0484E90E94880087E20E949A0087E36F
S11308A00E949A0080EE0E949A0080E00E949A00C2
S11308B00E9492000895CF93DF9383E90E948800F9
S11308C00E94B800D82F0E94B600C82F0E94920040
S11308D08C2F90E09D2B929582958F7089279F7025
S11308E08927DF91CF9108950E945B04BC0180E0C9
S11308F090E00E94A70B20E030E040E85DE30E9416
S1130900350C0E94710B862F08951F920F920FB61B
S11309100F9211242F938F939F93EF93FF938BB197
S11309202CB18871E0917701EF5F90917601E9171E
S113093039F0E0937701F0E0E658FE4F208301C0E0
S113094082E090917501892B80937501FF91EF915D
S11309509F918F912F910F900FBE0F901F9018951C
S11309601F920F920FB60F9211248F939F93EF93C0
S1130970FF939091790180917801981761F0E0914B
S11309807801EF5FEF71E0937801F0E0E658FA4FF9
S113099080818CB901C05598FF91EF919F918F91FF
S11309A00F900FBE0F901F9018951092790110921E
S11309B07801109277011092760199231CF422E0B9
S11309C02BB99F7790BD89B988E98AB986E880BD3B
S11309D008959091770180917601981779F0E091CC
S11309E07601EF5FE0937601F0E0E658FE4F8081F8
S11309F0909175011092750190E0089580E091E066
S1130A000895209179012F5F2F7190917801291712
S1130A10E1F3E22FF0E0E658FA4F80832093790166
S1130A20559A08950F931F93CF93DF93009781F006
S1130A30662371F0EC016150062F10E00F5F1F4F29
S1130A40080F191F89910E9401050C171D07D1F782
S1130A50DF91CF911F910F910895CF93DF93EC0114
S1130A600E94E90490FD2AC0813021E0920728F019
S1130A701092740180E090E023C0209173012D3026
S1130A8079F48A30910561F480917401FE01E80FD4
S1130A90F11D31971082109274018C2F9D2F10C07C
S1130AA0809373019091740121E0290F20937401C4
S1130AB0C90FD11D888380E090E002C080E090E0FF
S1130AC0DF91CF910895EF92FF920F930F2EF0EFE5
S1130AD0EF2EF0E0FF2EF02D04E020E044E060E093
S1130AE085E796E00E94BD0185E796E00E94CB0170
S1130AF080E00F91FF90EF900895EF92FF920F9393
S1130B00CF93DF9300D0CDB7DEB7DC011496ED911F
S1130B10FC9115979081292F30E08181813041F13A
S1130B2020F0823009F445C052C02730310580F4EA
S1130B3062B32F5F3F4F41E050E0FA0102C0EE0F75
S1130B40FF1F2A95E2F79F012095262322BB3FC071
S1130B5065B32550310941E050E0DA0102C0AA0F23
S1130B60BB1F2A95E2F79D012095262325BB2FC0A4
S1130B702730310578F462B32F5F3F4F41E050E0F6
S1130B80FA0102C0EE0FFF1F2A95E2F79F01262B00
S1130B9022BB1DC065B32550310941E050E0DA01A4
S1130BA002C0AA0FBB1F2A95E2F79D01262B25BB85
S1130BB00EC0292F220F220F22BB292F207C30E0C8
S1130BC0329522952F7023273F70232725BB9983C5
S1130BD08A83FE0131967F0102E020E040E065E077
S1130BE085E796E00E94BD0185E796E00E94CB016F
S1130BF080E00F900F90DF91CF910F91FF90EF90D5
S1130C000895EF92FF920F93CF93DF9300D000D01B
S1130C1000D0CDB7DEB7A7E6B0E012968C9112975C
S1130C208983EBE6F0E082818A8313968C91139793
S1130C308B8311968C918C8383818D8381818E83A8
S1130C40CE0101967C0106E020E045E066E085E700
S1130C5096E00E94BD0185E796E00E94CB0180E00A
S1130C6026960FB6F894DEBF0FBECDBFDF91CF91AD
S1130C700F91FF90EF900895EF92FF920F93CF930F
S1130C80DF9300D000D000D0CDB7DEB7EDE5F6E0BD
S1130C90858196818983858196819A8387819085D0
S1130CA08B83878190859C83818592858D838185C3
S1130CB092859E83CE0101967C0106E020E040E00F
S1130CC067E085E796E00E94BD0185E796E00E9413
S1130CD0CB0180E026960FB6F894DEBF0FBECDBFE1
S1130CE0DF91CF910F91FF90EF900895EF92FF92D3
S1130CF00F9380915C06811119C081E080935C069A
S1130D000F2EF5EFEF2EF0E0FF2EF02D0DE020E09A
S1130D1044E06FEF85E796E00E94BD01E0E6F0E075
S1130D2080E3808381838283838310C010925C0676
S1130D300F2EF3E0EF2EF1E0FF2EF02D0DE020E07A
S1130D4044E06FEF85E796E00E94BD0185E796E0F9
S1130D500E94CB0180E00F91FF90EF900895EF92F5
S1130D60FF920F930E94D4007C0101E120E044E053
S1130D7061E085E796E00E94BD0185E796E00E9468
S1130D80CB0180E00F91FF90EF900895EF92FF92D6
S1130D900F93CF93DF93EC0186E990E00E94DD018D
S1130DA0EC81FD81CF0101969D838C838081882312
S1130DB019F08130C9F031C082E890E00E94DD0171
S1130DC080E3E0E6F0E080838183828383832FEFF6
S1130DD039E698E1215030409040E1F700C000002E
S1130DE08F5F873381F719C0E0E6F0E024E630E056
S1130DF0AC81BD81CD0101969D838C838C91805DF6
S1130E0081932E173F07A1F72FEF3DE389E421508B
S1130E1030408040E1F700C00000E12CF12C00E0FC
S1130E2020E040E062E085E796E00E94BD0185E7AE
S1130E3096E00E94CB0180E0DF91CF910F91FF906B
S1130E40EF900895EF92FF920F93FC0120812330DD
S1130E5019F5A481B581CD010196958384838C9184
S1130E609D012E5F3F4F3583248312964C91129738
S1130E7011966C910E944803E12CF12C00E020E0D3
S1130E8040E063E085E796E00E94BD0185E796E0D7
S1130E900E94CB0180E001C081E00F91FF90EF90B0
S1130EA00895EF92FF920F931F93CF93DF9300D097
S1130EB000D000D0CDB7DEB708E616E0F801828195
S1130EC00E942A038983F80181810E942A038A836C
S1130ED0F80180810E942A038B83F80184810E9497
S1130EE02A038C83F80183810E942A038D83F801ED
S1130EF086810E942A038E83CE0101967C0106E03E
S1130F0020E040E064E085E796E00E94BD0185E7CB
S1130F1096E00E94CB0180E026960FB6F894DEBFDF
S1130F200FBECDBFDF91CF911F910F91FF90EF9036
S1130F30089580916D0080935E06E7E6F0E092816B
S1130F402181921714F49093680020916C00821709
S1130F5014F480936C0020916A00291714F4909380
S1130F606A0090916E00981714F480936E000895AF
S1130F708EB589608EBD89B7806189BF80ED97E0A9
S1130F809BBD8ABD0895CF93DF93EC010E94C90CE9
S1130F90823A39F01092740662EACE010E94D10CB2
S1130FA003C081E080937406DF91CF9108959F92EE
S1130FB0AF92BF92CF92DF92EF92FF920F931F9363
S1130FC0CF93DF938C017B01D42EFC010190002090
S1130FD0E9F731975F01A81AB90A86E990E00E94FF
S1130FE0DD01C0906F00CDE5D6E0BB24B5016150B2
S1130FF071096894992495F88A819B818E159F05BF
S113100080F18C8181112DC04C2D0C2C000C550BC2
S1131010A0E6B0E0F801E40FF51F9A012C5F3F4F02
S1131020200F311FCF01801B910B12F49C9207C03B
S11310306817790714F49C9202C080818C931196EE
S11310403196E217F30771F74A155B0539F48CEF13
S113105080936F0081E08093610607C0C3941B8274
S11310601A82D110C9CFC0926F00DF91CF911F9126
S11310700F91FF90EF90DF90CF90BF90AF909F9033
S11310800895CF93DF93CDB7DEB728970FB6F894C2
S1131090DEBF0FBECDBF0E94D70283E390E00E9463
S11310A0D50480E090E00E94C3070E9475000E946E
S11310B00E030E9447040E94B80785E796E00E9449
S11310C0EF0078940F2EF1E1EF2EF1E0FF2EF02DDA
S11310D004E020E044E06FEF85E796E00E94BD0164
S11310E085E796E00E94CB0185E796E00E94AF0673
S11310F081E0809361060F2EFDE5CF2EF6E0DF2E12
S1131100F02D0F2EF0E6AF2EF0E0BF2EF02DCE0125
S1131110039698878F830F2EF7E62F2EF0E03F2E4D
S1131120F02D0F2EF0E26F2EFDE27F2EF02D68944D
S1131130882485F8912C0F2EF8E64F2EF6E05F2ECA
S1131140F02D8EE995E00E942D0590931F06809363
S11311501E06009709F443C065E776E00E94F90093
S11311608130C1F018F0823041F139C0E091770646
S1131170F0E0EE0FFF1FE75DFE4F0190F081E02DE0
S113118085E796E00995F601818592850196928717
S1131190818725C00F2EF6E1EF2EF1E0FF2EF02D12
S11311A008E021E044E06FEFCE0101960E94BD010A
S11311B0CE0101960E94CB0112C00F2EFFE1EF2E4B
S11311C0F1E0FF2EF02D09E022E044E06FEFCE01C4
S11311D001960E94BD01CE0101960E94CB01F60149
S11311E084818823C9F080915C0681115DC080816F
S11311F0816080830E943404F10182830E9474041C
S113120080936D000E949907C2010E947003F60149
S113121080818E7F8083148280915C06811144C01A
S11312201A82198284E0EF81F88511928A95E9F790
S113123040E0F1016281CE0101960E943F02BC01AF
S113124080E296E00E94C20C00E216E0F8010190F0
S11312500020E9F73197718260829382828241E0B3
S113126060916D00CE0101960E943F02BC01C8014D
S11312700E94B70CF80101900020E9F731977182C0
S1131280608293828282F2014081618182810E9424
S1131290FE01BC01C8010E94B70C40E06CED75E092
S11312A0C8010E94D7074DCFF601218532853695B6
S11312B027953695279536952795A5ECB0E20E949B
S11312C0A80CAC01529542954F7045275F70452795
S11312D09A01ADECBCEC0E94A80C96958795969566
S11312E08795969587959C01220F331F880F991F28
S11312F0880F991F880F991F820F931F481B590B42
S1131300405DF5014083F6012185328536952795A8
S113131036952795ABE7B4E10E94A80CAC0156952D
S113132047959A01ADECBCEC0E94A80C9695879564
S113133096958795969587959C01220F331F880F64
S1131340991F880F991F880F991F820F931F481B9D
S1131350590B405DF5014183F601218532850E94D8
S1131360A80CAC01569547955695479556954795C3
S11313709A010E94A80C96958795969587959695BF
S113138087959C01220F331F880F991F880F991F7F
S1131390880F991F820F931F481B590B405DF5015D
S11313A04283F601418552859A010E94A80C9695C4
S11313B0879596958795969587959C01220F331F5F
S11313C0880F991F880F991F880F991F820F931FE9
S11313D0481B590B405DF5014383B3CE1F920F9216
S11313E00FB60F9211242F933F934F935F936F93F4
S11313F07F938F939F93AF93BF93EF93FF93EDE509
S1131400F6E08281938101969383828380919A0589
S113141090919B05A0919C05B0919D050196A11DFD
S1131420B11D813127E2920708F062C0AA27BB27C9
S113143080939A0590939B05A0939C05B0939D057A
S1131440893C9105A105B10510F4C79824C0AC01ED
S1131450BD014059514061097109493C510561057B
S1131460710510F4C79A17C0AC01BD01485E534022
S113147061097109413951406105710510F4C7983A
S11314800AC080549640A109B109893C9105A1057F
S1131490B10508F4C79AE0E7F0E0818924E082020C
S11314A0C00111248F70818BC99B03C08189826024
S11314B0818BCA9B05C0E0E7F0E081898160818B64
S11314C0A0E7B0E05196EC9151970E2E000CFF0B63
S11314D0E059FF4F808150969C915097890F509608
S11314E08C9380915D0680FD0CC00E94970209C018
S11314F010929A0510929B0510929C0510929D05DE
S1131500A4CFFF91EF91BF91AF919F918F917F9164
S11315106F915F914F913F912F910F900FBE0F905C
S11315201F9018955058BB27AA270E94AA0A0C940A
S1131530FB0B0E94ED0B38F00E94F40B20F039F401
S11315409F3F19F426F40C94EA0B0EF4E095E7FBA4
S11315500C94E40BE92F0E940C0C58F3BA176207A1
S113156073078407950720F079F4A6F50C942E0CE4
S11315700EF4E0950B2EBA2FA02D0B01B9019001AA
S11315800C01CA01A0011124FF27591B99F0593FEE
S113159050F4503E68F11A16F040A22F232F342F36
S11315A04427585FF3CF469537952795A795F04084
S11315B05395C9F77EF41F16BA0B620B730B840B99
S11315C0BAF09150A1F0FF0FBB1F661F771F881F51
S11315D0C2F70EC0BA0F621F731F841F48F48795A9
S11315E077956795B795F7959E3F08F0B0CF93959B
S11315F0880F08F09927EE0F9795879508950E9414
S1131600130B0C94FB0B0E94F40B58F00E94ED0B8F
S113161040F029F45F3F29F00C94E40B51110C9431
S11316202F0C0C94EA0B0E940C0C68F39923B1F371
S1131630552391F3951B550BBB27AA2762177307F4
S1131640840738F09F5F5F4F220F331F441FAA1F88
S1131650A9F335D00E2E3AF0E0E832D09150504044
S1131660E695001CCAF72BD0FE2F29D0660F771FF2
S1131670881FBB1F261737074807AB07B0E809F0D8
S1131680BB0B802DBF01FF2793585F4F3AF09E3F5D
S1131690510578F00C94E40B0C942F0C5F3FE4F3A9
S11316A0983ED4F3869577956795B795F7959F5FA0
S11316B0C9F7880F911D9695879597F90895E1E0EC
S11316C0660F771F881FBB1F621773078407BA074B
S11316D020F0621B730B840BBA0BEE1F88F7E095A6
S11316E008950E94780B6894B1110C942F0C0895FE
S11316F00E94140C88F09F5798F0B92F9927B7517E
S1131700B0F0E1F0660F771F881F991F1AF0BA95A1
S1131710C9F714C0B13091F00E942E0CB1E00895C5
S11317200C942E0C672F782F8827B85F39F0B93FB7
S1131730CCF3869577956795B395D9F73EF4909554
S11317408095709561957F4F8F4F9F4F0895E894D2
S113175009C097FB3EF490958095709561957F4FF5
S11317608F4F9F4F9923A9F0F92F96E9BB279395A3
S1131770F695879577956795B795F111F8CFFAF4B3
S1131780BB0F11F460FF1BC06F5F7F4F8F4F9F4FE4
S113179016C0882311F096E911C0772321F09EE842
S11317A0872F762F05C0662371F096E8862F70E0A8
S11317B060E02AF09A95660F771F881FDAF7880F82
S11317C09695879597F9089597F99F6780E870E053
S11317D060E008959FEF80EC089500240A941616A3
S11317E0170618060906089500240A94121613060B
S11317F0140605060895092E0394000C11F4882399
S113180052F0BB0F40F4BF2B11F460FF04C06F5FB4
S11318107F4F8F4F9F4F089557FD9058440F551F8A
S113182059F05F3F71F04795880F97FB991F61F05E
S11318309F3F79F087950895121613061406551FD5
S1131840F2CF4695F1DF08C0161617061806991F41
S1131850F1CF86957105610508940895E894BB2736
S113186066277727CB0197F908950E94480C0C94BA
S1131870FB0B0E94ED0B38F00E94F40B20F0952333
S113188011F00C94E40B0C94EA0B11240C942F0C1F
S11318900E940C0C70F3959FC1F3950F50E0551FF7
S11318A0629FF001729FBB27F00DB11D639FAA27B1
S11318B0F00DB11DAA1F649F6627B00DA11D661F00
S11318C0829F2227B00DA11D621F739FB00DA11D21
S11318D0621F839FA00D611D221F749F3327A00DDB
S11318E0611D231F849F600D211D822F762F6A2F77
S11318F011249F5750409AF0F1F088234AF0EE0FDC
S1131900FF1FBB1F661F771F881F91505040A9F708
S11319109E3F510580F00C94E40B0C942F0C5F3F18
S1131920E4F3983ED4F3869577956795B795F79544
S1131930E7959F5FC1F7FE2B880F911D96958795BC
S113194097F90895EE0FFF1F0590F491E02D099487
S1131950A29FB001B39FC001A39F700D811D1124EC
S1131960911DB29F700D811D1124911D0895FB01DD
S1131970DC010D900020E9F7119701900D920020F1
S1131980E1F70895FB01DC0101900D920020E1F7DD
S11319900895E199FECF9FBB8EBBE09A99278DB342
S11319A00895262FE199FECF9FBB8EBB2DBB0FB6AA
S11319B0F894E29AE19A0FBE01960895F894FFCF45
S11319C020202020000000007F1981007F1981FC65
S11319D00000FF00000000010100000000FF000003
S11319E0000030013102320433083410352036400F
S11319F0378020000000303F3106325B334F3466BD
S1131A00356D367D3707387F396F2E8020002D40A5
S1131A10B0636001B4082D4041776177427C627CF9
S1131A2043396358445E645E4579657946716671ED
S1131A304C386C38487668764F5C6F5C563E763E20
S1131A4052507250507370734A1F6A1F3A3000002C
S1131A5070696E670044656275675F4D6F64655FAA
S1131A60456E0044656275675F4D6F64655F4469E8
S1131A7000426F6F74004E4F5F5354415254004301
S1131A8052435F4552524F52006305AF06C60622C9
S10F1A900751077D0501063C06760600A0
S9030000FC
