S0190000446576426F6172645F375365676D656E742E737265639B
S11300000C944E000C946B000C946B000C946B00DD
S11300100C946B000C946B000C946B000C943309DF
S11300200C946B000C946B000C946B000C946B00A0
S11300300C946B000C94B5040C94E0040C946B00C9
S11300400C946B000C946B000C946B000C946B0080
S11300500C946B00DB020603060306030603E102AD
S11300600603060306030603E60206030603060365
S11300700603EC020603060306030603F102060365
S1130080060306030603F702060306030603060334
S1130090FC020603060306030603020311241FBE23
S11300A0CFE5D8E0DEBFCDBF11E0A0E6B0E0ECE2E2
S11300B0F8E102C005900D92A231B107D9F726E00C
S11300C0A2E1B1E001C01D92A235B207E1F70E949E
S11300D038080C94140C0C94000000C000C000C03C
S11300E000C000C000C000000895A198A098A9987D
S11300F0A8980895A19AF1DF1DD00895A09AEDDF84
S1130100A198EBDFA098E9DFA19AE7DF13D0089567
S1130110082EA19AE2DF802D0DD0882311F002D0A1
S1130120F8CF0895A09AA19AD8DFA098D6DFA19815
S1130130D4DF08950894881F01C0880F59F0A09A4D
S113014018F40000A19802C0A19A00C0C6DFA098CC
S1130150C4DFF3CFA09AA198C0DFA098989BFECFEC
S11301608827999981E0B9DF99270895882701C0E4
S113017081E071E0A09AA198B0DFA098AEDF989BCF
S1130180FECF889499990894771FA0F7A09A81309C
S113019011F0A19801C0A19AA0DFA098989BFECF6E
S11301A09CDF872F99270895E2E1F1E081E38083C2
S11301B02EE2218390E2928330E333832483958378
S11301C0868345E34783808731872287938792E339
S11301D0948794E3958786878787108ACF0108954B
S11301E0FC011082118212821382148215821682FB
S11301F0108617820895FC0190E081918D3229F4D4
S113020080818B3211F4892F08959F5F9F3FA9F756
S11302108FEF08950F931F93CF93DF938C01EB011E
S11302200E94FB008F3F09F463C0482F082E000C86
S1130230550BF801E40FF51F9281988393819983FC
S113024024812A8325812B8326812C83FA013796E6
S1130250E00FF11F20812D83911103C018861F82A6
S113026007C09A01285F3F4F200F311F38872F8323
S11302701E821082D801A40FB51F485F5F4F400F44
S1130280511F30E0682F880F770B27E0FB019D9109
S1130290932788E0992324F4990F392F322702C039
S11302A0392F330F8150932FA9F7A417B50771F78E
S11302B03093230169816623C9F03896E00FF11F5A
S11302C040E057E02191922F932728E0992324F4CA
S11302D0990F392F352702C0392F330F2150932F0F
S11302E0A9F74F5F461770F3309323013E8301C093
S11302F081E0DF91CF911F910F9108951F93CF93C8
S1130300DF93DC01E4E2F1E0178217961C91179762
S11303101896DC9118971196CC911197C85F8DE2CD
S113032080838BE2818313968C9113978583C28398
S113033011968C911197838312968C9112978483D2
S113034014968C91149786836CE271E030E047E058
S11303502191922F932728E0992324F4990F392F80
S1130360342702C0392F330F2150932FA9F7E617F2
S1130370F70771F73093230111965C911197552378
S1130380C1F0E12FFD2F40E087E09191932728E011
S1130390992324F4990F392F382702C0392F330FAA
S11303A02150932FA9F74F5F451778F3309323011A
S11303B004C018961C921E92179730932B01139623
S11303C01C92139712961C92129714961C921497CF
S11303D0CC9384E291E0DF91CF911F910895EF9245
S11303E0FF920F93FC01638342832483F086E782A8
S11303F001830F91FF90EF900895CF93DF93EC0169
S11304000E947E0168E00E94420569818F8198857F
S11304100E944205DF91CF910895909366008093E6
S113042065000895282FA0916500B09166008C9115
S1130430281781F0882381F080E08F5FE82FF0E0B7
S1130440EE0FFF1FEA0FFB1F9081921731F09111FD
S1130450F4CF089580E0089580E008958B3731F457
S1130460EDE2F1E080E2808381830AC0EDE2F1E015
S1130470982F92959F70905D90838F70805D81839B
S1130480EDE2F1E08EE2828380E283836B3719F43C
S1130490848385830AC0EDE2F1E0862F82958F7014
S11304A0805D84836F70605D6583EDE2F1E08EE2D0
S11304B0868380E287834B3719F4808781870AC05B
S11304C0EDE2F1E0842F82958F70805D80874F701C
S11304D0405D4187109237018DE291E00895FC015F
S11304E06623CCF46195442329F0413049F080E23D
S11304F0808316C08DE2808313C080E6808310C0A1
S11305008AE501C080E08A3519F48DE2808308C051
S113051084EB808305C0442381F3413099F3E7CF12
S113052097E66902912D11249595959567FD93950C
S113053080E3890F8183990F892F880F880F980F83
S1130540691B605D628380EB838383E4848315820B
S1130550CF0108950F931F93CF93C62F0091650089
S1130560109166000E941202E82FF0E0EE0FFF1FC8
S1130570E00FF11F818180950E9420038C2F8095CC
S11305808F770E942F03CF911F910F910895E091CF
S11305902C01E33218F010922C010DC0EF5FE093B0
S11305A02C018E2F90E08432910580F5FC01E65DEC
S11305B0FF4F0C94E70B60E4809160000E94AA0254
S11305C0089567E880E20E94AA02089560E280919B
S11305D061000E94AA02089567E880E20E94AA02CC
S11305E0089560E1809162000E94AA02089567E87C
S11305F080E20E94AA02089568E0809163000E944C
S1130600AA02089567E880E20E94AA0208958AB3C4
S1130610886F8ABB84B3806E84BBBF9ABE9AA49A47
S113062081B38C6F81BB84B38C6084BBA49A87B381
S1130630807F87BBD098AC988AB3897F8ABB0895A2
S1130640CF93C82F80E40E94880082E10E949A0020
S11306508C2F0E949A000E949200CF910895CF930C
S1130660C82F80E40E94880083E10E949A008C2FA6
S11306700E949A000E949200CF91089580E40E9403
S113068088001092380180E00E949A00809138011D
S11306900E949A0081E00E949A00809138010E9491
S11306A09A000E94920080E00E94200380E00E9451
S11306B02F030895982F92959F70990F292F220F39
S11306C0220F920F8F70890F08959DEC899F912DB1
S11306D0112496959695969520E1929FA001112458
S11306E0990F292F220F220F920F891B842B089513
S11306F00F931F93CF93DF93182F062F842FC9E3F3
S1130700D1E092E098830E9465038983802F0E9440
S113071065038A83812F0E9465038B8382EA0E948A
S1130720880004E411E089910E949A00C017D1075F
S1130730D1F70E949200DF91CF911F910F910895FC
S1130740EF92FF920F931F93CF93DF938C01C9E332
S1130750D1E082E0888382EA0E947A0088810E9444
S11307609A0083EA0E947E00882319F00E94920076
S113077014C0C9E3D1E00F2EF4E4EF2EF1E0FF2E14
S1130780F02D0E94B8008993CE15DF05D1F70E94A1
S1130790B600809344010E949200E9E3F1E0A08155
S11307A0E801A8837181798362816A8353815C83C0
S11307B034813D8345814B83868190E09F838E8382
S11307C0278128879085998781858A87E285AF77F5
S11307D0A8837F7779836F736A835F735C834F71B8
S11307E04B8337703D832F7728879F7799878F773F
S11307F08A878E2F8F778B87DF91CF911F910F91EF
S1130800FF90EF900895BC0180E090E00E94EC0A14
S113081020E030E04FE253E40E947A0B20E03FEF07
S11308204FE757E40E94440A20E030E044E352E4F6
S11308300E94D7090E94B60ACB010895CF93DF9393
S11308401092670085E90E9488000E94B800C5E400
S1130850D1E088830E94B80089830E94B6008A830D
S11308600E9492008881809598E021E388231CF4FB
S1130870880F822701C0880F9150C1F790914601DB
S1130880892798E021E388231CF4880F822701C07C
S1130890880F9150C1F780934401909147019813B8
S11308A009C0E5E4F1E0808190E0982F8827218158
S11308B0822B07C0E7E6F0E080818260808384EACF
S11308C096E0DF91CF9108950E941E040E940304D4
S11308D080936900089584E90E94880082EA0E9456
S11308E09A0080E30E949A000E94920008950E9458
S11308F06B0484E90E94880087E20E949A0087E3DF
S11309000E949A0080EE0E949A0080E00E949A0061
S11309100E9492000895CF93DF9383E90E94880098
S11309200E94B800D82F0E94B600C82F0E949200DF
S11309308C2F90E09D2B929582958F7089279F70C4
S11309408927DF91CF9108950E948B04BC0180E038
S113095090E00E94EC0A20E030E040E85DE30E9471
S11309607A0B0E94B60A862F08951F920F920FB633
S11309700F9211242F938F939F93EF93FF938BB137
S11309802CB18871E0914C01EF5F90914B01E91714
S113099039F0E0934C01F0E0E15BFE4F208301C0AD
S11309A082E090914A01892B80934A01FF91EF9153
S11309B09F918F912F910F900FBE0F901F901895BC
S11309C01F920F920FB60F9211248F939F93EF9360
S11309D0FF9390914E0180914D01981761F0E09141
S11309E04D01EF5FEF71E0934D01F0E0E15BFA4FF1
S11309F080818CB901C05598FF91EF919F918F919F
S1130A000F900FBE0F901F90189510924E011092E8
S1130A104D0110924C0110924B0199231CF422E0D9
S1130A202BB99F7790BD89B988E98AB986E880BDDA
S1130A30089590914C0180914B01981779F0E091C1
S1130A404B01EF5FE0934B01F0E0E15BFE4F8081EF
S1130A5090914A0110924A0190E0089580E091E05B
S1130A60089520914E012F5F2F7190914D01291708
S1130A70E1F3E22FF0E0E15BFA4F808320934E0133
S1130A80559A08950F931F93CF93DF93009781F0A6
S1130A90662371F0EC016150062F10E00F5F1F4FC9
S1130AA0080F191F89910E9431050C171D07D1F7F2
S1130AB0DF91CF911F910F910895CF93DF93EC01B4
S1130AC00E94190590FD2AC0813021E0920728F088
S1130AD01092490180E090E023C0209148012D301C
S1130AE079F48A30910561F480914901FE01E80F9F
S1130AF0F11D31971082109249018C2F9D2F10C047
S1130B00809348019091490121E0290F20934901E4
S1130B10C90FD11D888380E090E002C080E090E09E
S1130B20DF91CF910895EF92FF920F930F2EF0EF84
S1130B30EF2EF0E0FF2EF02D04E020E044E060E032
S1130B4089E496E00E94EF0189E496E00E94FD01A9
S1130B5080E00F91FF90EF900895EF92FF920F9332
S1130B60CF93DF9300D0CDB7DEB7DC011796ED91BC
S1130B70FC9118979081292F30E08181813041F1D7
S1130B8020F0823009F445C052C02730310580F48A
S1130B9062B32F5F3F4F41E050E0FA0102C0EE0F15
S1130BA0FF1F2A95E2F79F012095262322BB3FC011
S1130BB065B32550310941E050E0DA0102C0AA0FC3
S1130BC0BB1F2A95E2F79D012095262325BB2FC044
S1130BD02730310578F462B32F5F3F4F41E050E096
S1130BE0FA0102C0EE0FFF1F2A95E2F79F01262BA0
S1130BF022BB1DC065B32550310941E050E0DA0144
S1130C0002C0AA0FBB1F2A95E2F79D01262B25BB24
S1130C100EC0292F220F220F22BB292F207C30E067
S1130C20329522952F7023273F70232725BB998364
S1130C308A83FE0131967F0102E020E040E065E016
S1130C4089E496E00E94EF0189E496E00E94FD01A8
S1130C5080E00F900F90DF91CF910F91FF90EF9074
S1130C600895EF92FF920F93CF93DF9300D000D0BB
S1130C7000D0CDB7DEB7A7E6B0E012968C911297FC
S1130C808983EBE6F0E082818A8313968C91139733
S1130C908B8311968C918C8383818D8381818E8348
S1130CA0CE0101967C0106E020E045E066E089E49F
S1130CB096E00E94EF0189E496E00E94FD0180E045
S1130CC026960FB6F894DEBF0FBECDBFDF91CF914D
S1130CD00F91FF90EF900895EF92FF920F93CF93AF
S1130CE0DF9300D000D000D0CDB7DEB7E1E3F6E06B
S1130CF0858196818983858196819A838781908570
S1130D008B83878190859C83818592858D83818562
S1130D1092859E83CE0101967C0106E020E040E0AE
S1130D2067E089E496E00E94EF0189E496E00E947E
S1130D30FD0180E026960FB6F894DEBF0FBECDBF4E
S1130D40DF91CF910F91FF90EF900895EF92FF9272
S1130D500F930E94D4007C0101E120E044E061E0B3
S1130D6089E496E00E94EF0189E496E00E94FD0187
S1130D7080E00F91FF90EF900895EF92FF920F9310
S1130D80CF93DF93EC0186E990E00E940D02EF819E
S1130D90F885CF01019698878F838081882319F085
S1130DA08130C9F031C082E890E00E940D0280E3F6
S1130DB0E0E6F0E080838183828383832FEF39E64A
S1130DC098E1215030409040E1F700C000008F5F6F
S1130DD0873381F719C0E0E6F0E024E630E0AF8124
S1130DE0B885CD01019698878F838C91805D81931E
S1130DF02E173F07A1F72FEF3DE389E42150304040
S1130E008040E1F700C00000E12CF12C00E020E07C
S1130E1040E062E089E496E00E94EF0189E496E014
S1130E200E94FD0180E0DF91CF910F91FF90EF9040
S1130E300895EF92FF920F93FC012181233019F55D
S1130E40A781B085CD010196908787838C919D0100
S1130E502E5F3F4F3087278312964C91129711963D
S1130E606C910E947803E12CF12C00E020E040E03A
S1130E7063E089E496E00E94EF0189E496E00E9431
S1130E80FD0180E001C081E00F91FF90EF90089593
S1130E90EF92FF920F931F93CF93DF9300D000D074
S1130EA000D0CDB7DEB70CE316E0F80182810E94D2
S1130EB05A038983F80181810E945A038A83F801C5
S1130EC080810E945A038B83F80184810E945A0313
S1130ED08C83F80183810E945A038D83F8018681F3
S1130EE00E945A038E83CE0101967C0106E020E025
S1130EF040E064E089E496E00E94EF0189E496E032
S1130F000E94FD0180E026960FB6F894DEBF0FBE66
S1130F10CDBFDF91CF911F910F91FF90EF90089576
S1130F2080916D0080933206E7E6F0E092812181A2
S1130F30921714F49093680020916C00821714F4B3
S1130F4080936C0020916A00291714F490936A002E
S1130F5090916E00981714F480936E0008958EB5E6
S1130F6089608EBD89B7806189BF80ED97E09BBDA4
S1130F708ABD0895CF93DF93EC010E94FF0B823A60
S1130F8039F01092480662EACE010E94070C03C0B1
S1130F9081E080934806DF91CF9108959F92AF92AC
S1130FA0BF92CF92DF92EF92FF920F931F93CF9352
S1130FB0DF938C017B01D42EFC0101900020E9F722
S1130FC031975F01A81AB90A86E990E00E940D02E0
S1130FD0C0906F00C1E3D6E0BB24B5016150710934
S1130FE06894992495F88A819B818E159F0580F1D8
S1130FF08C8181112DC04C2D0C2C000C550BA0E6BE
S1131000B0E0F801E40FF51F9A012C5F3F4F200F69
S1131010311FCF01801B910B12F49C9207C06817FB
S1131020790714F49C9202C080818C9311963196B6
S1131030E217F30771F74A155B0539F48CEF8093D7
S11310406F0081E08093350607C0C3941B821A8227
S1131050D110C9CFC0926F00DF91CF911F910F9132
S1131060FF90EF90DF90CF90BF90AF909F90089546
S1131070CF93DF9300D000D000D0CDB7DEB70E946D
S1131080070383E390E00E94050580E090E00E945E
S1131090BA070E9475000E943E030E9477040E94D2
S11310A0AF0789E496E00E94F00078940F2EF5EFE4
S11310B0EF2EF0E0FF2EF02D04E020E044E06FEF8F
S11310C089E496E00E94EF0189E496E00E94FD0124
S11310D081E0809335060F2EF1E3CF2EF6E0DF2E6C
S11310E0F02D0F2EF7E66F2EF0E07F2EF02D0F2E51
S11310F0FBE64F2EF0E05F2EF02D1E0183E0280E5C
S1131100311C0F2EF0E28F2EFDE29F2EF02D6894FD
S1131110AA24A5F8B12C83E795E00E945D0590937D
S1131120F4058093F305009709F43FC069E476E081
S11311300E940A01811139C0E9E4F6E095818681B3
S113114098131BC0E0914C06E830B8F4F0E0EE0FC1
S1131150FF1FEE5FFE4F0190F081E02D89E496E0E1
S11311600995F60181859285019692878187878109
S1131170908501969087878318C00F2EFAEFEF2E83
S1131180F0E0FF2EF02D07E020E044E06FEF89E46B
S113119096E00E94EF0189E496E00E94FD01F601C9
S11311A085819681019696838583F60184818823BF
S11311B0B1F08081816080830E946404F3018283A2
S11311C00E94A404F20182830E9490078CE396E0BB
S11311D00E94A003F60180818E7F808314821A828C
S11311E0198284E0F10111928A95E9F740E0F30154
S11311F06281CE0101960E946F02BC0185EF95E0E9
S11312000E94F80B05EF15E0F80101900020E9F7C2
S1131210319791828082B382A28241E0F20162819D
S1131220CE0101960E946F02BC01C8010E94ED0B21
S1131230F80101900020E9F7319791828082B3820E
S1131240A282ECE3F6E04081618182810E942E0259
S1131250BC01C8010E94ED0B40E06CED75E0C801D3
S11312600E94CE0758CF1F920F920FB60F921124EF
S11312702F933F934F935F936F937F938F939F939A
S1131280AF93BF93EF93FF93E1E3F6E08281938101
S113129001969383828380916F0590917005A0914C
S11312A07105B09172050196A11DB11D813127E22E
S11312B0920708F062C0AA27BB2780936F0590931A
S11312C07005A0937105B0937205893C9105A10541
S11312D0B10510F4C79824C0AC01BD014059514078
S11312E061097109493C51056105710510F4C79AFA
S11312F017C0AC01BD01485E534061097109413911
S113130051406105710510F4C7980AC08054964095
S1131310A109B109893C9105A105B10508F4C79A51
S1131320E0E7F0E0818924E08202C00111248F709B
S1131330818BC99B03C081898260818BCA9B05C054
S1131340E0E7F0E081898160818BA0E7B0E051960D
S1131350EC9151970E2E000CFF0BE059FF4F80814A
S113136050969C915097890F50968C93809131069A
S113137080FD0CC00E94C70209C010926F05109234
S113138070051092710510927205A4CFFF91EF9130
S1131390BF91AF919F918F917F916F915F914F9189
S11313A03F912F910F900FBE0F901F90189550589A
S11313B0BB27AA270E94EF090C94400B0E94320B12
S11313C038F00E94390B20F039F49F3F19F426F4C9
S11313D00C942F0B0EF4E095E7FB0C94290BE92FEA
S11313E00E94510B58F3BA176207730784079507D5
S11313F020F079F4A6F50C94730B0EF4E0950B2E03
S1131400BA2FA02D0B01B90190010C01CA01A00152
S11314101124FF27591B99F0593F50F4503E68F1AD
S11314201A16F040A22F232F342F4427585FF3CFEE
S1131430469537952795A795F0405395C9F77EF4BF
S11314401F16BA0B620B730B840BBAF09150A1F008
S1131450FF0FBB1F661F771F881FC2F70EC0BA0F8E
S1131460621F731F841F48F4879577956795B79516
S1131470F7959E3F08F0B0CF9395880F08F0992711
S1131480EE0F9795879508950E94580A0C94400B87
S11314900E94390B58F00E94320B40F029F45F3F50
S11314A029F00C94290B51110C94740B0C942F0BF0
S11314B00E94510B68F39923B1F3552391F3951BC3
S11314C0550BBB27AA2762177307840738F09F5F61
S11314D05F4F220F331F441FAA1FA9F335D00E2ECE
S11314E03AF0E0E832D091505040E695001CCAF73B
S11314F02BD0FE2F29D0660F771F881FBB1F2617FE
S113150037074807AB07B0E809F0BB0B802DBF01D4
S1131510FF2793585F4F3AF09E3F510578F00C94A3
S1131520290B0C94740B5F3FE4F3983ED4F3869537
S113153077956795B795F7959F5FC9F7880F911DC4
S11315409695879597F90895E1E0660F771F881FB0
S1131550BB1F621773078407BA0720F0621B730B63
S1131560840BBA0BEE1F88F7E09508950E94BD0A1C
S11315706894B1110C94740B08950E94590B88F06F
S11315809F5798F0B92F9927B751B0F0E1F0660F43
S1131590771F881F991F1AF0BA95C9F714C0B13084
S11315A091F00E94730BB1E008950C94730B672FB4
S11315B0782F8827B85F39F0B93FCCF386957795B3
S11315C06795B395D9F73EF490958095709561959C
S11315D07F4F8F4F9F4F0895E89409C097FB3EF4C7
S11315E090958095709561957F4F8F4F9F4F99236C
S11315F0A9F0F92F96E9BB279395F69587957795EA
S11316006795B795F111F8CFFAF4BB0F11F460FFA9
S11316101BC06F5F7F4F8F4F9F4F16C0882311F001
S113162096E911C0772321F09EE8872F762F05C015
S1131630662371F096E8862F70E060E02AF09A95B0
S1131640660F771F881FDAF7880F9695879597F9A5
S1131650089597F99F6780E870E060E008959FEF30
S113166080EC089500240A94161617061806090635
S1131670089500240A941216130614060506089504
S1131680092E0394000C11F4882352F0BB0F40F48C
S1131690BF2B11F460FF04C06F5F7F4F8F4F9F4FCC
S11316A0089557FD9058440F551F59F05F3F71F04E
S11316B04795880F97FB991F61F09F3F79F08795B5
S11316C00895121613061406551FF2CF4695F1DF3E
S11316D008C0161617061806991FF1CF86957105CE
S11316E0610508940895E894BB2766277727CB0102
S11316F097F908950E948D0B0C94400B0E94320BB5
S113170038F00E94390B20F0952311F00C94290B2A
S11317100C942F0B11240C94740B0E94510B70F336
S1131720959FC1F3950F50E0551F629FF001729F82
S1131730BB27F00DB11D639FAA27F00DB11DAA1F91
S1131740649F6627B00DA11D661F829F2227B00DDE
S1131750A11D621F739FB00DA11D621F839FA00D69
S1131760611D221F749F3327A00D611D231F849FB9
S1131770600D211D822F762F6A2F11249F57504010
S11317809AF0F1F088234AF0EE0FFF1FBB1F661F8B
S1131790771F881F91505040A9F79E3F510580F054
S11317A00C94290B0C94740B5F3FE4F3983ED4F330
S11317B0869577956795B795F795E7959F5FC1F7F8
S11317C0FE2B880F911D9695879597F90895EE0F36
S11317D0FF1F0590F491E02D0994FB01DC010D90AD
S11317E00020E9F7119701900D920020E1F7089588
S11317F0FB01DC0101900D920020E1F70895E199CD
S1131800FECF9FBB8EBBE09A99278DB30895262FF8
S1131810E199FECF9FBB8EBB2DBB0FB6F894E29A25
S10F1820E19A0FBE01960895F894FFCFE2
S113182C20202020000000007F1981007F1981FCFA
S113183C0000FF00000000010100000000FF000098
S113184C00003001310232043308341035203640A4
S113185C378020000000303F3106325B334F346652
S113186C356D367D3707387F396F2E8020002D403B
S113187CB0636001B4082D4041776177427C627C8F
S113188C43396358445E645E457965794671667183
S113189C4C386C38487668764F5C6F5C563E763EB6
S11318AC52507250507370734A1F6A1F3A300000C2
S11318BC70696E6700426F6F7400636D645F626180
S11318CC64009305A606BD0619074807AD05310645
S10518DC6C0694
S9030000FC
