S0190000446576426F6172645F375365676D656E742E737265639B
S11300000C944E000C946B000C946B000C946B00DD
S11300100C946B000C946B000C946B000C942A0AE7
S11300200C946B000C946B000C946B000C946B00A0
S11300300C946B000C94D4040C94FF040C946B008B
S11300400C946B000C946B000C946B000C946B0080
S11300500C946B00FA0225032503250325030003F2
S1130060250325032503250305032503250325036C
S113007025030B032503250325032503100325036B
S1130080250325032503160325032503250325033B
S11300901B032503250325032503210311241FBE68
S11300A0CFE5D8E0DEBFCDBF11E0A0E6B0E0E8E3E5
S11300B0FAE102C005900D92A832B107D9F726E003
S11300C0A8E2B1E001C01D92AA36B207E1F70E948E
S11300D090080C941A0D0C94000000C000C000C0DD
S11300E000C000C000C000000895A198A098A9987D
S11300F0A8980895A19AF1DF1DD00895A09AEDDF84
S1130100A198EBDFA098E9DFA19AE7DF13D0089567
S1130110082EA19AE2DF802D0DD0882311F002D0A1
S1130120F8CF0895A09AA19AD8DFA098D6DFA19815
S1130130D4DF08950894881F01C0880F59F0A09A4D
S113014018F40000A19802C0A19A00C0C6DFA098CC
S1130150C4DFF3CFA09AA198C0DFA098989BFECFEC
S11301608827999981E0B9DF99270895882701C0E4
S113017081E071E0A09AA198B0DFA098AEDF989BCF
S1130180FECF889499990894771FA0F7A09A81309C
S113019011F0A19801C0A19AA0DFA098989BFECF6E
S11301A09CDF872F99270895E8E2F1E081E38083BB
S11301B03EE2318320E2228390E3938334832583D8
S11301C0968345E3478340878187328723879487D3
S11301D093E39587868782E38787108ACF01089502
S11301E0FC0190E081918D3241F49F3758F4808175
S11301F08B3219F482E0890F08959F5F9F3791F73E
S11302008FEF08958FEF0895FC01108211821282FE
S1130210138210923F0110923E01158214821092B3
S11302203D010895EF92FF920F931F93CF93DF93B5
S1130230EC018B010E94F00080933D018F3F09F493
S11302406DC0282F082E000C330BDE01A20FB31F44
S11302509C919550F801908311964C91119741838C
S113026012964C911297428313964C9113974383A1
S1130270F90134967F01EC0EFD1EF7016081609355
S11302803F01992349F0A9014B5F5F4F4C0F5D1F5C
S1130290F8015583448303C0F80115821482109237
S11302A03E01F7011082E82F880FFF0B2B5F3F4FB1
S11302B02C0F3D1F90E047E08D91982788E099230B
S11302C01CF4990F942701C0990F8150C1F7A2170C
S11302D0B30791F790933C0190933E01D8015C9150
S11302E05523B9F03596EC0FFD1F30E047E021911E
S11302F0922728E099231CF4990F942701C0990FA1
S11303002150C1F73F5F351790F390933C019093D0
S11303103E0190913E01691303C003C081E001C016
S113032082E0DF91CF911F910F91FF90EF9008959C
S1130330CF93DF93DC01109244011496DC9114975F
S11303401596CC9115978C9190E005968F3F910569
S113035018F021E020933B01E0E4F1E08083119662
S11303608C911197818312968C91129782831396A4
S11303708C911397838365E471E090E047E02191C9
S1130380292738E0222324F4922F990F942702C0BE
S1130390922F990F3150292FA9F7E617F70779F70C
S11303A090933C015C915523C1F0ED2FFC2F40E06C
S11303B087E02191292738E0222324F4922F990FF2
S11303C0982702C0922F990F3150292FA9F74F5F18
S11303D0451778F390933C0107C081E080933B017B
S11303E015961C921E921497E0E4F1E09483129601
S11303F01C92129711961C92119713961C92F093CB
S11304003A01E09339016091390170913A01809188
S11304103B01DF91CF910895EF92FF920F93FC017E
S1130420628341832383F582E48200830F91FF90EA
S1130430EF900895CF93DF93EC010E949801A82FC9
S1130440CB0165E00E94610568818C819D810E94D9
S11304506105DF91CF9108959093660080936500C4
S11304600895282FA0916500B09166008C912817FB
S113047081F0882381F080E08F5FE82FF0E0EE0FB9
S1130480FF1FEA0FFB1F9081921731F09111F4CFF7
S1130490089580E0089580E008958B3731F4E6E410
S11304A0F1E080E2808381830AC0E6E4F1E0982FE2
S11304B092959F70905D90838F70805D8183E6E458
S11304C0F1E08EE2828380E283836B3719F48483C4
S11304D085830AC0E6E4F1E0862F82958F70805D03
S11304E084836F70605D6583E6E4F1E08EE2868369
S11304F080E287834B3719F4808781870AC0E6E45A
S1130500F1E0842F82958F70805D80874F70405D0D
S113051041871092500186E491E00895FC0166231E
S1130520CCF46195442329F0413049F080E2808382
S113053016C08DE2808313C080E6808310C08AE5F4
S113054001C080E08A3519F48DE2808308C084EB11
S1130550808305C0442381F3413099F3E7CF97E6C4
S11305606902912D11249595959567FD939580E3E6
S1130570890F8183990F892F880F880F980F691B22
S1130580605D628380EB838383E484831582CF017F
S113059008950F931F93CF93C62F00916500109178
S11305A066000E943102E82FF0E0EE0FFF1FE00F1B
S11305B0F11F818180950E943F038C2F80958F7756
S11305C00E944E03CF911F910F910895E091450130
S11305D0E33218F0109245010DC0EF5FE09345013E
S11305E08E2F90E08432910580F5FC01E65DFF4F8B
S11305F00C94DE0C60E4809160000E94C9020895AE
S113060067E880E20E94C902089560E28091610077
S11306100E94C902089567E880E20E94C902089511
S113062060E1809162000E94C902089567E880E257
S11306300E94C902089568E0809163000E94C90283
S1130640089567E880E20E94C90208958AB3886F1A
S11306508ABB84B3806E84BBBF9ABE9AA49A81B3CA
S11306608C6F81BB84B38C6084BBA49A87B3807F76
S113067087BBD098AC988AB3897F8ABB0895CF93FF
S1130680C82F80E40E94880082E10E949A008C2F87
S11306900E949A000E949200CF910895CF93C82F90
S11306A080E40E94880083E10E949A008C2F0E94BB
S11306B09A000E949200CF91089580E40E948800DD
S11306C01092510180E00E949A00809151010E9491
S11306D09A0081E00E949A00809151010E949A0040
S11306E00E94920080E00E943F0380E00E944E033B
S11306F00895982F92959F70990F292F220F220FFA
S1130700920F8F70890F08959DEC899F912D11246C
S113071096959695969520E1929FA0011124990FA4
S1130720292F220F220F920F891B842B08950F93D8
S11307301F93CF93DF93182F062F842FC2E5D1E0A8
S113074092E098830E9484038983802F0E9484030B
S11307508A83812F0E9484038B8382EA0E9488000B
S11307600DE511E089910E949A00C017D107D1F7D5
S11307700E949200DF91CF911F910F910895EF9203
S1130780FF920F931F93CF93DF938C01C2E5D1E0C7
S113079082E0888382EA0E947A0088810E949A001B
S11307A083EA0E947E00882319F00E94920014C0FC
S11307B0C2E5D1E00F2EFDE5EF2EF1E0FF2EF02D86
S11307C00E94B8008993CE15DF05D1F70E94B600C8
S11307D080935D010E949200E2E5F1E0A081E801CE
S11307E0A8837181798362816A8353815C833481B4
S11307F03D8345814B83868190E09F838E8327814F
S113080028879085998781858A87E285AF77A88331
S11308107F7779836F736A835F735C834F714B83D4
S113082037703D832F7728879F7799878F778A87BB
S11308308E2F8F778B87DF91CF911F910F91FF9030
S1130840EF900895BC0180E090E00E94E30B20E06B
S113085030E04FE253E40E94710C20E03FEF4FE799
S113086057E40E943B0B20E030E044E352E40E9452
S1130870CE0A0E94AD0BCB010895CF93DF93109263
S1130880670085E90E9488000E94B800CEE5D1E0A7
S113089088830E94B80089830E94B6008A830E94DC
S11308A092008881809598E021E388231CF4880FC6
S11308B0822701C0880F9150C1F790915F01892769
S11308C098E021E388231CF4880F822701C0880F55
S11308D09150C1F780935D0190916001981309C014
S11308E0EEE5F1E0808190E0982F88272181822B2A
S11308F007C0E7E6F0E080818260808384EA96E0C6
S1130900DF91CF9108950E943D040E9422048093B8
S11309106900089584E90E94880082EA0E949A008E
S113092080E30E949A000E94920008950E948A0423
S113093084E90E94880087E20E949A0087E30E946B
S11309409A0080EE0E949A0080E00E949A000E9421
S113095092000895CF93DF9383E90E9488000E9458
S1130960B800D82F0E94B600C82F0E9492008C2F86
S113097090E09D2B929582958F7089279F7089278F
S1130980DF91CF9108950E94AA04BC0180E090E019
S11309900E94E30B20E030E040E85DE30E94710C2C
S11309A00E94AD0B862F08951F920F920FB60F92DF
S11309B011242F938F939F93EF93FF938BB12CB1BB
S11309C08871E0916501EF5F90916401E91739F056
S11309D0E0936501F0E0E859FE4F208301C082E016
S11309E090916301892B80936301FF91EF919F9113
S11309F08F912F910F900FBE0F901F9018951F92FB
S1130A000F920FB60F9211248F939F93EF93FF933E
S1130A109091670180916601981761F0E0916601F9
S1130A20EF5FEF71E0936601F0E0E859FA4F8081DF
S1130A308CB901C05598FF91EF919F918F910F90C0
S1130A400FBE0F901F9018951092670110926601C7
S1130A50109265011092640199231CF422E02BB9D1
S1130A609F7790BD89B988E98AB986E880BD0895E1
S1130A709091650180916401981779F0E091640187
S1130A80EF5FE0936401F0E0E859FE4F80819091BC
S1130A9063011092630190E0089580E091E008956D
S1130AA0209167012F5F2F71909166012917E1F35F
S1130AB0E22FF0E0E859FA4F808320936701559ABA
S1130AC008950F931F93CF93DF93009781F06623CC
S1130AD071F0EC016150062F10E00F5F1F4F080FFB
S1130AE0191F89910E9450050C171D07D1F7DF913A
S1130AF0CF911F910F910895CF93DF93EC010E9442
S1130B00380590FD2AC0813021E0920728F0109228
S1130B10620180E090E023C0209161012D3079F4DE
S1130B208A30910561F480916201FE01E80FF11DA4
S1130B3031971082109262018C2F9D2F10C08093E8
S1130B4061019091620121E0290F20936201C90F94
S1130B50D11D888380E090E002C080E090E0DF91C6
S1130B60CF910895EF92FF920F930F2EF0EFEF2E97
S1130B70F0E0FF2EF02D04E020E044E060E084E6A5
S1130B8096E00E940C0284E696E00E941A0280E03D
S1130B900F91FF90EF900895EF92FF920F93CF93F0
S1130BA0DF9300D0CDB7DEB7DC011496ED91FC9154
S1130BB015979081292F30E08181813041F120F017
S1130BC0823009F445C052C02730310580F462B345
S1130BD02F5F3F4F41E050E0FA0102C0EE0FFF1FCC
S1130BE02A95E2F79F012095262322BB3FC065B3D7
S1130BF02550310941E050E0DA0102C0AA0FBB1FC1
S1130C002A95E2F79D012095262325BB2FC0273086
S1130C10310578F462B32F5F3F4F41E050E0FA01B1
S1130C2002C0EE0FFF1F2A95E2F79F01262B22BB7D
S1130C301DC065B32550310941E050E0DA0102C01E
S1130C40AA0FBB1F2A95E2F79D01262B25BB0EC0D8
S1130C50292F220F220F22BB292F207C30E032952E
S1130C6022952F7023273F70232725BB99838A83DE
S1130C70FE0131967F0102E020E040E065E084E679
S1130C8096E00E940C0284E696E00E941A0280E03C
S1130C900F900F90DF91CF910F91FF90EF900895F7
S1130CA0EF92FF920F93CF93DF9300D000D000D048
S1130CB0CDB7DEB7A7E6B0E012968C911297898380
S1130CC0EBE6F0E082818A8313968C9113978B83F1
S1130CD011968C918C8383818D8381818E83CE0147
S1130CE001967C0106E020E045E066E084E696E0BB
S1130CF00E940C0284E696E00E941A0280E0269686
S1130D000FB6F894DEBF0FBECDBFDF91CF910F9128
S1130D10FF90EF900895EF92FF920F93CF93DF939C
S1130D2000D000D000D0CDB7DEB7ECE4F6E085818A
S1130D3096818983858196819A83878190858B8327
S1130D40878190859C83818592858D838185928519
S1130D509E83CE0101967C0106E020E040E067E03E
S1130D6084E696E00E940C0284E696E00E941A0251
S1130D7080E026960FB6F894DEBF0FBECDBFDF919C
S1130D80CF910F91FF90EF900895EF92FF920F9300
S1130D9080914B06811119C081E080934B060F2E80
S1130DA0F5EFEF2EF0E0FF2EF02D0DE020E044E013
S1130DB06FEF84E696E00E940C02E0E6F0E080E348
S1130DC0808381838283838310C010924B060F2E0D
S1130DD0F3E0EF2EF1E0FF2EF02D0DE020E044E0F3
S1130DE06FEF84E696E00E940C0284E696E00E948F
S1130DF01A0280E00F91FF90EF900895EF92FF9216
S1130E000F930E94D4007C0101E120E044E061E002
S1130E1084E696E00E940C0284E696E00E941A02A0
S1130E2080E00F91FF90EF900895EF92FF920F935F
S1130E30CF93DF93EC0186E990E00E942C02EC81D1
S1130E40FD81CF0101969D838C838081882319F0D5
S1130E508130C9F031C082E890E00E942C0280E326
S1130E60E0E6F0E080838183828383832FEF39E699
S1130E7098E1215030409040E1F700C000008F5FBE
S1130E80873381F719C0E0E6F0E024E630E0AC8176
S1130E90BD81CD0101969D838C838C91805D81936E
S1130EA02E173F07A1F72FEF3DE389E4215030408F
S1130EB08040E1F700C00000E12CF12C00E020E0CC
S1130EC040E062E084E696E00E940C0284E696E04C
S1130ED00E941A0280E0DF91CF910F91FF90EF9072
S1130EE00895EF92FF920F93FC012081233019F5AE
S1130EF0A481B581CD010196958384838C919D0154
S1130F002E5F3F4F3583248312964C91129711968E
S1130F106C910E949703E12CF12C00E020E040E06A
S1130F2063E084E696E00E940C0284E696E00E9468
S1130F301A0280E001C081E00F91FF90EF900895C4
S1130F40EF92FF920F931F93CF93DF9300D000D0C3
S1130F5000D0CDB7DEB707E516E0F80182810E9424
S1130F6079038983F80181810E9479038A83F801D6
S1130F7080810E9479038B83F80184810E94790324
S1130F808C83F80183810E9479038D83F801868123
S1130F900E9479038E83CE0101967C0106E020E055
S1130FA040E064E084E696E00E940C0284E696E069
S1130FB00E941A0280E026960FB6F894DEBF0FBE98
S1130FC0CDBFDF91CF911F910F91FF90EF900895C6
S1130FD080916D0080934D06E7E6F0E092812181D7
S1130FE0921714F49093680020916C00821714F403
S1130FF080936C0020916A00291714F490936A007E
S113100090916E00981714F480936E0008958EB535
S113101089608EBD89B7806189BF80ED97E09BBDF3
S11310208ABD0895CF93DF93EC010E94050D823AA7
S113103039F01092630662EACE010E940D0D03C0DE
S113104081E080936306DF91CF9108959F92AF92E0
S1131050BF92CF92DF92EF92FF920F931F93CF93A1
S1131060DF938C017B01D42EFC0101900020E9F771
S113107031975F01A81AB90A86E990E00E942C0210
S1131080C0906F00CCE4D6E0BB24B5016150710977
S11310906894992495F88A819B818E159F0580F127
S11310A08C8181112DC04C2D0C2C000C550BA0E60D
S11310B0B0E0F801E40FF51F9A012C5F3F4F200FB9
S11310C0311FCF01801B910B12F49C9207C068174B
S11310D0790714F49C9202C080818C931196319606
S11310E0E217F30771F74A155B0539F48CEF809327
S11310F06F0081E08093500607C0C3941B821A825C
S1131100D110C9CFC0926F00DF91CF911F910F9181
S1131110FF90EF90DF90CF90BF90AF909F90089595
S1131120CF93DF93CDB7DEB728970FB6F894DEBF21
S11311300FBECDBF0E94260383E390E00E942405E6
S113114080E090E00E9412080E9475000E945D03F6
S11311500E9496040E94070884E696E00E94040117
S113116078940F2EF1E1EF2EF1E0FF2EF02D04E044
S113117020E044E06FEF84E696E00E940C0284E6EF
S113118096E00E941A0284E696E00E94FE0681E040
S1131190809350060CE416E00F2EF0E6EF2EF0E0FC
S11311A0FF2EF02DCE01039698878F830F2EF7E63E
S11311B04F2EF0E05F2EF02D0F2EF0E28F2EFDE289
S11311C09F2EF02D6894AA24A5F8B12C0F2EFBE6CF
S11311D02F2EF0E03F2EF02D0F2EF7E56F2EF6E0C8
S11311E07F2EF02D8DE895E00E947C0590930E06ED
S11311F080930D06009759F164E676E00E9412018F
S1131200811125C0E0916606F0E0EE0FFF1FEA5E53
S1131210FE4F0190F081E02D84E696E00995F801F7
S11312208185928501969287818780918C05F1E072
S11312308F2780938C0580FF06C085B3837F85BB91
S11312408CE382BB04C090EC92BBECE0E5BBF801FC
S113125084818823C9F080914B06811161C080810B
S1131260816080830E948304F20182830E94C3040C
S1131270F10182830E94E807C3010E94BF03F801C1
S113128080818E7F8083148280914B06811148C0B7
S11312901A82198284E0EF81F88511928A95E9F720
S11312A040E0F2016281CE0101960E948E02BC01EF
S11312B08FE096E00E94FE0C0F2EFFE0CF2EF6E0AA
S11312C0DF2EF02DF60101900020E9F7319791828D
S11312D08082B382A28241E0F1016281CE01019653
S11312E00E948E02BC01C6010E94F30CF60101901B
S11312F00020E9F7319791828082B382A282F301C0
S11313004081618182810E944D02BC01C6010E941C
S1131310F30C40E06CED75E0C6010E94260862CF34
S1131320F80121853285369527953695279536958A
S11313302795A5ECB0E20E94E40CAC0152954295CD
S11313404F7045275F7045279A01ADECBCEC0E94B5
S1131350E40C9695879596958795969587959C0127
S1131360220F331F880F991F880F991F880F991F09
S1131370820F931F481B590B405DF7014083F8010E
S1131380218532853695279536952795ABE7B4E1C7
S11313900E94E40CAC01569547959A01ADECBCEC67
S11313A00E94E40C969587959695879596958795D2
S11313B09C01220F331F880F991F880F991F880FD4
S11313C0991F820F931F481B590B405DF7014183FE
S11313D0F801218532850E94E40CAC0156954795AD
S11313E056954795569547959A010E94E40C969513
S11313F0879596958795969587959C01220F331F1F
S1131400880F991F880F991F880F991F820F931FA8
S1131410481B590B405DF7014283F8014185528511
S11314209A010E94E40C96958795969587959695D2
S113143087959C01220F331F880F991F880F991FCE
S1131440880F991F820F931F481B590B405DF701AA
S11314504383C8CE1F920F920FB60F9211242F937D
S11314603F934F935F936F937F938F939F93AF9328
S1131470BF93EF93FF93ECE4F6E0828193810196AE
S1131480938382838091880590918905A0918A0530
S1131490B0918B050196A11DB11D813127E2920700
S11314A008F062C0AA27BB2780938805909389051A
S11314B0A0938A05B0938B05893C9105A105B105DC
S11314C010F4C79824C0AC01BD01405951406109D2
S11314D07109493C51056105710510F4C79A17C09B
S11314E0AC01BD01485E5340610971094139514065
S11314F06105710510F4C7980AC080549640A1098B
S1131500B109893C9105A105B10508F4C79AE0E742
S1131510F0E0818924E08202C00111248F70818B64
S1131520C99B03C081898260818BCA9B05C0E0E7A7
S1131530F0E081898160818BA0E7B0E05196EC9165
S113154051970E2E000CFF0BE059FF4F80815096EF
S11315509C915097890F50968C9380914C0680FDF6
S11315600CC00E94E60209C01092880510928905F9
S113157010928A0510928B05A4CFFF91EF91BF9131
S1131580AF919F918F917F916F915F914F913F9117
S11315902F910F900FBE0F901F9018955058BB2796
S11315A0AA270E94E60A0C94370C0E94290C38F0F2
S11315B00E94300C20F039F49F3F19F426F40C9467
S11315C0260C0EF4E095E7FB0C94200CE92F0E9406
S11315D0480C58F3BA17620773078407950720F07D
S11315E079F4A6F50C946A0C0EF4E0950B2EBA2F40
S11315F0A02D0B01B90190010C01CA01A001112415
S1131600FF27591B99F0593F50F4503E68F11A16C0
S1131610F040A22F232F342F4427585FF3CF469551
S113162037952795A795F0405395C9F77EF41F1673
S1131630BA0B620B730B840BBAF09150A1F0FF0F3D
S1131640BB1F661F771F881FC2F70EC0BA0F621F29
S1131650731F841F48F4879577956795B795F79519
S11316609E3F08F0B0CF9395880F08F09927EE0FAE
S11316709795879508950E944F0B0C94370C0E9400
S1131680300C58F00E94290C40F029F45F3F29F0F7
S11316900C94200C51110C946B0C0C94260C0E948D
S11316A0480C68F39923B1F3552391F3951B550B1B
S11316B0BB27AA2762177307840738F09F5F5F4F21
S11316C0220F331F441FAA1FA9F335D00E2E3AF060
S11316D0E0E832D091505040E695001CCAF72BD078
S11316E0FE2F29D0660F771F881FBB1F26173707C9
S11316F04807AB07B0E809F0BB0B802DBF01FF27FB
S113170093585F4F3AF09E3F510578F00C94200CAB
S11317100C946B0C5F3FE4F3983ED4F38695779575
S11317206795B795F7959F5FC9F7880F911D9695B3
S1131730879597F90895E1E0660F771F881FBB1F0F
S1131740621773078407BA0720F0621B730B840BBC
S1131750BA0BEE1F88F7E09508950E94B40B6894C5
S1131760B1110C946B0C08950E94500C88F09F5793
S113177098F0B92F9927B751B0F0E1F0660F771FB1
S1131780881F991F1AF0BA95C9F714C0B13091F0A7
S11317900E946A0CB1E008950C946A0C672F782FAC
S11317A08827B85F39F0B93FCCF38695779567956C
S11317B0B395D9F73EF490958095709561957F4FD8
S11317C08F4F9F4F0895E89409C097FB3EF490957E
S11317D08095709561957F4F8F4F9F4F9923A9F006
S11317E0F92F96E9BB279395F69587957795679595
S11317F0B795F111F8CFFAF4BB0F11F460FF1BC0D9
S11318006F5F7F4F8F4F9F4F16C0882311F096E96B
S113181011C0772321F09EE8872F762F05C0662319
S113182071F096E8862F70E060E02AF09A95660FD2
S1131830771F881FDAF7880F9695879597F908958B
S113184097F99F6780E870E060E008959FEF80EC6F
S1131850089500240A941616170618060906089512
S113186000240A9412161306140605060895092E78
S11318700394000C11F4882352F0BB0F40F4BF2BE7
S113188011F460FF04C06F5F7F4F8F4F9F4F089527
S113189057FD9058440F551F59F05F3F71F047951D
S11318A0880F97FB991F61F09F3F79F08795089502
S11318B0121613061406551FF2CF4695F1DF08C021
S11318C0161617061806991FF1CF8695710561053E
S11318D008940895E894BB2766277727CB0197F9E6
S11318E008950E94840C0C94370C0E94290C38F043
S11318F00E94300C20F0952311F00C94200C0C94D1
S1131900260C11240C946B0C0E94480C70F3959FC8
S1131910C1F3950F50E0551F629FF001729FBB27E2
S1131920F00DB11D639FAA27F00DB11DAA1F649F7E
S11319306627B00DA11D661F829F2227B00DA11D31
S1131940621F739FB00DA11D621F839FA00D611DB7
S1131950221F749F3327A00D611D231F849F600DD8
S1131960211D822F762F6A2F11249F5750409AF001
S1131970F1F088234AF0EE0FFF1FBB1F661F771F8D
S1131980881F91505040A9F79E3F510580F00C9458
S1131990200C0C946B0C5F3FE4F3983ED4F38695D3
S11319A077956795B795F795E7959F5FC1F7FE2BF8
S11319B0880F911D9695879597F90895EE0FFF1F4F
S11319C00590F491E02D0994A29FB001B39FC0014A
S11319D0A39F700D811D1124911DB29F700D811D57
S11319E01124911D0895FB01DC010D900020E9F7FD
S11319F0119701900D920020E1F70895FB01DC019D
S1131A0001900D920020E1F70895E199FECF9FBB6C
S1131A108EBBE09A99278DB30895262FE199FECFC6
S1131A209FBB8EBB2DBB0FB6F894E29AE19A0FBE12
S10B1A3001960895F894FFCF1C
S1131A3820202020000000007F1981007F1981FCEC
S1131A480000FF00000000010100000000FF00008A
S1131A580000300131023204330834103520364096
S1131A68378020000000303F3106325B334F346644
S1131A78356D367D3707387F396F2E8020002D402D
S1131A88B0636001B4082D4041776177427C627C81
S1131A9843396358445E645E457965794671667175
S1131AA84C386C38487668764F5C6F5C563E763EA8
S1131AB852507250507370734A1F6A1F3A300000B4
S1131AC870696E670044656275675F4D6F64655F32
S1131AD8456E0044656275675F4D6F64655F446970
S1131AE800426F6F7400B205FE0615077107A00760
S10B1AF8CC0550068B06C5065F
S9030000FC
