S0190000446576426F6172645F375365676D656E742E737265639B
S11300000C944E000C946B000C946B000C946B00DD
S11300100C946B000C946B000C946B000C949E0A73
S11300200C946B000C946B000C946B000C946B00A0
S11300300C946B000C9408050C942F050C946B0025
S11300400C946B000C946B000C946B000C946B0080
S11300500C946B00F6022103210321032103FC020B
S1130060210321032103210301032103210321038C
S11300702103070321032103210321030C0321038B
S1130080210321032103120321032103210321035B
S1130090170321032103210321031D0311241FBE80
S11300A0CFE5D8E0DEBFCDBF11E0A0E6B0E0EAEBDB
S11300B0FBE102C005900D92AC32B107D9F726E0FE
S11300C0ACE2B1E001C01D92A937B207E1F70E948A
S11300D0B7080C94DB0D0C94000000C000C000C0F5
S11300E000C000C000C000000895A198A098A9987D
S11300F0A8980895A19AF1DF1DD00895A09AEDDF84
S1130100A198EBDFA098E9DFA19AE7DF13D0089567
S1130110082EA19AE2DF802D0DD0882311F002D0A1
S1130120F8CF0895A09AA19AD8DFA098D6DFA19815
S1130130D4DF08950894881F01C0880F59F0A09A4D
S113014018F40000A19802C0A19A00C0C6DFA098CC
S1130150C4DFF3CFA09AA198C0DFA098989BFECFEC
S11301608827999981E0B9DF99270895882701C0E4
S113017081E071E0A09AA198B0DFA098AEDF989BCF
S1130180FECF889499990894771FA0F7A09A81309C
S113019011F0A19801C0A19AA0DFA098989BFECF6E
S11301A09CDF872F99270895ECE2F1E081E38083B7
S11301B03EE2318320E2228390E3938334832583D8
S11301C0968346E3478343E3408742E3418732878C
S11301D023878487858796878787108ACF01089528
S11301E0FC0120812D3231F481818B3231F08FEF8B
S11301F09FEF08958EEF9FEF089582E090E00895B9
S1130200FC01108211821282138210924301109217
S11302104201158214821092410108950F931F9395
S1130220CF93DF938C01EB010E94F0008093410196
S11302308F3F09F46FC0282F082E000C330BD80110
S1130240A20FB31F9C919550988311964C911197CE
S1130250498312964C9112974A8313964C911397A3
S11302604B83F9013496E00FF11F608160934301E1
S1130270992341F0A9014B5F5F4F400F511F5D83EC
S11302804C8302C01D821C82109242011082E82F0E
S1130290880FFF0B2B5F3F4F200F311F90E047E08B
S11302A08D91982788E099231CF4990F942701C015
S11302B0990F8150C1F7A217B30791F790934001AA
S11302C09093420158815523B9F03596E00FF11F00
S11302D030E047E02191922728E099231CF4990FFC
S11302E0942701C0990F2150C1F73F5F351790F350
S11302F090934001909342019091420169130CC084
S11303009A8191110CC0EC81FD818081833431F498
S113031083E005C081E003C082E001C0892FDF9142
S1130320CF911F910F910895CF93DF93DC01109229
S113033048011496DC9114971596CC9115978C91DD
S113034090E005968F3F910518F021E020933F013E
S1130350E4E4F1E0808311968C91119781831296E5
S11303608C911297828313968C911397838369E4FB
S113037071E090E047E02191292738E0222324F41A
S1130380922F990F942702C0922F990F3150292F41
S1130390A9F7E617F70779F7909340015C91552385
S11303A0C1F0ED2FFC2F40E087E02191292738E0B0
S11303B0222324F4922F990F982702C0922F990F89
S11303C03150292FA9F74F5F451778F390934001D7
S11303D007C081E080933F0115961C921E921497EA
S11303E0E4E4F1E0948312961C92129711961C9205
S11303F0119713961C92F0933E01E0933D01609196
S11304003D0170913E0180913F01DF91CF910895AC
S1130410EF92FF920F93FC01628341832383F58261
S1130420E48200830F91FF90EF900895CF93DF93C0
S1130430EC010E949401A82FCB0165E00E948E0577
S113044068818C819D810E948E05DF91CF910895F2
S113045090936600809365000895282FA09165000D
S1130460B09166008C91281781F0882381F080E098
S11304708F5FE82FF0E0EE0FFF1FEA0FFB1F908164
S1130480921731F09111F4CF089580E0089580E03F
S113049008958B3731F4EAE4F1E080E280838183CC
S11304A00AC0EAE4F1E0982F92959F70905D9083E2
S11304B08F70805D8183EAE4F1E08EE2828380E2E2
S11304C083836B3719F4848385830AC0EAE4F1E0FB
S11304D0862F82958F70805D84836F70605D6583E5
S11304E0EAE4F1E08EE2868380E287834B3719F4F5
S11304F0808781870AC0EAE4F1E0842F82958F70B7
S1130500805D80874F70405D4187109254018AE47A
S113051091E00895FC016623CCF46195442329F00D
S1130520413049F080E2808316C08DE2808313C09D
S113053080E6808310C08AE501C080E08A3519F422
S11305408DE2808308C084EB808305C0442381F35B
S1130550413099F3E7CF97E66902912D11249595DF
S1130560959567FD939580E3890F8183990F892F72
S1130570880F880F980F691B605D628380EB83830B
S113058083E484831582CF0108950F931F93CF933F
S1130590C62F00916500109166000E942D02E82F7D
S11305A0F0E0EE0FFF1FE00FF11F818180950E94A4
S11305B03B038C2F80958F770E944A03CF911F9124
S11305C00F910895E0914901E33218F01092490126
S11305D00DC0EF5FE09349018E2F90E084329105C6
S11305E080F5FC01E65DFF4F0C948B0D60E4809177
S11305F060000E94C502089567E880E20E94C50277
S1130600089560E2809161000E94C502089567E840
S113061080E20E94C502089560E1809162000E9418
S1130620C502089567E880E20E94C502089568E063
S1130630809163000E94C502089567E880E20E94E9
S1130640C50208958AB3886F8ABB84B3806E84BB65
S1130650BF9ABE9AA49A81B38C6F81BB84B38C6019
S113066084BBA49A87B3807F87BBD098AC988AB3A5
S1130670897F8ABB0895CF93C82F80E40E948800A5
S113068082E10E949A008C2F0E949A000E9492009C
S1130690CF910895CF93C82F80E40E94880083E10E
S11306A00E949A008C2F0E949A000E949200CF917F
S11306B0089580E40E9488001092550180E00E9411
S11306C09A00809155010E949A0081E00E949A004C
S11306D0809155010E949A000E94920080E00E943D
S11306E03B0380E00E944A030895982F92959F70DF
S11306F0990F292F220F220F920F8F70890F0895BF
S11307009DEC899F912D112496959695969520E1BF
S1130710929FA0011124990F292F220F220F920FCB
S1130720891B842B08950F931F93CF93DF93182F66
S1130730062F842FC6E5D1E092E098830E948003BF
S11307408983802F0E9480038A83812F0E948003E3
S11307508B8382EA0E94880001E611E089910E945D
S11307609A00C017D107D1F70E949200DF91CF9170
S11307701F910F910895EF92FF920F931F93CF93C0
S1130780DF938C01C6E5D1E082E0888382EA0E948F
S11307907A0088810E949A0083EA0E947E0088235E
S11307A019F00E94920014C0C6E5D1E00F2EF1E6C4
S11307B0EF2EF1E0FF2EF02D0E94B8008993CE15A4
S11307C0DF05D1F70E94B600809361010E94920078
S11307D0E6E5F1E0A081E801A88371817983628173
S11307E06A8353815C8334813D8345814B83868155
S11307F090E09F838E8327812887908599878185C0
S11308008A87E285AF77A8837F7779836F736A835A
S11308105F735C834F714B8337703D832F772887D9
S11308209F7799878F778A878E2F8F778B87DF9132
S1130830CF911F910F91FF90EF900895BC0180E03C
S113084090E00E947C0C20E030E04FE253E40E94F0
S11308500A0D20E03FEF4FE757E40E94D40B20E05D
S113086030E044E352E40E94670B0E94460CCB0143
S11308700895CF93DF931092670085E90E94880062
S11308800E94B800C2E6D1E088830E94B800898340
S11308900E94B6008A830E9492008881809598E025
S11308A021E388231CF4880F822701C0880F91500C
S11308B0C1F790916301892798E021E388231CF410
S11308C0880F822701C0880F9150C1F7809361017E
S11308D090916401981309C0E2E6F1E0808190E010
S11308E0982F88272181822B07C0E7E6F0E08081DA
S11308F08260808384EA96E0DF91CF9108950E941C
S113090039040E941E0480936900089584E90E94BA
S1130910880082EA0E949A0080E30E949A000E9462
S1130920920008950E94860484E90E94880087E268
S11309300E949A0087E30E949A0080EE0E949A0027
S113094080E00E949A000E9492000895FC01718345
S1130950608341504283138214820895FC01262F40
S11309608381628190E0019670E00E94770D94810A
S1130970981749F0A081B1819381A90FB11D2C93DF
S1130980838380E0089582E00895FC01938184814B
S1130990981791F0A081B1818481A80FB11D8C9129
S11309A0DB018C938481628190E0019670E00E9467
S11309B0770D848380E0089581E00895CF93DF93D9
S11309C083E90E9488000E94B800D82F0E94B600D4
S11309D0C82F0E9492008C2F90E09D2B92958295B7
S11309E08F7089279F708927DF91CF9108950E9486
S11309F0DE04BC0180E090E00E947C0C20E030E04A
S1130A0040E85DE30E940A0D0E94460C862F08957B
S1130A101F920F920FB60F9211242F933F934F936F
S1130A205F936F937F938F939F93AF93BF93EF9352
S1130A30FF936CB18AE496E00E94AE04FF91EF91BB
S1130A40BF91AF919F918F917F916F915F914F91E2
S1130A503F912F910F900FBE0F901F9018951F92EA
S1130A600F920FB60F9211242F933F934F935F93DE
S1130A706F937F938F939F93AF93BF93EF93FF9362
S1130A80CF93DF931F92CDB7DEB7BE016F5F7F4F69
S1130A9080E596E00E94C504813011F4559802C0A7
S1130AA089818CB90F90DF91CF91FF91EF91BF9124
S1130AB0AF919F918F917F916F915F914F913F91F2
S1130AC02F910F900FBE0F901F901895CF93DF9327
S1130AD0EC0140E250E067E675E080E596E00E94B4
S1130AE0A60440E054E067E671E08AE496E00E94E0
S1130AF0A604DD231CF482E08BB9DF77D0BDC9B92D
S1130B0088E98AB986E880BDDF91CF910895682F7E
S1130B1080E596E00E94AE04559A08950F931F93C2
S1130B20CF93DF93662371F0EC016150062F10E040
S1130B300F5F1F4F080F191F89910E948705C01767
S1130B40D107D1F7DF91CF911F910F9108950F93A2
S1130B501F93CF93DF931F92CDB7DEB78C01BE01F5
S1130B606F5F7F4F8AE496E00E94C50481111CC028
S1130B70809166018D3041F489818A3029F4109284
S1130B806501802F912F12C09091650181E0890F3A
S1130B90809365018981F801E90FF11D80838093B9
S1130BA0660180E090E002C080E090E00F90DF9169
S1130BB0CF911F910F91089580E00895EF92FF92D5
S1130BC00F930F2EF2EFEF2EF0E0FF2EF02D04E046
S1130BD020E044E060E083E796E00E94080283E7B7
S1130BE096E00E94160280E00F91FF90EF90089526
S1130BF0EF92FF920F93CF93DF9300D0CDB7DEB780
S1130C00DC011496ED91FC9115979081292F30E029
S1130C108181813041F120F0823009F445C052C015
S1130C202730310580F462B32F5F3F4F41E050E03D
S1130C30FA0102C0EE0FFF1F2A95E2F79F012095EB
S1130C40262322BB3FC065B32550310941E050E063
S1130C50DA0102C0AA0FBB1F2A95E2F79D01209575
S1130C60262325BB2FC02730310578F462B32F5FCC
S1130C703F4F41E050E0FA0102C0EE0FFF1F2A95FA
S1130C80E2F79F01262B22BB1DC065B32550310915
S1130C9041E050E0DA0102C0AA0FBB1F2A95E2F737
S1130CA09D01262B25BB0EC0292F220F220F22BB0C
S1130CB0292F207C30E0329522952F7023273F7016
S1130CC0232725BB99838A83FE0131967F0102E0A5
S1130CD020E040E065E083E796E00E94080283E7B5
S1130CE096E00E94160280E00F900F90DF91CF9162
S1130CF00F91FF90EF900895EF92FF920F93CF938F
S1130D00DF9300D000D000D0CDB7DEB7A7E6B0E0C7
S1130D1012968C9112978983EBE6F0E082818A83A4
S1130D2013968C9113978B8311968C918C8383816A
S1130D308D8381818E83CE0101967C0106E020E0C3
S1130D4045E066E083E796E00E94080283E796E0C8
S1130D500E94160280E026960FB6F894DEBF0FBEFE
S1130D60CDBFDF91CF910F91FF90EF900895EF9257
S1130D70FF920F93CF93DF9300D000D01F92CDB793
S1130D80DEB7EBE5F6E085819681898385819681DE
S1130D909A83818592858B83818592859C8384B790
S1130DA08D83CE0101967C0105E020E040E067E000
S1130DB083E796E00E94080283E796E00E94160209
S1130DC080E00F900F900F900F900F90DF91CF91D4
S1130DD00F91FF90EF900895EF92FF920F938091FF
S1130DE05606811119C081E0809356060F2EF7EF45
S1130DF0EF2EF0E0FF2EF02D0DE020E044E06FEF49
S1130E0083E796E00E940802E0E6F0E080E3808356
S1130E1081838283838310C0109256060F2EF5E0DF
S1130E20EF2EF1E0FF2EF02D0DE020E044E06FEF17
S1130E3083E796E00E94080283E796E00E94160288
S1130E4080E00F91FF90EF900895EF92FF920F933F
S1130E500E94D4007C0101E120E044E061E083E7EA
S1130E6096E00E94080283E796E00E94160280E062
S1130E700F91FF90EF900895EF92FF920F93CF930D
S1130E80DF93EC0188E990E00E942802EC81FD8167
S1130E90CF0101969D838C838081882319F0813052
S1130EA0C9F031C084E890E00E94280280E3E0E6C3
S1130EB0F0E080838183828383832FEF39E698E196
S1130EC0215030409040E1F700C000008F5F87332D
S1130ED081F719C0E0E6F0E024E630E0AC81BD81A2
S1130EE0CD0101969D838C838C91805D81932E1717
S1130EF03F07A1F72FEF3DE389E4215030408040C4
S1130F00E1F700C00000E12CF12C00E020E040E01B
S1130F1062E083E796E00E94080283E796E00E947D
S1130F20160280E0DF91CF910F91FF90EF9008952A
S1130F30EF92FF920F93FC012081233019F5A481D5
S1130F40B581CD010196958384838C919D012E5F9B
S1130F503F4F3583248312964C91129711966C91CE
S1130F600E949303E12CF12C00E020E040E063E0D8
S1130F7083E796E00E94080283E796E00E94160247
S1130F8080E001C081E00F91FF90EF900895EF920F
S1130F90FF920F931F93CF93DF9300D000D000D024
S1130FA0CDB7DEB706E616E0F80182810E9475032C
S1130FB08983F80181810E9475038A83F801808105
S1130FC00E9475038B83F80184810E9475038C83CE
S1130FD0F80183810E9475038D83F80186810E9444
S1130FE075038E83CE0101967C0106E020E040E08B
S1130FF064E083E796E00E94080283E796E00E949B
S1131000160280E026960FB6F894DEBF0FBECDBF61
S1131010DF91CF911F910F91FF90EF9008958091F0
S11310206D0080935C06E7E6F0E0928121819217DF
S113103014F49093680020916C00821714F4809348
S11310406C0020916A00291714F490936A0090911F
S11310506E00981714F480936E0008958EB589601D
S11310608EBD89B7806189BF80ED97E09BBD8ABD45
S11310700895CF93DF93EC010E94C60D823A39F0B4
S11310801092720662EACE010E94CE0D03C081E086
S113109080937206DF91CF9108959F92AF92BF9291
S11310A0CF92DF92EF92FF920F931F93CF93DF9330
S11310B08C017B01D42EFC0101900020E9F73197CB
S11310C05F01A81AB90A88E990E00E942802C0903A
S11310D07100CBE5D6E0BB24B50161507109689479
S11310E0992495F88A819B818E159F0580F18C81C6
S11310F081112DC04C2D0C2C000C550BA0E6B0E03A
S1131100F801E40FF51F9A012C5F3F4F200F311FA8
S1131110CF01801B910B12F49C9207C068177907CA
S113112014F49C9202C080818C9311963196E2173C
S1131130F30771F74A155B0539F48CEF809371005E
S113114081E080935F0607C0C3941B821A82D1108A
S1131150C9CFC0927100DF91CF911F910F91FF9081
S1131160EF90DF90CF90BF90AF909F900895CF9372
S1131170DF93CDB7DEB72A970FB6F894DEBF0FBE64
S1131180CDBF0E94220347E556E06FE088E390E07C
S11311900E94480B83E390E00E94660580E090E0A3
S11311A00E9439080E9475000E9459030E9492040B
S11311B00E942E0883E796E00E94000178940F2E87
S11311C0F3E1EF2EF1E0FF2EF02D04E020E044E007
S11311D06FEF83E796E00E94080283E796E00E949F
S11311E0160283E796E00E94250781E080935F065C
S11311F00BE516E0332433940F2EF0EC2F2EF02D54
S11312000F2EF0E6EF2EF0E0FF2EF02DCE01039628
S11312109A8789870F2EF0E28F2EFDE29F2EF02D04
S11312206894AA24A5F8B12C0F2EF6E64F2EF6E00A
S11312305F2EF02D0F2EF7E5CF2EF6E0DF2EF02DEA
S11312408CE895E00E94A70590930D0680930C0608
S1131250009749F163E776E00E940E01811123C0F3
S1131260E0917506F0E0EE0FFF1FE85EFE4F01907F
S1131270F081E02D83E796E00995F8018185928558
S113128001969287818780918B05832580938B05B6
S113129080FF06C085B3837F85BB8CE382BB03C01C
S11312A022BA8CE085BBF80184818823C9F080913F
S11312B05606811161C08081816080830E947F0411
S11312C0809369000E94F70480936D000E940F08C8
S11312D0C2010E94BB03F80180818E7F8083148247
S11312E080915606811148C01A82198284E0E985EA
S11312F0FA8511928A95E9F740E060916900CE0180
S113130001960E948A02BC018EE096E00E94BF0D05
S11313100F2EFEE06F2EF6E07F2EF02DF3010190EC
S11313200020E9F7319791828082B382A282432D13
S113133060916D00CE0101960E948A02BC01C30136
S11313400E94B40DF30101900020E9F731979182D6
S11313508082B382A282F2014081618182810E94F3
S11313604902BC01C3010E94B40D40E06CED75E07C
S1131370C3010E944D0899C0F80121853285369534
S113138027953695279536952795A5ECB0E20E94CA
S1131390910DAC01529542954F7045275F704527DA
S11313A09A01ADECBCEC0E94910D969587959695AB
S11313B08795969587959C01220F331F880F991F57
S11313C0880F991F880F991F820F931F481B590B71
S11313D0405DF7014083F8012185328536952795D4
S11313E036952795ABE7B4E10E94910DAC01569573
S11313F047959A01ADECBCEC0E94910D96958795AA
S113140096958795969587959C01220F331F880F93
S1131410991F880F991F880F991F820F931F481BCC
S1131420590B405DF7014183F801218532850E9403
S1131430910DAC0156954795569547955695479508
S11314409A010E94910D9695879596958795969504
S113145087959C01220F331F880F991F880F991FAE
S1131460880F991F820F931F481B590B405DF7018A
S11314704283F801418552859A010E94910D969507
S1131480879596958795969587959C01220F331F8E
S1131490880F991F880F991F880F991F820F931F18
S11314A0481B590B405DF7014383F601828180FF9D
S11314B008C08E7F828380915606832580935606CA
S11314C0BFCE82FF0AC08B7FF6018283F80181853B
S11314D09285019792878187B3CE83FF0AC0877F65
S11314E0F6018283F801818592850196928781872E
S11314F0A7CE81FFA5CE8D7FF601828380917000F7
S11315008F8380916F00888787E090E08C0F9D1F08
S11315109E838D83CE0101960E94F8058091700010
S1131520883034F48F5F8093700030926F0088CEDF
S11315301092700082E080936F0082CE1F920F920F
S11315400FB60F9211242F933F934F935F936F9392
S11315507F938F939F93AF93BF93EF93FF93EBE5A9
S1131560F6E08281938101969383828368E370E03D
S113157087E596E00E94540B809187059091880539
S1131580A0918905B0918A050196A11DB11D8131F3
S113159027E2920708F062C0AA27BB278093870539
S11315A090938805A0938905B0938A05893C910599
S11315B0A105B10510F4C79824C0AC01BD01405980
S11315C0514061097109493C51056105710510F4E7
S11315D0C79A17C0AC01BD01485E53406109710947
S11315E0413951406105710510F4C7980AC080540F
S11315F09640A109B109893C9105A105B10508F4FA
S1131600C79AE2E7F0E0818924E08202C001112454
S11316108F70818BC99B03C081898260818BCA9B37
S113162005C0E2E7F0E081898160818BA2E7B0E048
S11316305196EC9151970E2E000CFF0BEE58FF4F74
S1131640808150969C915097890F50968C938091ED
S11316505B0680FD0CC00E94E20209C0109287055F
S1131660109288051092890510928A05A4CFFF91E3
S1131670EF91BF91AF919F918F917F916F915F9106
S11316804F913F912F910F900FBE0F901F9018957F
S1131690FA01DC018E91962F909589238C93118207
S11316A01082128263830895FC01DB0112979C91DE
S11316B090958381982390838181981729F0809550
S11316C089232281822B82839183828108955058B9
S11316D0BB27AA270E947F0B0C94D00C0E94C20C3B
S11316E038F00E94C90C20F039F49F3F19F426F415
S11316F00C94BF0C0EF4E095E7FB0C94B90CE92FA5
S11317000E94E10C58F3BA17620773078407950720
S113171020F079F4A6F50C94030D0EF4E0950B2E4D
S1131720BA2FA02D0B01B90190010C01CA01A0012F
S11317301124FF27591B99F0593F50F4503E68F18A
S11317401A16F040A22F232F342F4427585FF3CFCB
S1131750469537952795A795F0405395C9F77EF49C
S11317601F16BA0B620B730B840BBAF09150A1F0E5
S1131770FF0FBB1F661F771F881FC2F70EC0BA0F6B
S1131780621F731F841F48F4879577956795B795F3
S1131790F7959E3F08F0B0CF9395880F08F09927EE
S11317A0EE0F9795879508950E94E80B0C94D00C42
S11317B00E94C90C58F00E94C20C40F029F45F3F0B
S11317C029F00C94B90C51110C94040D0C94BF0C19
S11317D00E94E10C68F39923B1F3552391F3951B0F
S11317E0550BBB27AA2762177307840738F09F5F3E
S11317F05F4F220F331F441FAA1FA9F335D00E2EAB
S11318003AF0E0E832D091505040E695001CCAF717
S11318102BD0FE2F29D0660F771F881FBB1F2617DA
S113182037074807AB07B0E809F0BB0B802DBF01B1
S1131830FF2793585F4F3AF09E3F510578F00C9480
S1131840B90C0C94040D5F3FE4F3983ED4F38695F1
S113185077956795B795F7959F5FC9F7880F911DA1
S11318609695879597F90895E1E0660F771F881F8D
S1131870BB1F621773078407BA0720F0621B730B40
S1131880840BBA0BEE1F88F7E09508950E944D0C67
S11318906894B1110C94040D08950E94E90C88F029
S11318A09F5798F0B92F9927B751B0F0E1F0660F20
S11318B0771F881F991F1AF0BA95C9F714C0B13061
S11318C091F00E94030DB1E008950C94030D672F6D
S11318D0782F8827B85F39F0B93FCCF38695779590
S11318E06795B395D9F73EF4909580957095619579
S11318F07F4F8F4F9F4F0895E89409C097FB3EF4A4
S113190090958095709561957F4F8F4F9F4F992348
S1131910A9F0F92F96E9BB279395F69587957795C6
S11319206795B795F111F8CFFAF4BB0F11F460FF86
S11319301BC06F5F7F4F8F4F9F4F16C0882311F0DE
S113194096E911C0772321F09EE8872F762F05C0F2
S1131950662371F096E8862F70E060E02AF09A958D
S1131960660F771F881FDAF7880F9695879597F982
S1131970089597F99F6780E870E060E008959FEF0D
S113198080EC089500240A94161617061806090612
S1131990089500240A9412161306140605060895E1
S11319A0092E0394000C11F4882352F0BB0F40F469
S11319B0BF2B11F460FF04C06F5F7F4F8F4F9F4FA9
S11319C0089557FD9058440F551F59F05F3F71F02B
S11319D04795880F97FB991F61F09F3F79F0879592
S11319E00895121613061406551FF2CF4695F1DF1B
S11319F008C0161617061806991FF1CF86957105AB
S1131A00610508940895E894BB2766277727CB01DE
S1131A1097F908950E941D0D0C94D00C0E94C20CDD
S1131A2038F00E94C90C20F0952311F00C94B90CE5
S1131A300C94BF0C11240C94040D0E94E10C70F35F
S1131A40959FC1F3950F50E0551F629FF001729F5F
S1131A50BB27F00DB11D639FAA27F00DB11DAA1F6E
S1131A60649F6627B00DA11D661F829F2227B00DBB
S1131A70A11D621F739FB00DA11D621F839FA00D46
S1131A80611D221F749F3327A00D611D231F849F96
S1131A90600D211D822F762F6A2F11249F575040ED
S1131AA09AF0F1F088234AF0EE0FFF1FBB1F661F68
S1131AB0771F881F91505040A9F79E3F510580F031
S1131AC00C94B90C0C94040D5F3FE4F3983ED4F3EA
S1131AD0869577956795B795F795E7959F5FC1F7D5
S1131AE0FE2B880F911D9695879597F9089597FB7E
S1131AF0072E16F4009407D077FD09D00E94A00D9C
S1131B0007FC05D03EF4909581959F4F08957095FC
S1131B1061957F4F0895EE0FFF1F0590F491E02D1E
S1131B200994A29FB001B39FC001A39F700D811DB2
S1131B301124911DB29F700D811D1124911D0895D2
S1131B40AA1BBB1B51E107C0AA1FBB1FA617B707DF
S1131B5010F0A61BB70B881F991F5A95A9F78095FB
S1131B609095BC01CD010895FB01DC010D9000208E
S1131B70E9F7119701900D920020E1F70895FB0118
S1131B80DC0101900D920020E1F70895E199FECF68
S1131B909FBB8EBBE09A99278DB30895262FE199B8
S1131BA0FECF9FBB8EBB2DBB0FB6F894E29AE19A91
S10D1BB00FBE01960895F894FFCFCC
S1131BBA20202020000000007F1981007F19810164
S1131BCA01FC0000FF00000000010100000000FF0A
S1131BDA0000000030013102320433083410352089
S1131BEA3640378020000000303F3106325B334FE5
S1131BFA3466356D367D3707387F396F2E8020007D
S1131C0A2D40B0636001B4082D4041776177427C6E
S1131C1A627C43396358445E645E457965794671EA
S1131C2A66714C386C38487668764F5C6F5C563E01
S1131C3A763E52507250507370734A1F6A1F3A307C
S1131C4A000070696E670044656275675F4D6F6472
S1131C5A655F456E0044656275675F4D6F64655FD5
S1131C6A446900426F6F7400DE0525073C07980734
S10F1C7AC707F8057C06B706EC06DC057D
S9030000FC
