S0190000446576426F6172645F375365676D656E742E737265639B
S11300000C944E000C946B000C946B000C946B00DD
S11300100C946B000C946B000C946B000C9474089F
S11300200C946B000C946B000C946B000C946B00A0
S11300300C946B000C949D040C94C8040C946B00F9
S11300400C946B000C946B000C946B000C946B0080
S11300500C946B00C002EB02EB02EB02EB02C60253
S1130060EB02EB02EB02EB02CB02EB02EB02EB0244
S1130070EB02D102EB02EB02EB02EB02D602EB0243
S1130080EB02EB02EB02DC02EB02EB02EB02EB0213
S1130090E102EB02EB02EB02EB02E70211241FBECA
S11300A0CFE5D8E0DEBFCDBF10E0A0E6B0E0EEEFD4
S11300B0F6E102C005900D92AA3FB107D9F726E0F8
S11300C0AAEFB0E001C01D92A332B207E1F70E948B
S11300D0A2070C947D0B0C94000000C000C000C06B
S11300E000C000C000C000000895A198A098A9987D
S11300F0A8980895A19AF1DF1DD00895A09AEDDF84
S1130100A198EBDFA098E9DFA19AE7DF13D0089567
S1130110082EA19AE2DF802D0DD0882311F002D0A1
S1130120F8CF0895A09AA19AD8DFA098D6DFA19815
S1130130D4DF08950894881F01C0880F59F0A09A4D
S113014018F40000A19802C0A19A00C0C6DFA098CC
S1130150C4DFF3CFA09AA198C0DFA098989BFECFEC
S11301608827999981E0B9DF99270895882701C0E4
S113017081E071E0A09AA198B0DFA098AEDF989BCF
S1130180FECF889499990894771FA0F7A09A81309C
S113019011F0A19801C0A19AA0DFA098989BFECF6E
S11301A09CDF872F99270895FC0110821182128207
S11301B01382148215821682108617820895FC0118
S11301C090E081918D3229F480818B3211F4892F52
S11301D008959F5F9F3FA9F78FEF08950F931F9393
S11301E0CF93DF938C01EB010E94DF008F3F09F472
S11301F063C0482F082E000C550BF801E40FF51FBF
S1130200928198839381998324812A8325812B83E6
S113021026812C83FA013796E00FF11F20812D836C
S1130220911103C018861F8207C09A01285F3F4FAF
S1130230200F311F38872F831E821082D801A40F0C
S1130240B51F485F5F4F400F511F30E0682F880F84
S1130250770B27E0FB019D91932788E0992324F4F1
S1130260990F392F322702C0392F330F8150932F22
S1130270A9F7A417B50771F73093FA0069816623CB
S1130280C9F03896E00FF11F40E057E02191922F1A
S1130290932728E0992324F4990F392F352702C096
S11302A0392F330F2150932FA9F74F5F461770F35F
S11302B03093FA003E8301C081E0DF91CF911F911A
S11302C00F9108951F93CF93DF93DC01EBEFF0E0E0
S11302D0178217961C9117971896DC911897119608
S11302E0CC911197C85F8DE280838BE28183139652
S11302F08C9113978583C28311968C911197838374
S113030012968C911297848314968C9114978683F9
S113031063E071E030E047E02191922F932728E0D9
S1130320992324F4990F392F342702C0392F330F1E
S11303302150932FA9F7E617F70771F73093FA00C6
S113034011965C9111975523C1F0E12FFD2F40E0E8
S113035087E09191932728E0992324F4990F392F6A
S1130360382702C0392F330F2150932FA9F74F5F3D
S1130370451778F33093FA0004C018961C921E9225
S113038017973093020113961C92139712961C929E
S1130390129714961C921497CC938BEF90E0DF91F4
S11303A0CF911F910895EF92FF920F93FC01638305
S11303B042832483F086E78201830F91FF90EF90BC
S11303C00895CF93DF93EC010E94620168E00E94DC
S11303D02A0569818F8198850E942A05DF91CF9132
S11303E0089590936600809365000895282FA09146
S11303F06500B09166008C91281781F0882381F004
S113040080E08F5FE82FF0E0EE0FFF1FEA0FFB1F85
S11304109081921731F09111F4CF089580E00895FE
S113042080E008958B3731F4E4E0F1E080E28083EA
S113043081830AC0E4E0F1E0982F92959F70905D6B
S113044090838F70805D8183E4E0F1E08EE28283AB
S113045080E283836B3719F4848385830AC0E4E0E4
S1130460F1E0862F82958F70805D84836F70605D6C
S11304706583E4E0F1E08EE2868380E287834B3794
S113048019F4808781870AC0E4E0F1E0842F829523
S11304908F70805D80874F70405D418710920E01A0
S11304A084E091E00895992314F59195819591093B
S11304B020E220930401662319F0613091F404C012
S11304C020E6209304011AC02AE501C020E02A3561
S11304D021F420E12093040111C024EB20930401B2
S11304E00DC06F3F59F42DE22093040107C020E2B0
S11304F020930401662321F3613041F3E4E0F1E049
S11305006AE070E00E94280B605D6183805D8283F5
S113051080EB838383E484831582CF0108950F9352
S11305201F93CF93C62F00916500109166000E941F
S1130530F601E82FF0E0EE0FFF1FE00FF11F8181BD
S113054080950E9405038C2F80958F770E94140359
S1130550CF911F910F910895E0910301E33218F0B8
S1130560109203010DC0EF5FE09303018E2F90E022
S11305708432910580F5FC01E65DFF4F0C943C0B41
S113058060E4809160000E948F02089567E880E231
S11305900E948F02089560E2809161000E948F02A0
S11305A0089567E880E20E948F02089560E18091D7
S11305B062000E948F02089567E880E20E948F0221
S11305C0089568E0809163000E948F02089567E8AF
S11305D080E20E948F0208958AB3886F8ABB84B335
S11305E0806E84BBBF9ABE9AA49A81B38C6F81BB80
S11305F084B38C6084BBA49A87B3807F87BBD09874
S1130600AC988AB3897F8ABB0895CF93C82F80E4BE
S11306100E94880082E10E949A008C2F0E949A0016
S11306200E949200CF910895CF93C82F80E40E9436
S1130630880083E10E949A008C2F0E949A000E94F5
S11306409200CF91089580E40E94880010920F01D7
S113065080E00E949A0080910F010E949A0081E03C
S11306600E949A0080910F010E949A000E949200B9
S113067080E00E94050380E00E9414030895982FEF
S113068092959F70990F292F220F220F920F8F702E
S1130690890F08959DEC899F912D11249695969527
S11306A0969520E1929FA0011124990F292F220FE2
S11306B0220F920F891B842B08950F931F93CF93BE
S11306C0DF93182F062F842FC0E1D1E092E09883A6
S11306D00E944A038983802F0E944A038A83812FC0
S11306E00E944A038B8382EA0E9488000BE111E096
S11306F089910E949A00C017D107D1F70E949200F5
S1130700DF91CF911F910F910895EF92FF920F9374
S11307101F93CF93DF938C01C0E1D1E082E0888303
S113072082EA0E947A0088810E949A0083EA0E94E9
S11307307E00882319F00E94920014C0C0E1D1E029
S11307400F2EFBE1EF2EF1E0FF2EF02D0E94B800FA
S11307508993CE15DF05D1F70E94B60080931B0163
S11307600E949200E0E1F1E0A081E801A883718198
S1130770798362816A8353815C8334813D834581BB
S11307804B83868190E09F838E8327812887908581
S1130790998781858A87E285AF77A8837F77798374
S11307A06F736A835F735C834F714B8337703D83D0
S11307B02F7728879F7799878F778A878E2F8F77D0
S11307C08B87DF91CF911F910F91FF90EF90089548
S11307D0BC0180E090E00E942D0A20E030E04FE26E
S11307E053E40E94BB0A20E03FEF4FE757E40E9426
S11307F0850920E030E044E352E40E9418090E9495
S1130800F709CB010895CF93DF931092670085E930
S11308100E9488000E94B800CCE1D1E088830E9445
S1130820B80089830E94B6008A830E94920088815E
S1130830809598E021E388231CF4880F822701C067
S1130840880F9150C1F790911D01892798E021E309
S113085088231CF4880F822701C0880F9150C1F7A8
S113086080931B0190911E01981309C0ECE1F1E003
S1130870808190E0982F88272181822B07C0E7E6AA
S1130880F0E080818260808384EA96E0DF91CF91FA
S113089008950E9403040E94E80380936900082ECF
S11308A0000C990B089584E90E94880082EA0E9452
S11308B09A0080E30E949A000E94920008950E9488
S11308C0530484E90E94880087E20E949A0087E327
S11308D00E949A0080EE0E949A0080E00E949A0092
S11308E00E9492000895CF93DF9383E90E948800C9
S11308F00E94B800D82F0E94B600C82F0E94920010
S11309008C2F90E09D2B929582958F7089279F70F4
S11309108927DF91CF9108950E947304BC0180E080
S113092090E00E942D0A20E030E040E85DE30E9460
S1130930BB0A0E94F709CB0108951F920F920FB6CC
S11309400F9211242F938F939F93EF93FF938BB167
S11309502CB18871E0912301EF5F90912201E91796
S113096039F0E0932301F0E0EA5DFE4F208301C0FB
S113097082E090912101892B80932101FF91EF91D5
S11309809F918F912F910F900FBE0F901F901895EC
S11309901F920F920FB60F9211248F939F93EF9390
S11309A0FF939091250180912401981761F0E091C3
S11309B02401EF5FEF71E0932401F0E0EA5DFA4F68
S11309C080818CB901C05598FF91EF919F918F91CF
S11309D00F900FBE0F901F90189510922501109242
S11309E02401109223011092220199231CF422E085
S11309F02BB99F7790BD89B988E98AB986E880BD0B
S1130A0008959091230180912201981779F0E09143
S1130A102201EF5FE0932201F0E0EA5DFE4F808166
S1130A20909121011092210190E0089580E091E0DD
S1130A300895209125012F5F2F719091240129178A
S1130A40E1F3E22FF0E0EA5DFA4F80832093250181
S1130A50559A08950F931F93CF93DF93009781F0D6
S1130A60662371F0EC016150062F10E00F5F1F4FF9
S1130A70080F191F89910E9419050C171D07D1F73A
S1130A80DF91CF911F910F910895CF93DF93EC01E4
S1130A900E94010590FD2AC0813021E0920728F0D0
S1130AA01092200180E090E023C020911F012D309E
S1130AB079F48A30910561F480912001FE01E80FF8
S1130AC0F11D31971082109220018C2F9D2F10C0A0
S1130AD080931F019091200121E0290F2093200190
S1130AE0C90FD11D888380E090E002C080E090E0CF
S1130AF0DF91CF910895EF92FF920F930F2EFCEDAB
S1130B00EF2EF0E0FF2EF02D04E020E044E060E062
S1130B108AE196E00E94D3018AE196E00E94E10115
S1130B2080E00F91FF90EF900895EF92FF920F9362
S1130B30CF93DF9300D0CDB7DEB7DC011796ED91EC
S1130B40FC9118979081292F30E08181813041F107
S1130B5020F0823009F445C052C02730310580F4BA
S1130B6062B32F5F3F4F41E050E0FA0102C0EE0F45
S1130B70FF1F2A95E2F79F012095262322BB3FC041
S1130B8065B32550310941E050E0DA0102C0AA0FF3
S1130B90BB1F2A95E2F79D012095262325BB2FC074
S1130BA02730310578F462B32F5F3F4F41E050E0C6
S1130BB0FA0102C0EE0FFF1F2A95E2F79F01262BD0
S1130BC022BB1DC065B32550310941E050E0DA0174
S1130BD002C0AA0FBB1F2A95E2F79D01262B25BB55
S1130BE00EC0292F220F220F22BB292F207C30E098
S1130BF0329522952F7023273F70232725BB998395
S1130C008A83FE0131967F0102E020E040E063E048
S1130C108AE196E00E94D3018AE196E00E94E10114
S1130C2080E00F900F90DF91CF910F91FF90EF90A4
S1130C300895EF92FF920F93CF93DF9300D000D0EB
S1130C4000D0CDB7DEB7A7E6B0E012968C9112972C
S1130C508983EBE6F0E082818A8313968C91139763
S1130C608B8311968C918C8383818D8381818E8378
S1130C70CE0101967C0106E020E045E065E08AE1D2
S1130C8096E00E94D3018AE196E00E94E10180E0AF
S1130C9026960FB6F894DEBF0FBECDBFDF91CF917D
S1130CA00F91FF90EF900895EF92FF920F93CF93DF
S1130CB0DF93EC0182E890E00E94F101E0E6F0E0CD
S1130CC024E630E0AF81B885CD01019698878F8303
S1130CD08C91805D8193E217F307A1F7E12CF12C4D
S1130CE000E020E040E061E08AE196E00E94D30168
S1130CF08AE196E00E94E10180E0DF91CF910F91BB
S1130D00FF90EF900895EF92FF920F93FC012181E1
S1130D10233019F5A781B085CD010196908787838B
S1130D208C919D012E5F3F4F3087278312964C9103
S1130D30129711966C910E945D03E12CF12C00E056
S1130D4020E040E062E08AE196E00E94D3018AE17B
S1130D5096E00E94E10180E001C081E00F91FF90E4
S1130D60EF900895EF92FF920F931F93CF93DF9329
S1130D7000D000D000D0CDB7DEB70DE016E0F8010A
S1130D8082810E943F038983F80181810E943F038D
S1130D908A83F80180810E943F038B83F801848158
S1130DA00E943F038C83F80183810E943F038D835B
S1130DB0F80186810E943F038E83CE0101967C0157
S1130DC006E020E040E062E08AE196E00E94D30180
S1130DD08AE196E00E94E10180E026960FB6F8943D
S1130DE0DEBF0FBECDBFDF91CF911F910F91FF905A
S1130DF0EF90089580916D0080930906E7E6F0E096
S1130E0092812181921714F49093680020916C00D0
S1130E10821714F480936C0020916A00291714F44B
S1130E2090936A0090916E00981714F480936E006A
S1130E3008958EB589608EBD89B7806189BF80EDC4
S1130E4097E09BBD8ABD0895CF93DF93EC010E9488
S1130E50680B823A39F01092190662EACE010E94B8
S1130E60700B03C081E080931906DF91CF91089540
S1130E709F92AF92BF92CF92DF92EF92FF920F9325
S1130E801F93CF93DF938C017B01D42EFC0101903F
S1130E900020E9F731975F01A81AB90A82E890E0C7
S1130EA00E94F101C0906F00C8E0D6E0BB24B501F8
S1130EB0615071096894992495F88A819B818E15F3
S1130EC09F0580F18C8181112DC04C2D0C2C000CC0
S1130ED0550BA0E6B0E0F801E40FF51F9A012C5F72
S1130EE03F4F200F311FCF01801B910B12F49C92B6
S1130EF007C06817790714F49C9202C080818C9310
S1130F0011963196E217F30771F74A155B0539F428
S1130F108CEF80936F0081E080930C0607C0C3942C
S1130F201B821A82D110C9CFC0926F00DF91CF917A
S1130F301F910F91FF90EF90DF90CF90BF90AF90F3
S1130F409F9008950E94EC0283E390E00E94ED04D8
S1130F5080E090E00E9424070E9475000E94230311
S1130F600E945F040E9419078AE196E00E94D4005F
S1130F7078940F2EF1EEEF2EF0E0FF2EF02D04E02A
S1130F8020E044E06FEF8AE196E00E94D3018AE119
S1130F9096E00E94E10110920C06C8E0D6E00F2E04
S1130FA0F7E66F2EF0E07F2EF02D0F2EFBE68F2E4E
S1130FB0F0E09F2EF02D0F2EF0E2AF2EFDE2BF2EBB
S1130FC0F02D6894CC24C5F8D12C8AE495E00E94D5
S1130FD045059093CB058093CA05009771F16AE1AA
S1130FE076E00E94EE00811128C0EAE1F6E09581E6
S1130FF08681981310C0E0911D06E63060F4F0E09D
S1131000EE0FFF1FE251FF4F0190F081E02D8AE1C6
S113101096E0099512C00F2EF6EEEF2EF0E0FF2EAB
S1131020F02D07E020E044E06FEF8AE196E00E94B3
S1131030D3018AE196E00E94E1018C818823A9F022
S11310408881816088830E944904F30182830E941D
S11310508C04F40182830E94FA068DE096E00E94DB
S1131060850388818E7F88831C82F301828160E0FE
S1131070082E000C990B0E945302BC018CEC95E0E5
S11310800E94610B0CEC15E0F80101900020E9F7D7
S11310903197B182A082D382C282F401828161E05D
S11310A0082E000C990B0E945302BC01C8010E9437
S11310B0560BF80101900020E9F73197B182A08224
S11310C0D382C282EDE0F6E04081618182810E9498
S11310D01202BC01C8010E94560B40E060ED77E0AB
S11310E0C8010E94380771CF1F920F920FB60F925A
S11310F011242F933F934F935F936F937F938F9319
S11311009F93AF93BF93EF93FF93E8E0F6E0828160
S1131110938101969383828380914605909147053C
S1131120A0914805B09149050196A11DB11D8131D9
S113113027E2920708F062C0AA27BB2780934605DE
S113114090934705A0934805B0934905893C9105C0
S1131150A105B10510F4C79824C0AC01BD014059E4
S1131160514061097109493C51056105710510F44B
S1131170C79A17C0AC01BD01485E534061097109AB
S1131180413951406105710510F4C7980AC0805473
S11311909640A109B109893C9105A105B10508F45E
S11311A0C79AE0E7F0E0818924E08202C0011124BB
S11311B08F70818BC99B03C081898260818BCA9B9C
S11311C005C0E0E7F0E081898160818BA0E7B0E0B1
S11311D05196EC9151970E2E000CFF0BE059FF4FE6
S11311E0808150969C915097890F50968C93809152
S11311F0080680FD0CC00E94AC0209C0109246058E
S1131200109247051092480510924905A4CFFF910A
S1131210EF91BF91AF919F918F917F916F915F916A
S11312204F913F912F910F900FBE0F901F901895E3
S11312305058BB27AA270E9430090C94810A0E94A7
S1131240730A38F00E947A0A20F039F49F3F19F4A7
S113125026F40C94700A0EF4E095E7FB0C946A0AE9
S1131260E92F0E94920A58F3BA176207730784079A
S1131270950720F079F4A6F50C94B40A0EF4E095E1
S11312800B2EBA2FA02D0B01B90190010C01CA013C
S1131290A0011124FF27591B99F0593F50F4503EE7
S11312A068F11A16F040A22F232F342F4427585FD9
S11312B0F3CF469537952795A795F0405395C9F7F1
S11312C07EF41F16BA0B620B730B840BBAF09150A9
S11312D0A1F0FF0FBB1F661F771F881FC2F70EC048
S11312E0BA0F621F731F841F48F48795779567951B
S11312F0B795F7959E3F08F0B0CF9395880F08F007
S11313009927EE0F9795879508950E9499090C9453
S1131310810A0E947A0A58F00E94730A40F029F464
S11313205F3F29F00C946A0A51110C94B50A0C948D
S1131330700A0E94920A68F39923B1F3552391F33A
S1131340951B550BBB27AA2762177307840738F030
S11313509F5F5F4F220F331F441FAA1FA9F335D08D
S11313600E2E3AF0E0E832D091505040E695001C41
S1131370CAF72BD0FE2F29D0660F771F881FBB1FFB
S1131380261737074807AB07B0E809F0BB0B802DD9
S1131390BF01FF2793585F4F3AF09E3F510578F005
S11313A00C946A0A0C94B50A5F3FE4F3983ED4F3B4
S11313B0869577956795B795F7959F5FC9F7880FD9
S11313C0911D9695879597F90895E1E0660F771F2B
S11313D0881FBB1F621773078407BA0720F0621BBC
S11313E0730B840BBA0BEE1F88F7E09508950E94E7
S11313F0FE096894B1110C94B50A08950E949A0AE2
S113140088F09F5798F0B92F9927B751B0F0E1F0C1
S1131410660F771F881F991F1AF0BA95C9F714C071
S1131420B13091F00E94B40AB1E008950C94B40A6A
S1131430672F782F8827B85F39F0B93FCCF38695AA
S113144077956795B395D9F73EF490958095709507
S113145061957F4F8F4F9F4F0895E89409C097FB84
S11314603EF490958095709561957F4F8F4F9F4F77
S11314709923A9F0F92F96E9BB279395F6958795BB
S113148077956795B795F111F8CFFAF4BB0F11F47E
S113149060FF1BC06F5F7F4F8F4F9F4F16C0882325
S11314A011F096E911C0772321F09EE8872F762F5B
S11314B005C0662371F096E8862F70E060E02AF09C
S11314C09A95660F771F881FDAF7880F9695879588
S11314D097F9089597F99F6780E870E060E00895B0
S11314E09FEF80EC089500240A9416161706180638
S11314F00906089500240A94121613061406050614
S11315000895092E0394000C11F4882352F0BB0FA4
S113151040F4BF2B11F460FF04C06F5F7F4F8F4F07
S11315209F4F089557FD9058440F551F59F05F3F42
S113153071F04795880F97FB991F61F09F3F79F0F1
S113154087950895121613061406551FF2CF469573
S1131550F1DF08C0161617061806991FF1CF8695F5
S11315607105610508940895E894BB2766277727D9
S1131570CB0197F908950E94CE0A0C94810A0E9427
S1131580730A38F00E947A0A20F0952311F00C9423
S11315906A0A0C94700A11240C94B50A0E94920AE7
S11315A070F3959FC1F3950F50E0551F629FF001B2
S11315B0729FBB27F00DB11D639FAA27F00DB11DCB
S11315C0AA1F649F6627B00DA11D661F829F222754
S11315D0B00DA11D621F739FB00DA11D621F839FDB
S11315E0A00D611D221F749F3327A00D611D231FB1
S11315F0849F600D211D822F762F6A2F11249F57FF
S113160050409AF0F1F088234AF0EE0FFF1FBB1F01
S1131610661F771F881F91505040A9F79E3F5105C0
S113162080F00C946A0A0C94B50A5F3FE4F3983E88
S1131630D4F3869577956795B795F795E7959F5F6A
S1131640C1F7FE2B880F911D9695879597F90895FC
S113165097FB072E16F4009407D077FD09D00E945B
S1131660420B07FC05D03EF4909581959F4F089559
S1131670709561957F4F0895EE0FFF1F0590F491CB
S1131680E02D0994AA1BBB1B51E107C0AA1FBB1F75
S1131690A617B70710F0A61BB70B881F991F5A95FA
S11316A0A9F780959095BC01CD010895FB01DC015B
S11316B00D900020E9F7119701900D920020E1F7B9
S11316C00895FB01DC0101900D920020E1F70895DB
S11316D0E199FECF9FBB8EBBE09A99278DB3089505
S11316E0262FE199FECF9FBB8EBB2DBB0FB6F8947E
S11116F0E29AE19A0FBE01960895F894FFCF96
S11316FE20202020000000007F1981007F1981FC2A
S113170E0000FF00000000010100000000FF0000C7
S113171E0000303F3106325B334F3466356D367D13
S113172E3707387F396F2E8020002D40B06360015B
S113173EB4082D4041776177427C627C433963580B
S113174E445E645E45796579467166714C386C38D1
S113175E487668764F5C6F5C563E763E52507250B9
S113176E507370734A1F6A1F3A30000070696E67B7
S113177E00426F6F7400636D645F626164007B0589
S10D178E54068306B20695051906F9
S9030000FC
