:100000000C944E000C946B000C946B000C946B00E1
:100010000C946B000C946B000C946B000C946E08A9
:100020000C946B000C946B000C946B000C946B00A4
:100030000C946B000C9470040C949C040C946B0056
:100040000C946B000C946B000C946B000C946B0084
:100050000C946B00D7020203020302030203DD02C9
:100060000203020302030203E20202030203020389
:100070000203E8020203020302030203ED02020389
:10008000020302030203F302020302030203020358
:10009000F8020203020302030203FE0211241FBE40
:1000A000CFE5D8E0DEBFCDBF11E0A0E6B0E0EEE8DE
:1000B000F3E102C005900D92A23FB107D9F722E00B
:1000C000A2EFB1E001C01D92A03DB207E1F70E948E
:1000D000E4070C94C5090C94000000C000C000C0E7
:1000E00000C000C000C000000895A198A098A99881
:1000F000A8980895A19AF1DF1DD00895A09AEDDF88
:10010000A198EBDFA098E9DFA19AE7DF13D008956B
:10011000082EA19AE2DF802D0DD0882311F002D0A5
:10012000F8CF0895A09AA19AD8DFA098D6DFA19819
:10013000D4DF08950894881F01C0880F59F0A09A51
:1001400018F40000A19802C0A19A00C0C6DFA098D0
:10015000C4DFF3CFA09AA198C0DFA098989BFECFF0
:100160008827999981E0B9DF99270895882701C0E8
:1001700081E071E0A09AA198B0DFA098AEDF989BD3
:10018000FECF889499990894771FA0F7A09A8130A0
:1001900011F0A19801C0A19AA0DFA098989BFECF72
:1001A0009CDF872F99270895E0E6F0E041E3408344
:1001B0002EE2218390E2928380E3838324839583DC
:1001C0008683878380878187828723879487858733
:1001D00037E33687478744E3408B218B928B838BB1
:1001E000348B88E3858B178ACF0108950F931F9373
:1001F000CF93DF93009791F06115710591F0EC01B9
:100200000E943A09082F192F6BE370E0CE010E947B
:100210002809892B49F0802F912F08C080E090E0B9
:1002200005C080E090E002C080E090E0DF91CF91D7
:100230001F910F910895CF92DF92EF92FF920F934B
:100240001F93CF93DF93FC010281138101151105E8
:1002500011F1EB01E080F18080E090E0D12C0F2ED5
:10026000F5E2CF2EF02DC89EB001C99E700D11246D
:100270006E0D7F1D6C5E7F4FCE010E94F600892BB4
:1002800011F08D2D09C0D3948D2D90E0801791072A
:1002900050F38FEF01C08FEFDF91CF911F910F913E
:1002A000FF90EF90DF90CF900895CF93DF93EC0114
:1002B0000E941B018F3F51F028813981A90165E21D
:1002C0008602400D511D1124CA0102C080E090E059
:1002D000DF91CF910895CF93DF93EC010E941B0132
:1002E0008F3F79F0E881F98195E28902E00DF11DF7
:1002F000112403A0F4A1E02D60E070E080E090E024
:100300000995DF91CF9108956F927F929F92AF925E
:10031000BF92CF92DF92EF92FF920F931F93CF93F2
:10032000DF93DC011296CD90DC901397C114D104B9
:1003300009F477C0D42F3B018C01FC01A080B1806F
:1003400080E090E0C0E00F2EF5E29F2EF02D989E09
:10035000B001999E700D11246A0D7B1D6C5E7F4F5C
:10036000C3010E94F6007C01009709F063C0CF5FD3
:100370008C2F90E08C159D0550F380E090E069C0D3
:10038000C1E0DC0111968C918B3309F060C0C0E0B4
:100390005EC0C22F6CE270E001960E94280921E045
:1003A0002C0F0097B1F7F601C2836BE370E0C70131
:1003B0000E942809892BC1F16AE370E0C7010E94FD
:1003C00028099C012F5F3F4F009709F442C067E066
:1003D00071E0C9010E941809009749F1C0E007C007
:1003E00067E071E080E090E00E941809CF5FCD17D0
:1003F000B8F3D8011496ED91FC9115972281C2179C
:1004000078F3BC0184EF91E00E9433096BE370E064
:1004100084EF91E00E942809FC01108284EF91E0B2
:1004200018C080E090E015C080E090E012C080E04D
:1004300090E00FC0D8011496CD90DC9015976AE338
:1004400070E00E942809009709F09ACFC0E0C70128
:10045000A1CFDF91CF911F910F91FF90EF90DF908F
:10046000CF90BF90AF909F907F906F9008959093A2
:100470007F0080937E000895282FA0917E00B09188
:100480007F008C91281781F0882381F080E08F5FB6
:10049000E82FF0E0EE0FFF1FEA0FFB1F908192178D
:1004A00031F09111F4CF089580E0089580E008952F
:1004B0008B3731F4E9E7F0E080E28083818314C078
:1004C000E9E7F0E09DEC899F912D11249695969592
:1004D000969520E3290F2083990F292F220F220FB1
:1004E000920F891B805D81836B3731F4E9E7F0E07F
:1004F00080E2828383830895E9E7F0E08DEC689FD2
:10050000812D112486958695869590E3980F928388
:10051000880F982F990F990F890F681B605D63836F
:1005200008950F931F93CF93C62F00917E001091D3
:100530007F000E943C02E82FF0E0EE0FFF1FE00F6B
:10054000F11F818180950E941C038C2F80958F77ED
:100550000E942B03CF911F910F910895882319F0CA
:10056000813029F008958FE70E942B03089580E8D9
:100570000E942B030895E9E7F0E080E28083818305
:10058000828383830895E0910802E33218F0109289
:1005900008020DC0EF5FE09308028E2F90E08432D6
:1005A000910580F5FC01E65DFF4F0C94120960E4B3
:1005B000809179000E949102089567E880E20E948C
:1005C0009102089560E280917A000E94910208955C
:1005D00067E880E20E949102089560E180917B00CB
:1005E0000E949102089567E880E20E9491020895B6
:1005F00068E080917C000E949102089567E880E2A3
:100600000E94910208958AB3886F8ABB84B3806E7A
:1006100084BBBF9ABE9AA49A81B38C6F81BB84B30A
:100620008C6084BBA49A87B3807F87BBD098AC983A
:100630008AB3897F8ABB0895CF93C82F80E40E9434
:10064000880082E10E949A008C2F0E949A000E94EA
:100650009200CF910895CF93C82F80E40E94880024
:1006600083E10E949A008C2F0E949A000E949200BF
:10067000CF91089580E40E9488001092090280E0E2
:100680000E949A00809109020E949A0081E00E94D3
:100690009A00809109020E949A000E94920080E0D4
:1006A0000E941C0380E00E942B030895982F9295CE
:1006B0009F70990F292F220F220F920F8F70890F91
:1006C0000895DF92EF92FF920F931F93CF93DF93E2
:1006D0007C01162F82EA0E948800F70180810E9427
:1006E0009A0083EA0E947E00D82E811105C0112352
:1006F000F1F0113069F405C00E949200DD24D3941A
:100700001CC00E94B600F70180830E94920015C0B1
:10071000E7011150612F70E06F5F7F4FE60EF71E0B
:1007200087010E94B8008993C017D107D1F70E94B2
:10073000B600F70180830E9492008D2DDF91CF914A
:100740001F910F91FF90EF90DF900895EF92FF922D
:100750000F931F93CF93DF937C01162F82EA0E94A1
:100760008800112371F0E7011150012F10E00F5F95
:100770001F4F0E0D1F1D89910E949A00C017D107AF
:10078000D1F70E94920080E0DF91CF911F910F91ED
:10079000FF90EF900895EAE0F2E092E090839DEC04
:1007A000499F212D112426952695269530E1239FDA
:1007B000D0011124220F322F330F330F230F421B8E
:1007C0004A2B4183699F212D112426952695269534
:1007D00030E1239FA0011124220F322F330F330F5A
:1007E000230F621B642B6283899F912D11249695A0
:1007F0009695969540E1949F90011124990F392F79
:10080000330F330F930F891B822B83836BE0CF0150
:100810000E94A60308950F931F93CF93DF93EC01DB
:100820000AE012E082E0D8018C936BE0C8010E94DC
:100830006103D801EC91E88311967C91119779833B
:1008400012966C9112976A8313965C9113975C834E
:1008500014963C9114973D8315964C9115974B83B4
:1008600016968C91169790E09F838E8317962C9105
:100870001797288718969C911897998719968C91A5
:1008800019978A871A96FC91EF77E8837F777983A7
:100890006F736A835F735C834F714B8337703D83E3
:1008A0002F7728879F7799878F778A878F2F8F77E2
:1008B0008B87DF91CF911F910F91089584E90E945A
:1008C000880081E20E949A0080E30E949A0080EEF4
:1008D0000E949A0080E00E949A000E94920008956F
:1008E0001F920F920FB60F9211242F938F939F9305
:1008F000EF93FF938BB12CB18871E0911702EF5FFA
:10090000EF7390911602E91739F0E0931702F0E0C7
:10091000E65EFD4F208301C082E090911502892B95
:1009200080931502FF91EF919F918F912F910F90DE
:100930000FBE0F901F9018951F920F920FB60F9237
:1009400011248F939F93EF93FF93909119028091BD
:100950001802981761F0E0911802EF5FEF71E093D1
:100960001802F0E0E65AFD4F80818CB901C055981D
:10097000FF91EF919F918F910F900FBE0F901F905D
:1009800018951092190210921802109217021092E4
:10099000160299231CF422E02BB99F7790BD89B9E8
:1009A00088E98AB986E880BD089590911702809100
:1009B0001602981781F0E0911602EF5FEF73E09353
:1009C0001602F0E0E65EFD4F8081909115021092D4
:1009D000150290E0089580E091E0089520911902B9
:1009E0002F5F2F71909118022917E1F3E22FF0E0A9
:1009F000E65AFD4F808320931902559A0895CF93AC
:100A0000DF93EC018881882331F021960E94EE0467
:100A100089918111FBCFDF91CF91089589E091E019
:100A20000E94FF0480E090E008958EB589608EBD3D
:100A300089B7806189BF80ED97E09BBD8ABD08952D
:100A40002F923F924F925F926F927F928F929F92DE
:100A5000AF92BF92CF92DF92EF92FF920F931F93CC
:100A6000CF93DF93EC0183EC92E00E940B0403EC44
:100A700012E0F80182810E9456038883F801818187
:100A80000E94560389831092970040E050E0BA011B
:100A900007E810E0212C412C512C312C612C712CB9
:100AA000812C912CA12CB12CF80180899881890F7F
:100AB00088838089811126C010C069810E945802F4
:100AC0002EC0F1E4CF16FCE9DF06E104F10438F1B1
:100AD00069818BE70E94580222C0288130E02931C9
:100AE000310508F02A2D822F28836A017B012FEF20
:100AF000C21AD20AE20AF20A403157426105710570
:100B000000F7DBCFF801108A288130E02931310568
:100B100008F084C0462D572D682D792DE4CFF9EECD
:100B2000CF16FDEFDF0610F0CA2CDB2CA60160E02B
:100B300070E0B499B9CF2FE788E391E0215080406D
:100B40009040E1F700C00000B49BAECF1092970038
:100B500007E810E0612C712C812C912CA12CB12C78
:100B6000F80180899981890F89838089882329F0F8
:100B7000108A462D572D682D792D898190E08C3370
:100B8000910508F08A2D89836A017B01FFEFCF1A56
:100B9000DF0AEF0AFF0A403157426105710528F468
:100BA000682F88810E9458020BC081E4C8168CE926
:100BB000D806E104F10420F06BE788810E94580216
:100BC00099EEC9169DEFD90610F0CA2CDB2CA601B0
:100BD00060E070E0B499C4CFEFE7F8E321E0E150C2
:100BE000F0402040E1F700C00000B49BB9CFE9E736
:100BF000F0E080E280838183828383830EEB12E0C6
:100C0000F80180818160808340E0698188810E9451
:100C1000CB03F80180818E7F808306C01882822DED
:100C2000CC24C394D42C49CFDF91CF911F910F9145
:100C3000FF90EF90DF90CF90BF90AF909F908F90FC
:100C40007F906F905F904F903F902F900895CF933B
:100C5000DF9300D01F92CDB7DEB71A8219821B82B4
:100C6000B4992FC02FEF31EE44E021503040404086
:100C7000E1F700C00000B49920C0E9E7F0E090E39C
:100C800080E290839183928393832FEF32E547E054
:100C9000215030404040E1F700C000008083818354
:100CA000828383832FEF32E547E02150304040407C
:100CB000E1F700C00000B49BE4CFCE0101960E9492
:100CC00020050F900F900F90DF91CF910895982FEE
:100CD000990F990F92BB807C90E09595879595959B
:100CE0008795959587959595879585BB0895CF931D
:100CF000DF93EC010E94B009823A39F01092CF02E2
:100D000062EACE010E94B80903C081E08093CF025D
:100D1000DF91CF9108959F92AF92BF92CF92DF92D1
:100D2000EF92FF920F931F93CF93DF938C017B0180
:100D3000D42EFC0101900020E9F731975F01A81A39
:100D4000B90A8DEA90E00E943702C0908000CEEB95
:100D5000D2E0BB24B501615071096894992495F8DB
:100D60008A819B818E159F0580F18C8181112DC018
:100D70004C2D0C2C000C550BA9E7B0E0F801E40F4A
:100D8000F51F9A012C5F3F4F200F311FCF01801BB1
:100D9000910B12F49C9207C06817790714F49C9287
:100DA00002C080818C9311963196E217F30771F798
:100DB0004A155B0539F48CEF8093800081E08093C5
:100DC000C20207C0C3941B821A82D110C9CFC0923D
:100DD0008000DF91CF911F910F91FF90EF90DF90F6
:100DE000CF90BF90AF909F900895CF92DF92EF92F7
:100DF000FF920F931F93CF93DF938DEA90E00E94B1
:100E00003702E9E7F0E08DE2808381838283838388
:100E10002FEF89E698E1215080409040E1F700C033
:100E20000000B39BFECFB39B8BC009E710E0D1E07D
:100E30000F2EFEEBCF2EF2E0DF2EF02D89E990E0B1
:100E40000E943702E12CF12CC0E3F801C083C1837A
:100E5000C283C3838D2F0E2C01C0880F0A94EAF73A
:100E60000E946706FFEF29E688E1F15020408040AC
:100E7000E1F700C00000CF5F9FEFE91AF90AC8331D
:100E800021F70E94BB0280E00E946706C69AEFEF3E
:100E9000F3EF21E0E150F0402040E1F700C0000016
:100EA000C698F601808181608083C5E081E00E9460
:100EB000AE02FFEF20E782E0F15020408040E1F7F2
:100EC00000C0000080E00E94AE029FEFE0E7F2E089
:100ED0009150E040F040E1F700C00000C15031F710
:100EE000F60180818E7F8083148241E064EC79E09A
:100EF00086E291E00E948B06F60114828BE291E07B
:100F00000E94FF0488E491E00E94FF0481E691E0E2
:100F10000E94FF0482E791E00E94FF040E94D40037
:100F20000E94FF0483E291E00E94FF0489E791E0C0
:100F30000E94FF0483E291E00E94FF04B3997ECFF8
:100F4000DF91CF911F910F91FF90EF90DF90CF90A5
:100F50000895CF93DF93EC010E94D50490FD2FC03C
:100F6000813021E0920728F010927E0280E090E02C
:100F700028C09C0133272A30310519F02D30310566
:100F800059F480917E02FE01E80FF11D108210924B
:100F90007E028C2F9D2F15C020917E02203428F0D8
:100FA00010927E0280E090E00CC091E0920F90934E
:100FB0007E02C20FD11D888380E090E002C080E0F5
:100FC00090E0DF91CF9108950E94030387E690E0BF
:100FD0000E94C10480E090E00E9477060E947500A4
:100FE0000E943A030E945E040E94150578948BE2E9
:100FF00091E00E94FF0488E491E00E94FF0481E6F2
:1010000091E00E94FF0482E791E00E94FF040E94A9
:10101000D4000E94FF040E942706B39B0E94F5069D
:1010200085E0E6E8F1E0AFE7B2E001900D928A9545
:10103000E1F70E94D400BC018FE792E00E941D09F5
:1010400041E068EB7BE08FE792E00E948B0681E055
:101050008093C2028FE792E00E94A907EC010097FB
:10106000C9F3BC0181E890E00E945501009789F125
:101070000E94FF0483E291E00E94FF04BE0181E828
:1010800090E00E946B0182E991E00E94FF0440E041
:10109000BE0181E890E00E9484010E94FF0483E287
:1010A00091E00E94FF048BE891E00E94FF04E09130
:1010B0008500F091860082814AE060E070E090E077
:1010C0000E947B090E94FF0483E291E00E94FF04DA
:1010D000C1CF8FE991E00E94FF04BCCF1F920F9215
:1010E0000FB60F9211242F933F934F935F936F93FB
:1010F0007F938F939F93AF93BF93EF93FF93EEEB09
:10110000F2E08281938101969383828380917A02B7
:1011100090917B02A0917C02B0917D020196A11D6D
:10112000B11D813127E2920708F062C0AA27BB27D0
:1011300080937A0290937B02A0937C02B0937D020D
:10114000893C9105A105B10510F4C79824C0AC01F4
:10115000BD014059514061097109493C5105610582
:10116000710510F4C79A17C0AC01BD01485E534029
:1011700061097109413951406105710510F4C79841
:101180000AC080549640A109B109893C9105A10586
:10119000B10508F4C79AE7E8F0E0818924E082020B
:1011A000C00111248F70818BC99B03C0818982602B
:1011B000818BCA9B05C0E7E8F0E081898160818B63
:1011C000A7E8B0E05196EC9151970E2E000CFF0B62
:1011D000E957FF4F808150969C915097890F509608
:1011E0008C938091BE0280FD0CC00E94C30209C096
:1011F00010927A0210927B0210927C0210927D0271
:10120000A4CFFF91EF91BF91AF919F918F917F916B
:101210006F915F914F913F912F910F900FBE0F9063
:101220001F901895EE0FFF1F0590F491E02D099483
:1012300042EF51E00E9454090895FB01DC010D903A
:101240000020E9F7119701900D920020E1F7089531
:10125000FC018191861721F08823D9F799270895F9
:101260003197CF010895FB01DC0101900D92002020
:10127000E1F70895FB0151915523A9F0BF01DC016D
:101280004D9145174111E1F759F4CD01019000202E
:1012900049F04D9140154111C9F3FB014111EFCFC8
:1012A00081E090E001970895FA01A191B081009743
:1012B00019F41097E1F0CD01DC01CD010D90002073
:1012C00011F4C00113C0FB012191222319F0201554
:1012D000D9F7F3CFFB012191201519F41E92119635
:1012E00006C02223C1F70D900020A1F7D001FA011A
:1012F000A193B0830895BB274A3031F4992322F497
:10130000BDE2909581959F4F0C948709BB27FB0107
:101310005527AA27880F991FAA1FA41710F0A41BEE
:1013200083955051B9F7A05DAA3308F0A95DA19348
:10133000009779F7B111B1931192CB010C94A009E8
:10134000DC01FC01672F71917723E1F7329704C02C
:101350007C916D9370836291AE17BF07C8F30895B7
:10136000E199FECF9FBB8EBBE09A99278DB308957C
:10137000262FE199FECF9FBB8EBB2DBB0FB6F894F5
:0E138000E29AE19A0FBE01960895F894FFCF0D
:10138E00303030303030303030303030303030304F
:10139E00303030303030303000202020200000003F
:1013AE00FCA7010200BB020000FF000000000101CB
:1013BE0000000000FF000000003001310232043353
:1013CE0008341035203640378020000000303F3181
:1013DE0006325B334F3466356D367D3707387F39CD
:1013EE006F2E8020002D40B0636001B4082D404167
:1013FE00776177427C627C43396358445E645E4514
:10140E00796579467166714C386C38487668764FD6
:10141E005C6F5C563E763E52507250507370734AFB
:10142E001F6A1F3A3000002C0046756E6B74696F90
:10143E006E20777572646520617573676575656872
:10144E007274210D0A0038383838002A2A4865731C
:10145E006368446576426F6172645F375365676D8A
:10146E00656E742A2A0D0A00537570706F7274209F
:10147E006279204A2E48202D20456C65632E0D0A78
:10148E00007777772E6A682D656C65632E64650D1F
:10149E000A005665722E3A2000546573746D6F649F
:1014AE00652E2E0D0A005665723A00416E7A6168FD
:1014BE006C20506172616D657465722E3A20004524
:1014CE0072726F720D0A0052656C6169735F4861CA
:1014DE006E646C65722100000000002D52454C00B8
:1014EE00000000000000000000000E055568727A32
:1014FE00656974205374656C6C656E0000000000A5
:10150E002D53455454696D65000000000000000E17
:02151E000500C6
:00000001FF
