S01500004865736368446576426F6172642E737265631D
S11300000C9479040C9496040C9496040C94960421
S11300100C9496040C9496040C9496040C947D1BF6
S11300200C9496040C9496040C9496040C949604E4
S11300300C9496040C94B0090C94DC090C9496046A
S11300400C9496040C9496040C9496040C949604C4
S11300500C949604DF1DE61DED1DF41DFB1D021E10
S1130060091E60016E018901C201C50198012804BD
S11300702F03F101EB01E5020000310435043904DA
S11300803D044104450449044D04D601BA03F90171
S1130090020251049202400366025D040E02CD0185
S11300A047039B0200006704750420027C041702C6
S11300B032023A028804B101A602FF0400000507D7
S11300C0207F0801000000000000005F000000071E
S11300D0000700147F147F14242A7F2A1223130894
S11300E0646236495522500005030000001C224179
S11300F0000041221C00082A1C2A0808083E08089F
S11301000050300000080808080800606000002063
S1130110100804023E5149453E00427F40004261BE
S11301205149462141454B311814127F102745454A
S113013045393C4A49493001710905033649494961
S113014036064949291E003636000000563600009E
S11301500008142241141414141441221408000237
S113016001510906324979413E7E1111117E7F49C0
S11301704949363E414141227F4141221C7F494940
S113018049417F090901013E414151327F08080874
S11301907F00417F41002040413F017F08142241FC
S11301A07F404040407F0204027F7F0408107F3E6E
S11301B04141413E7F090909063E4151215E7F09C3
S11301C0192946464949493101017F01013F40400F
S11301D0403F1F2040201F7F2018207F63140814F5
S11301E0630304780403615149454300007F41419E
S11301F0020408102041417F00000402010204406F
S113020040404040000102040020545454787F4888
S11302104444383844444420384444487F3854548F
S11302205418087E090102081454543C7F0804043D
S11302307800447D40002040443D00007F10284465
S113024000417F40007C041804787C08040478385A
S1130250444444387C14141408081414187C7C088E
S11302600404084854545420043F4440203C404073
S1130270207C1C2040201C3C4030403C442810285A
S1130280440C5050503C4464544C440008364100E3
S113029000007F0000004136080008082A1C0808F6
S11302A01C2A0808163A080F2A1108010000000049
S11302B0000000000000000000000000808080E0DA
S11302C0E0808080000000030300000000000000C4
S11302D000000000000000B07000000080808080FA
S11302E0808080800000000000000000000000000A
S11302F0000000000000003030000000000000C0DA
S1130300F03C0F03303C0F0300000000FCFE0381AF
S1130310611BFEFC0F1F362120301F0F040406FF53
S1130320FF0000002020203F3F2020200C0E03016E
S113033081C37E3C383C2623212020200C0E4341DF
S11303404143FEBC0C1C302020301F0F00E0FC1F7A
S1130350838000000F0F08083F3F08083F3F21211A
S11303602161C1810C1C302020301F0FE0F85C4655
S113037043C181010F1F302020301F0F01010101F3
S113038081F17F0F0000003C3F0300001CBEE341ED
S113039041E3BE1C0F1F302020301F0F3C7EC38161
S11303A08183FEFC20202030180E0701000000602D
S11303B06000000000000030300000001E6C0A0ED7
S11303C02060680004020506070809020303050803
S11303D002040204070407070707070707070202C6
S11303E0070707080E09080808070709080207088D
S11303F0070B0809070909070808090D0708080475
S1130400040406080307070607070507070203068F
S1130410020A0707070705060507070B0607050570
S1130420010507080000000000000000FEFE181887
S11304301E1E001E1E000000000090F89E90F89EF4
S11304401C00001C0000183C26FF66CC88040C1815
S11304503C180C041C221CC0308E40800000180480
S1130460000C100C80CC7E72F2DE0C80000C1C1090
S113047010101C0C1C101E1E0000F0FC061C7CC07E
S113048006FCF0C07C1C14140E14140000000000C0
S1130490606060FCFC6060600000000C0C00000008
S11304A000005838C0C0C0C0000000000000181888
S11304B000C0380618040000F8FC0E060EFCF80410
S11304C00C1C181C0C04180CFEFE00001C1C181C30
S11304D086C6663E1C181C1C18181818888C06261C
S11304E026FEDC040C1C18180C04C0E0B88CFEFEBC
S11304F080040404041C1C04707E3E3636F6C60CCC
S11305001C1818180C04F8FC6E6666EECC040C1863
S113051018181C0C060606E6761E0600001C1C00B5
S113052000009CFE666666FE9C0C1C1818181C0CC9
S11305303C7E666666FCF80C1C18181C0C04181823
S11305401818181858386060F0F098980C000000DB
S11305500004040CD8D8D8D8D8D8D800000000009B
S113056000000C9898F0F060600C04040000000097
S1130570080C06C6E6763C180000001818000000B7
S1130580E03008C4F63A1A1AF2FA7E0408F00C3085
S1130590604C9C98988C9C9C90484C2000C0F8BE61
S11305A086BEF8C000181C04040404041C18FEFED3
S11305B066666666FEDC1C1C181818181C0CF8FC11
S11305C00E06060E9C08040C1C18181C0C04FEFED7
S11305D00606060EFCF81C1C1818181C0C04FEFE5B
S11305E066666666661C1C1818181818FEFE666691
S11305F06666061C1C0000000000F8FC0E0606C619
S1130600CEDCC8040C1C181818180C04FEFE60601C
S11306106060FEFE1C1C000000001C1CFEFE1C1C76
S11306208080000000FEFE0C1C1818181C0CFEFE36
S1130630603078EC86021C1C000000041C18FEFECE
S113064000000000001C1C1818181818FEFE0E7C70
S1130650E000E07C0EFEFE1C1C00000C1C0C0000E4
S11306601C1CFEFE1C78E080FEFE1C1C0000040C1A
S11306701C1CF8FC0E0606060EFCF8040C1C1818CC
S1130680181C0C04FEFE6666667E3C1C1C00000002
S11306900000F8FC0E0686060EFCF8040C1C181864
S11306A01C0C1C24FEFE6666E6E6BE1C001C1C0038
S11306B000000C1C18103C7E666666EECC0C1C1800
S11306C018181C0C060606FEFE0606060000001C92
S11306D01C000000FEFE00000000FEFE040C1C18BE
S11306E0181C0C04021EFCE000E0FC1E02000000CA
S11306F01C1C1C00000006FEF800F0FE0EFEF000BC
S1130700F8FE0600001C1C1C0000001C1C1C000041
S1130710060EF8F0F80E06181C0400041C18060E49
S113072038F0F0380E060000001C1C00000006061D
S113073086E6761E0E06181C1C1818181818FEFEDD
S11307400606FCFCC0C00638C000000004180606FB
S1130750FEFEC0C0FCFC20380E0E38200000000055
S11307600000000000000000000080808080808085
S113077080800206040000001098D858F8F0000C9D
S11307801C18180C1C10FEFE301838F0E01C1C0C51
S1130790181C0C04E0F018183830040C18181C0C41
S11307A0E0F0381830FEFE040C1C180C1C1CE0F0A1
S11307B0D8D8D8F0E0040C181818180818FCFE1A39
S11307C01A001C1C0000E0F0381830F8F864ECDC67
S11307D0D8CCFC7CFEFE301818F8F01C1C0000007D
S11307E01C1CFAFA1C1C00FAFAC0FC7CFEFEE0F0A9
S11307F098081C1C00041C18FEFE1C1CF8F8101899
S1130800F8F01818F8F01C1C00001C1C00001C1C3C
S1130810F8F8301818F8F01C1C0000001C1CE0F05C
S1130820381838F0E0040C1C181C0C04F8F83018C4
S113083038F0E0FCFC0C181C0C04E0F0381830F81C
S1130840F8040C1C180CFCFCF8F83018181C1C00DC
S1130850000070F8D8D8D890081818181C0C18FC88
S1130860FE1818000C1C1818F8F8000000F8F80C12
S11308701C18180C1C1C38F8C000C0F83800001CE8
S11308801C1C000018F8E000F038F000E0F8180034
S1130890001C1C0C000C1C1C00001838E0E038186C
S11308A0181C04041C1818F8E000E0F8180084FC74
S11308B0F83C04001898D878381C1C18181880FCC8
S11308C07E0606007CFCC0C0FEFC06067EFC80C0E2
S11308D0C0FC7C00603030706060300000000000BC
S11308E00000FE020202020202FE1C101010101090
S11308F0101C11241FBECFE5D8E0DEBFCDBF14E02D
S1130900A0E6B0E0EAE4F4E402C005900D92A03958
S1130910B107D9F726E0A0E9B4E001C01D92A636DC
S1130920B207E1F70E94A11A0C9423220C94000050
S113093000C000C000C000C000C000C00000089596
S1130940A198A098A998A8980895A19AF1DF1DD01C
S11309500895A09AEDDFA198EBDFA098E9DFA19AB2
S1130960E7DF13D00895082EA19AE2DF802D0DD081
S1130970882311F002D0F8CF0895A09AA19AD8DF65
S1130980A098D6DFA198D4DF08950894881F01C0E9
S1130990880F59F0A09A18F40000A19802C0A19AF7
S11309A000C0C6DFA098C4DFF3CFA09AA198C0DF2F
S11309B0A098989BFECF8827999981E0B9DF992761
S11309C00895882701C081E071E0A09AA198B0DF62
S11309D0A098AEDF989BFECF889499990894771FCE
S11309E0A0F7A09A813011F0A19801C0A19AA0DFCC
S11309F0A098989BFECF9CDF872F99270895E0E667
S1130A00F0E090E390838EE281839283838321E3F9
S1130A102483958395E3968397E39783808721873F
S1130A2084E3828784871586CF010895EF92FF922D
S1130A301F93CF93DF93CDB7DEB76A970FB6F894C1
S1130A40DEBF0FBECDBFFB0101900020E9F7319757
S1130A50E61BF70B142F1E0F009719F16115710592
S1130A6011F17C011A821982FE01339688E1DF01BB
S1130A701D928A95E9F7CE0101960E946A21BE0172
S1130A806F5F7F4FC7010E947121009771F0FC01D5
S1130A90E10FF11D1082BC01C7010E946A2180E0B0
S1130AA005C08FEF03C08FEF01C08FEF6A960FB6BA
S1130AB0F894DEBF0FBECDBFDF91CF911F91FF90A1
S1130AC0EF900895CF93DF93CDB7DEB761970FB65C
S1130AD0F894DEBF0FBECDBF21E1E1E4F1E0DE0119
S1130AE0119601900D922A95E1F720E3FB012083F2
S1130AF028E72183FC01EF2FFF27E295EF7021E027
S1130B0030E02C0F3D1FE20FF31F2081FB012283F5
S1130B10E92FFF27EF70FF2721E030E02C0F3D1F66
S1130B20E20FF31F2081FB012383FC01F295E29580
S1130B30EF70EF27FF70EF27EF70FF2721E030E021
S1130B402C0F3D1FE20FF31F2081FB0124838F70C4
S1130B509927E1E0F0E0EC0FFD1FE80FF91F808119
S1130B60FB0185831682CB0161960FB6F894DEBF34
S1130B700FBECDBFDF91CF9108958AB3886F8ABB32
S1130B8084B3806E84BBBF9ABE9AA49A81B38C6FDF
S1130B9081BB84B38C6084BB87B3807F87BBD098D0
S1130BA0AC988AB3897F8ABB0895982F92959F70D9
S1130BB0990F292F220F220F920F8F70890F0895FA
S1130BC082EA0E94B30480E00E94C50480E00E948F
S1130BD0C5040E94BD0408950F931F93CF93DF9320
S1130BE0D82F162F042F82EA0E94B30482E00E94B9
S1130BF0C504CDEC0C9F912D112496959695969550
S1130C0020E1929FA0011124990F292F220F220F76
S1130C10920F802F891B842B0E94C5041C9F912D49
S1130C20112496959695969580E1989FA00111249C
S1130C30990F292F220F220F920F812F891B842BAA
S1130C400E94C504DC9FC12D1124C695C695C69586
S1130C5020E1C29FC0011124CC0F9C2F990F990F42
S1130C60C90FDC1B8D2B0E94C5040E94BD04DF91BB
S1130C70CF911F910F910895FF920F931F93CF93DC
S1130C80DF93F82E062F142FD22F82EA0E94B3048A
S1130C9085E00E94C504CDECFC9E912D112496950F
S1130CA09695969530E1939FA0011124990F292FD1
S1130CB0220F220F920F8F2D891B842B0E94C504B3
S1130CC00C9F912D112496959695969580E1989F69
S1130CD0A0011124990F292F220F220F920F802F88
S1130CE0891B842B0E94C5041C9F912D1124969569
S1130CF09695969530E1939FA0011124990F292F81
S1130D00220F220F920F812F891B842B0E94C5046E
S1130D1020E32D0F2C9FC12D1124C695C695C69591
S1130D2030E1C39FC0011124CC0F9C2F990F990F60
S1130D30C90F2C1B822B0E94C5040E94BD04DF91A5
S1130D40CF911F910F91FF900895CF93C82F82EAFE
S1130D500E94B3048DE00E94C5048C2F0E94C50438
S1130D600E94BD04CF910895CF93DF93EC0182EAF2
S1130D700E94B30482E00E94C50483EA0E94A9048D
S1130D80882319F00E94BD0443C00E94E3048883B1
S1130D900E94E30489830E94E3048A830E94E3049B
S1130DA08C830E94E3048D830E94E3048B830E945E
S1130DB0E30490E09F838E830E94E30488870E946B
S1130DC0E30489870E94E3048A870E94E1048B87F5
S1130DD00E94BD0488818F77888389818F77898376
S1130DE08A818F738A838C818F738C838B818F71BB
S1130DF08B838D8187708D8388858F77888789859C
S1130E008F7789878A858F778A878B858F778B877A
S1130E10DF91CF910895E0913205F0913305329638
S1130E209491899F802D11240895DF98DD9A98E08C
S1130E30DC98882314F4DB9A01C0DB98880FDC9AD1
S1130E409150B1F7DF9A0895DF98DD9898E0DC9827
S1130E50882314F4DB9A01C0DB98880FDC9A915044
S1130E60B1F7DF9A0895CF93C62F8F70806B0E94DD
S1130E7024078C2F82958F7080610E9424078C2F09
S1130E808F700E942407CF910895CF93DF93D0E011
S1130E9060E08D2F0E943307C0E080E00E941507B8
S1130EA0CF5FC038D1F7DF5FD83091F7DF91CF91B2
S1130EB008951F93CF93DF93182FD59AD79AD49A76
S1130EC0D39AD69ADF98DE98DE9AD1E0C0E002C0C9
S1130ED0CF5FDF5FCA3031F4112321F0812F0E94EC
S1130EE02407F6CFEC2FF0E0EE5AFE4F80810E94EB
S1130EF02407DE3068F30E944507DF91CF911F91EC
S1130F000895909333058093320508958F929F92AC
S1130F10AF92BF92CF92DF92EF92FF920F931F9303
S1130F20CF93DF93842EC0913205D0913305282FBF
S1130F3030E0FE0134968491281B3109FE01E20F52
S1130F40F31F38965491FE013696A491B0E0319681
S1130F5084918130E1F4215031090AF4DBC03497E3
S1130F60849186958695869590E001963197449173
S1130F70489FF001499FF00D112480E0AE0FBF1F80
S1130F808F5F082F10E020173107C4F7C3C0811109
S1130F90CEC0215031090AF4CAC040E0FE01E40F7A
S1130FA0F11D3896849190E0880F991FA80FB91FFE
S1130FB04F5F842F90E02817390784F7B8C0962E26
S1130FC0969496949694682D892D0E943307E09107
S1130FD03205F091330533968491A82EA694A694F5
S1130FE0A694B12C00E010E0C12CE12CF12CCFE24E
S1130FF0D5E0D12C9FEFA91AB90AA016B10659F071
S11310002A81209FC001219F900D1124E816F90622
S113101008F447C066C0893098F3209131052A9DB1
S1131020C0012B9D900D1124E816F90608F085C027
S1131030E501CC0FDD1FCC0FDD1FCC0FDD1F0FE250
S113104015E0D12CD80113964D915C911497ED9134
S1131050FC91E40FF51FEE0DFF1D249198E08D2DFA
S1131060322F30788695832B220F9150C9F7FA01DD
S1131070339694919E01291B310901C0880F2A954A
S1131080EAF70E941507BFEFEB1AFB0AF801228169
S11310902A9DC0012B9D900D1124E816F90690F2AB
S11310A04CC0EB81FC8188819981E80FF91FEE0D1A
S11310B0FF1D249198E08D2D322F30788695832B57
S11310C0220F9150C9F70E941507FFEFEF1AFF0A8C
S11310D02A81209FC001219F900D1124E816F90652
S11310E000F3682D892D8C190E943307C3940C2DAD
S11310F010E0EB81FC8133968491A82EA694A694EB
S1131100A694B12C95012E5F3F4F021713070CF4E0
S113111071CF13C08FE295E0FC01B183A0835283A9
S1131120FE0132962491DC0112962C9348CFEFE213
S1131130F5E0B183A083528342CFDF91CF911F9119
S11311400F91FF90EF90DF90CF90BF90AF909F9062
S11311508F900895CF92DF92EF92FF920F931F9397
S1131160CF93DF93FC0180818823F1F0C42ED62E27
S11311708F010F5F1F4FC0E0D0E00F2EFFE2EF2E74
S1131180F5E0FF2EF02D4C2F4C0D6D2D0E9486079F
S1131190F701228130E02F5F3F4FC20FD31FF801C8
S11311A081918F018111EFCFDF91CF911F910F9129
S11311B0FF90EF90DF90CF900895CF93C82F86953E
S11311C0869586950E943307C77081E001C0880F19
S11311D0CA95EAF70E941507CF9108951F93CF93FC
S11311E0DF93D82F142F87E08D1B0E943307112320
S11311F041F0C0E06C2F8D2F0E94DD08CF5F1C13DF
S1131200F9CFDF91CF911F910895FF920F931F9310
S1131210CF93DF934423F1F0C62F67E070E0681B9F
S11312207109F62EFF0CFF0CFF0CD42FDC0F0FE21C
S113123015E0D8011396ED91FC91149732964491E0
S1131240C49F402D11246F2D80E20E948607CF5F3A
S1131250CD13EFCFDF91CF911F910F91FF900895A0
S113126084E90E94B30481E20E94C50480E30E94E1
S1131270C50480EE0E94C50480E00E94C5040E945B
S1131280BD040895BC0180E090E00E94FD1F20E0B1
S113129030E04FE253E40E94902020E03FEF4FE71C
S11312A057E40E94551F20E030E044E352E40E94DA
S11312B0E81E0E94C71FCB0108951F93CF93DF93AD
S11312C010926E0085E90E94A904882341F0EEE69D
S11312D0F0E080818160808385E90E94B3040E94EC
S11312E0E304D82F0E94E304C82F0E94E104182FBE
S11312F00E94BD049FEF9D2788E027E0990F08F422
S113130092278A95D9F79C2788E027E0990F08F45B
S113131092278A95D9F7191304C08C2F90E09D2B3E
S113132007C0EEE6F0E080818260808388E692E484
S1131330DF91CF911F91089580916E00837031F0F9
S113134080917000082E000C990B08950E945D098D
S11313500E94420980937000082E000C990B089596
S11313601F920F920FB60F9211242F938F939F9376
S1131370EF93FF938BB12CB18871E0919204EF5FEE
S1131380EF7390919104E91739F0E0939204F0E03F
S1131390EB56FB4F208301C082E090919004892B8F
S11313A080939004FF91EF919F918F912F910F90D3
S11313B00FBE0F901F9018951F920F920FB60F92A9
S11313C011248F939F93EF93FF93909194048091B2
S11313D09304981761F0E0919304EF5FEF71E09349
S11313E09304F0E0EB52FB4F80818CB901C0559817
S11313F0FF91EF919F918F910F900FBE0F901F90CF
S113140018951092940410929304109292041092DE
S1131410910499231CF422E02BB99F7790BD89B9DC
S113142088E98AB986E880BD0895909192048091F4
S11314309104981781F0E0919104EF5FEF73E093CA
S11314409104F0E0EB56FB4F808190919004109250
S1131450900490E0089580E091E008952091940430
S11314602F5F2F71909193042917E1F3E22FF0E09D
S1131470EB52FB4F808320939404559A0895CF93A5
S1131480DF93EC018881882331F021960E942E0A93
S113149089918111FBCFDF91CF910895CF93DF9391
S11314A0EC01AB019B01329522952F7023273F70ED
S11314B02327A7E4B3E00E942721FC01F695E795D2
S11314C0F695E795F695E7959F01ADECBCEC0E9487
S11314D027219695879596958795969587959C014E
S11314E0220F331F880F991F880F991F880F991F88
S11314F0820F931FE81BF90BE05DE8839A01369590
S113150027953695279536952795A5ECB0E20E9448
S11315102721FC01F295E295EF70EF27FF70EF278A
S11315209F01ADECBCEC0E9427219695879596957A
S11315308795969587959C01220F331F880F991FD5
S1131540880F991F880F991F820F931FE81BF90BAF
S1131550E05DE9839A013695279536952795ABE7A3
S1131560B4E10E942721FC01F695E7959F01ADECBB
S1131570BCEC0E942721969587959695879596951C
S113158087959C01220F331F880F991F880F991F7D
S1131590880F991F820F931FE81BF90BE05DEA8304
S11315A09A010E942721FC01F695E795F695E795A7
S11315B0F695E7959F010E94272196958795969524
S11315C08795969587959C01220F331F880F991F45
S11315D0880F991F880F991F820F931F9F01281B43
S11315E0390BC901805D8B83CF01880F991FEE0FE2
S11315F0FF1FEE0FFF1FEE0FFF1FE80FF91F4E1B1B
S11316005F0B405D4C831D82DF91CF9108958093E1
S11316104905982F990F990F92BB807C90E095957E
S1131620879595958795959587959595879585BB88
S113163008958EB589608EBD89B7806189BF8AE2BD
S113164094E09BBD8ABD0895FC01608170E088E749
S113165090E00E944E0A809178008823D9F0E9E74F
S1131660F0E090E080538A3008F49F5F819181110B
S1131670F9CFA3E7B0E009C0913061F0E8E7F0E00A
S1131680818181938111FCCF915015968C9115978E
S1131690803391F3E3E7F0E001900020E9F731971C
S11316A08DE09AE091838083128283E790E008952D
S11316B0862798E027E088231CF4880F822701C03E
S11316C0880F9150C1F78093FC040895CF93DF9362
S11316D0EC010E94150A90FD32C0813021E092078E
S11316E020F01092FB0480E02BC09C0133272A30A9
S11316F0310519F02D30310549F48091FB04C80FF0
S1131700D11D18821092FB0481E01AC02091FB04C1
S1131710203420F01092FB0480E012C091E0920F7C
S11317209093FB04FE01E20FF11D8083C05CDF4F48
S11317308881998101969983888380E001C080E043
S1131740DF91CF9108951F93CF93DF93EC0140E095
S113175068E380E691E00E94AA0840E068E28EE631
S113176091E00E94AA0840E060E28BE791E00E94C9
S1131770AA0886E00E940B07182F0E94FF04412F3D
S113178060E20E94AA0840E068E181E891E00E94DA
S1131790AA0889E00E940B07482F68E1CE010E9445
S11317A0AA0840E060E189E891E00E94AA08DF917C
S11317B0CF911F910895DC019C919923B1F090532E
S11317C09A3058F003C090539A3048F0FB01838953
S11317D08460838B80E090E00895FD0131969191BF
S11317E09111F1CF8A2F9B2F08958A2F9B2F089553
S11317F0EF92FF920F931F93CF93DF93FC0101901D
S11318000020E9F7E950E81729F0FC0121812F7D38
S1131810273599F18B01EC017C01F2E0EF0EF11C0C
S113182064E375E0C7010E94DB0B009751F18981E5
S1131830873541F018F48235B1F022C0823799F02F
S11318408737F1F4B8016C5E7F4F46E050E0C70182
S11318500E940722E199FECFE0911605F091170549
S11318600995CE010EC0B8016C5E7F4F46E050E092
S1131870CE010E94C821CE0104C080E090E001C0E6
S1131880CE01DF91CF911F910F91FF90EF900895BA
S1131890EF92FF920F931F93CF93DF938C01EB0191
S11318A063E270E00E945F217C019A838983892B23
S11318B029F4F8016081611126C033C0F801608108
S11318C0633259F00F5F1F4F88810E94580B888341
S11318D0F80161918F016332B9F7E981FA81CF018F
S11318E001969A838983918188819817C1F08B81AD
S11318F09C8101969C838B830F2EF8E9EF2EF1E0F7
S1131900FF2EF02D0EC00F5F1F4F88810E94580BD1
S11319108883F80161918F016111F7CF02C0E12C36
S1131920F12CC701DF91CF911F910F91FF90EF90A0
S11319300895CF92DF92EF92FF920F931F93CF936C
S1131940DF93EC010E94660B882309F463C11092B3
S11319504A0544E163EA71E0CE010E941605811153
S113196043C16AE475E0CE010E94480C009721F05F
S11319700E943F0A81E05CC18981909138018913FA
S11319800CC0CE0102960E9436210E94070BE7E4A8
S1131990F5E080818068808341C190913B01891387
S11319A010C060E070E0CE0101960E94F80B009731
S11319B009F439C10E943F0A80EA91E00E943F0A7B
S11319C02DC190913A0189132CC0CE0102960E9438
S11319D036218C01CE0105960E9436217C01CE0170
S11319E008960E943621980133272831310510F0DA
S11319F020E030E0B70177276B33710510F060E029
S1131A0070E0AC0155274B33510510F040E050E035
S1131A10822F0E94EC05E7E4F5E0808180628083F8
S1131A20FDC09091390189133BC0CE0102960E94FA
S1131A3036218C01CE0105960E9436216C01CE011F
S1131A4008960E9436217C01CE010B960E94362115
S1131A50BC01980133272F31310510F020E030E02C
S1131A60822FA60155274C30510510F040E050E07C
S1131A70FF2493E6E916F10410F0E12CF12C77270A
S1131A806730710510F060E070E097012053384F23
S1131A900E943C06E7E4F5E0808180618083BEC05B
S1131AA090913C0189134FC089E1EDEFF4E0DF012F
S1131AB01D928A95E9F78A8190913E01891319C094
S1131AC040E150E064E070E0CF010E94C821ADEF36
S1131AD0B4E00D900020E9F7119783E0E0EAF1E02B
S1131AE001900D928A95E1F78DEF94E00E943F0AF0
S1131AF095C090913F01891377C02396FE01019010
S1131B000020E9F73197BF016C1B7D0B603108F0B1
S1131B1083C0E7E4F5E080818860808383E090E01F
S1131B200E94F621E199FECF40E150E064E070E0CC
S1131B30CE010E94E621E199FECFE0911605F091D5
S1131B401705099551C090913D01891349C08A81B7
S1131B5090913E01891332C0609147067091480606
S1131B608DEF94E00E944E0A8091FD048823C9F011
S1131B70EEEFF4E090E080538A3008F49F5F8191A7
S1131B808111F9CFADEFB4E009C0913051F0EDEF20
S1131B90F4E0818181938111FCCF91508C91803349
S1131BA0A1F385EA91E00E943F0A8DEF94E00E9440
S1131BB03F0A80EA91E00E943F0A30C090914001C0
S1131BC0891312C060E070E081E090E00E941E2260
S1131BD0E199FECFE0911605F0911705099504C02F
S1131BE081EB91E00E943F0AEDEFF4E08DE09AE092
S1131BF09183808312828AE495E00E94240BBC01C5
S1131C008DEF94E00E9454218DEF94E00E943F0AEE
S1131C1080E00EC080E00CC081E00AC082EC91E05C
S1131C200E943F0AE1CF85EC91E00E943F0ADCCF9D
S1131C30DF91CF911F910F91FF90EF90DF90CF90A4
S1131C4008954F925F927F928F92AF92BF92CF92FC
S1131C50DF92EF92FF921F93CF93DF937C0183E592
S1131C6095E00E94B406C3E5D5E08A810E94D505BB
S1131C70F701808389810E94D505F70181838881DA
S1131C800E94D505F7018283270110E0C5E2D1E067
S1131C90712C812CCC24C394D12C188A52018889AC
S1131CA0F2019081890F80838889882359F0188AEA
S1131CB070926406809265061130A1F048F01230EB
S1131CC0D9F088C0113071F018F01230A9F01DC09D
S1131CD0F501808190E08831910508F0872DF501A8
S1131CE0808313C0F501808190E08B33910508F067
S1131CF0872DF501808309C0F501808190E08B3345
S1131D00910508F0872DF5018083809164069091F8
S1131D1065069C012F5F3F4F309365062093640650
S1131D208039914058F4F7014281618180810E9499
S1131D30271D43E260E20E94AA0829C029353240E7
S1131D4030F1113079F018F01230B9F020C0F701F9
S1131D50428161818FEF0E94271D43E260E20E946D
S1131D60AA0815C0F70142816FEF80810E94271DE8
S1131D7043E260E20E94AA080AC04FEFF7016181C2
S1131D8080810E94271D43E260E20E94AA0880919C
S1131D906406909165068032F3E09F0710F0872D6A
S1131DA0982D9093650680936406B49978CF2FE7B5
S1131DB048E381E0215040408040E1F700C000004A
S1131DC0B49BFECF1F5F9FEF491A590A133009F0E5
S1131DD064CF05C0D0926506C0926406A4CF80E0AB
S1131DE0DF91CF911F91FF90EF90DF90CF90BF9044
S1131DF0AF908F907F905F904F9008954F925F9235
S1131E007F928F92AF92BF92CF92DF92EF92FF9226
S1131E101F93CF93DF937C0183E595E00E94B40682
S1131E20C3E5D5E08C810E94D505F70180838B81C1
S1131E300E94D505F70181838E810E94D505F701A3
S1131E4082838D810E94D505F7018383270110E0E9
S1131E50C5E2D1E0712C812CAA24A394B12CC7C073
S1131E608889F2019081890F80838889882369F0A9
S1131E70188A70926406809265061130C1F068F089
S1131E801230F9F0133039F1B4C0113081F028F078
S1131E901230B9F01330F9F027C0F601808190E0D8
S1131EA08F31910508F0872DF60180831DC0F6015E
S1131EB0808190E08C30910508F0872DF6018083B5
S1131EC013C0F601808190E08336910508F0872DD8
S1131ED0F601808309C0F601808190E08730910586
S1131EE008F0872DF6018083809164069091650641
S1131EF09C012F5F3F4F3093650620936406883C16
S1131F00910578F4F701428150E04053584F238102
S1131F10618180810E94191E49E160E20E94AA0841
S1131F2045C02139314008F441C01130A9F028F0EE
S1131F30123009F1133061F139C0F701428150E0E8
S1131F404053584F238161818FEF0E94191E49E14C
S1131F5060E20E94AA082AC0F701428150E040537F
S1131F60584F23816FEF80810E94191E49E160E27E
S1131F700E94AA081BC0F70123814FEF5FEF618124
S1131F8080810E94191E49E160E20E94AA080EC0E5
S1131F90F701428150E04053584F2FEF6181808117
S1131FA00E94191E49E160E20E94AA088091640619
S1131FB0909165068835F2E09F0710F0872D982DE3
S1131FC09093650680936406B4994ACF2FE788E31B
S1131FD091E0215080409040E1F700C00000B49BA4
S1131FE0FECF1F5FEFEF4E1A5E0A143039F0620124
S1131FF037CFB0926506A092640684CF80E0DF916B
S1132000CF911F91FF90EF90DF90CF90BF90AF9052
S11320108F907F905F904F900895CF92DF92EF92D0
S1132020FF921F93CF93DF93182F6B01809172005F
S11320309FEF980F90937200FB0101900020E9F745
S11320403197E61BF70B082E000C990BFF27E1953F
S11320500CF4F095E817F9071CF08AE180937200FC
S113206060E087E0811B0E9433078091720088231F
S11320700CF460C018160CF0B8C0EE24E394F12CF4
S1132080C1E001C0CD2F8FEF8C0F0E940B07482FAA
S1132090612F80E20E948607D1E0DC0F80917200FC
S11320A0082E000C990BE816F90654F0F60180810D
S11320B0882321F192E09C0FDA3150F0D92F1EC011
S11320C0FFEFEF1AFF0ADA31E9F6F0CF92E0C0E051
S11320D07601D92F8C2FDD24DA94D90EDC1AC1E0D5
S11320E0C80F0E940B07482F612FF70181917F01D0
S11320F00E948607F7018081811103C0DA3140F024
S11321007BC0DF5F8C2F9D2D9C0F9A3140F3F6CF5F
S11321108AE18C0FF82EFD1AD1E0DC0F8C2F0E947F
S11321200B07482F612F80E20E948607CD2FFD12F6
S1132130F3CF62C0F60101900020E9F73197EC1962
S1132140FD09E80FF11D87FDFA95EF2B71F480E08E
S1132150C1E0C80F0E940B07482F612F80E20E9444
S113216086078C2FCA31A1F747C0082E000C990BA3
S113217099231CF4919581959109D82F7601E80E45
S1132180F11CF70180818823E9F0C1E08FEF8C0F07
S11321900E940B07482F612FF70180810E94860758
S11321A08D2F8C0F7601E80EF11CF70180818111CF
S11321B005C0D1E0DC0FCA3138F01EC0CF5FCB318F
S11321C029F71AC0D1E0C0E08C2FD150DC1BC1E04C
S11321D0C80F0E940B07482F612F80E20E948607D8
S11321E08C2FCD0FCA3198F307C0F601808181117D
S11321F06DCFD1E0C0E08CCFDF91CF911F91FF90E4
S1132200EF90DF90CF900895DC01FB019CE7908371
S11322108C9181839283938311968C9111978483FB
S11322209583968312968C911297878390879187D2
S113223013968C91828793871486CB0108957F929D
S11322408F929F92AF92BF92CF92DF92EF92FF92C2
S11322500F931F93CF93DF935C016B017A018CEB97
S113226093E00E948107F601808982301CF481E0AA
S1132270808B0DC0082E000C990B97012150310959
S11322802817390720F48FEF8E0DF601808BF601A5
S1132290C089C3508C2F0C2E000C990B05968E15FB
S11322A09F0510F0CBEFCE0DCC230CF4C0E040E042
S11322B068E3F501808191810E94AA0840E860E00A
S11322C085E30E94EE080F2EF8E28F2EF02DD5E064
S11322D0712C0F2EF6E09F2EF02D9C0E60E08D2FBA
S11322E00E943307C3E880E00E941507C150D9F764
S11322F0892D8D1B082F10E00E151F05A0F5F60182
S11323002089C801422F022E000C550B8417950713
S1132310D1F4722E40E0682D8AEC91E00E94AA0864
S113232082E00E940B07F801EE0FFF1FEE0FFF1F64
S1132330E00FF11FEA0DFB1D482F682D808191816C
S11323400E94AA0810C0F801EE0FFF1FEE0FFF1F36
S11323500E0F1F1FF501E00FF11F40E0682D808173
S113236091810E94AA08D150F8EF8F0ED13009F064
S1132370B5CF40E860E08AE00E94EE0840E060E00B
S113238080E691E00E94AA08B49929C0B49BFECFCC
S11323900E9445072FEF80E792E021508040904053
S11323A0E1F700C00000872D90E0EC01CC0FDD1FA9
S11323B0CC0FDD1F8C0F9D1FE501C80FD91F8A812B
S11323C09B81892B31F0F601108A8A819B81FC0163
S11323D009950E9445078C81F601808BC72D8C2FAF
S11323E0DF91CF911F910F91FF90EF90DF90CF90ED
S11323F0BF90AF909F908F907F90089544E050E0FD
S113240065E271E084EA90E00E941F118823B1F331
S1132410089545E050E065E271E088EB90E00E94A9
S11324201F118823B1F308951092350144E050E060
S113243065E271E081E890E00E941F118823B1F306
S113244008950E941412813059F4E1E4F5E080818A
S11324508160808361E08DE190E00E94F6210CC0F0
S1132460823051F4E1E4F5E080818E7F808360E086
S11324708DE190E00E94F62180E008950E941412FC
S11324808130B1F40E94450740E060E28DEC91E0B8
S11324900E94AA082FEF8FE097E2215080409040DD
S11324A0E1F700C00000E0911605F09117050995C9
S11324B080E00895EF92FF920F931F93CF93DF93E1
S11324C08C01EB01E42EF22E0E9445070115110543
S11324D051F04E2D68E3C8010E94AA0840E860E06C
S11324E086E30E94EE08209751F040E860E08AE01D
S11324F00E94EE084F2D60E0CE010E94AA0880E001
S1132500DF91CF911F910F91FF90EF90089520E0FC
S113251040E066ED71E08BEE91E00E945A128DEF7F
S113252094E00E94FE0E0E941412813061F4EDEFDB
S1132530F4E0228130E02053384F63816F5F4181A2
S113254080810E943C0680E0089520E040E066ED32
S113255071E081EF91E00E945A128DEF94E00E94A5
S1132560210E0E941412813039F4EDEFF4E042811F
S1132570618180810E94EC0580E008958F929F9292
S1132580AF92BF92CF92DF92EF92FF920F931F937D
S1132590CF93DF9320E040E066ED71E08AEB93E0B7
S11325A00E945A128CE190E00E94D821C5E2D1E049
S11325B0888B84EA92E00E948107A8886E01812CAE
S11325C0912C01E211E0CDEFD4E00F2EFAE2EF2ED0
S11325D0F12CF02DF6018089082E000C990B99231B
S11325E00CF4882DF601808B8089082E000C990B41
S11325F08436910508F0882DF601808BB088808997
S1132600F8018083F6018089F8018183F6018089CD
S1132610F8018283F6016089062E000C770BCE0147
S11326200E944E0A88818823B9F0EEEFF4E090E02E
S113263080538A3008F49F5F81918111F9CF09C0DA
S1132640913051F0EDEFF4E0818181938111FCCF61
S1132650915088818033A1F3FE0101900020E9F7B5
S11326603197F182E08287E00E940B07482F60E2F5
S1132670CE010E94AA08B499ADCFFFE728E381E018
S1132680F15020408040E1F700C00000B49BFECF31
S11326900E941412813031F46B2D8CE190E00E9481
S11326A0F62107C0823029F4E1E2F1E0A082A182A0
S11326B0A28280E0DF91CF911F910F91FF90EF9064
S11326C0DF90CF90BF90AF909F908F900895CF925E
S11326D0DF92EF92FF920F931F93CF93DF9320E04B
S11326E040E066ED71E089EF91E00E945A128BE1BF
S11326F090E00E94D821E5E2F1E0808BC08884EA72
S113270092E00E94810705E211E0D12CE12CCDEF8B
S1132710D4E0F8018089082E000C990B83329105CE
S113272014F483E290E0F801808B8089082E000C79
S1132730990B8033910508F08D2DF801808BF0887A
S11327406089062E000C770BCE010E944E0A888108
S11327508823B9F0EEEFF4E090E080538A3008F477
S11327609F5F81918111F9CF09C0913051F0EDEF54
S1132770F4E0818181938111FCCF91508881803371
S1132780A1F387E00E940B07482F60E2CE010E946C
S1132790AA0881E80E942407F80180890E9424077E
S11327A0B499B7CFFFE728E381E0F150204080409F
S11327B0E1F700C00000B49BFECF0E9414128130E8
S11327C031F46F2D8BE190E00E94F62108C0823035
S11327D031F481E80E9424078C2D0E94240780E0B4
S11327E0DF91CF911F910F91FF90EF90DF90CF90E9
S11327F0089520E040E066ED71E082E092E00E94FE
S11328005A1284EA92E00E94810784E00E940B0736
S1132810482F60E28AE596E00E94AA08B499FECFA8
S11328202FE788E391E0215080409040E1F700C019
S11328300000B49BFECF80E0089520E040E066ED08
S113284071E080E090E00E945A1260E087E00E940C
S113285033078AE596E00E94A30BB499FECF2FE7D5
S113286088E391E0215080409040E1F700C00000EF
S1132870B49BFECF80E0089520E040E069E072E080
S11328808EE092E00E945A1240E068E287E192E012
S11328900E94AA0840E060E280E292E00E94AA0856
S11328A040E068E182E392E00E94AA0840E060E12F
S11328B080E292E00E94AA08B499FECF2FE788E351
S11328C091E0215080409040E1F700C00000B49BAB
S11328D0FECF80E0089520E040E069E072E08AE302
S11328E092E00E945A1240E060E280E292E00E948C
S11328F0AA08B499FECF2FE788E391E021508040E5
S11329009040E1F700C00000B49BFECF80E0089542
S1132910CF92DF92EF92FF920F931F93CF93DF93A7
S113292020E040E066ED71E081E492E00E945A12FA
S1132930CDEFD4E00F2EFAE4CF2EF5E0DF2EF02D0C
S11329400F2EF4E4EF2EF6E0FF2EF02D02E416E055
S11329508AE0E2E5F2E0DE0101900D928A95E1F76A
S1132960F6016381748186E095E00E944E0A8985B0
S11329708823B9F0E7E0F5E090E080538A3008F46A
S11329809F5F81918111F9CF09C0913051F0E6E048
S1132990F5E0818181938111FCCF91508985803349
S11329A0A1F340E068E2CE010E94AA0885E0ECE5CC
S11329B0F2E0DE0101900D928A95E1F7F701608162
S11329C0718181E095E00E944E0A8C818823B9F0E0
S11329D0E2E0F5E090E080538A3008F49F5F819153
S11329E08111F9CF09C0913051F0E1E0F5E0818126
S11329F081938111FCCF91508C818033A1F340E00D
S1132A0068E1CE010E94AA0885E0E1E6F2E0DE0179
S1132A1001900D928A95E1F7F8016081718181E05E
S1132A2095E00E944E0A8C818823B9F0E2E0F5E03B
S1132A3090E080538A3008F49F5F81918111F9CF2F
S1132A4009C0913051F0E1E0F5E081818193811179
S1132A50FCCF91508C818033A1F340E060E1CE0142
S1132A600E94AA0882E096E00E94990CB49970CF63
S1132A70FFE728E381E0F15020408040E1F700C007
S1132A800000B49BFECF80E0DF91CF911F910F91A6
S1132A90FF90EF90DF90CF9008952F923F924F9246
S1132AA05F926F927F928F929F92AF92BF92CF92DA
S1132AB0DF92EF92FF920F931F93CF93DF9300D097
S1132AC000D0CDB7DEB720E040E066ED71E086E6E9
S1132AD092E00E945A121A8219821C821B82F12CE3
S1132AE010E0412C512C32010F2EFEE6AF2EF0E007
S1132AF0BF2EF02D0F2EFDE08F2EF1E09F2EF02D36
S1132B0022242394312C00E001C0182F80914F051A
S1132B1090915005A0915105B09152058135934C87
S1132B20A105B105B0F183E595E00E94B4060E94C9
S1132B309C09F50182839181891784F48183F401CE
S1132B408083E3E5F5E04081618182810E94071D75
S1132B50BC018EE091E00E946A2113C0F5019381CB
S1132B6098177CF48383F4018287E3E5F5E04081E0
S1132B70618182810E94071DBC0188E191E00E946D
S1132B806A2110924F05109250051092510510922F
S1132B9052051F1551F040E160E082E00E940509F2
S1132BA040E160E084E00E94050973016201FFEFE7
S1132BB0CF1ADF0AEF0AFF0A24E642165104610421
S1132BC0710408F05BC08CEB93E00E94810780E005
S1132BD00E940B07482F68E281E792E00E94AA084E
S1132BE084EA92E00E94810744E060E084E00E946D
S1132BF0050980E00E940B07782EF50181814AE0E7
S1132C00BE016F5F7F4F082E000C990B0E948B2131
S1132C10472D68E10E94AA0844E066E084E00E942F
S1132C20050986E00E940B07782EF50182814AE0AF
S1132C30BE016F5F7F4F082E000C990B0E948B2101
S1132C40472D68E10E94AA0844E06CE084E00E94F9
S1132C5005098CE00E940B07782EF50183814AE078
S1132C60BE016F5F7F4F082E000C990B0E948B21D1
S1132C70472D68E10E94AA0880E05EC0F5E6CF1601
S1132C80D104E104F10408F456C08CEB93E00E94F3
S1132C90810740E068E287E892E00E94AA0884EA9B
S1132CA092E00E94810782E00E940B07782EF401D3
S1132CB080814AE0BE016F5F7F4F082E000C990BA4
S1132CC00E948B21472D68E20E94AA0887E00E9497
S1132CD00B07482F68E28EE091E00E94AA088CEB73
S1132CE093E00E94810740E068E18AE892E00E9454
S1132CF0AA0884EA92E00E94810782E00E940B07FE
S1132D00782EF40182854AE0BE016F5F7F4F082E62
S1132D10000C990B0E948B21472D68E10E94AA08A0
S1132D2087E00E940B07482F68E188E191E00E9448
S1132D30AA08822D01C0812FFCE2CF16F1E0DF0644
S1132D4010F0C32CD02E2601612C712CF12EB499D5
S1132D50DCCE2FE788E391E0215080409040E1F7FA
S1132D6000C00000B49BFECF80E00F900F900F9046
S1132D700F90DF91CF911F910F91FF90EF90DF9013
S1132D80CF90BF90AF909F908F907F906F905F9007
S1132D904F903F902F9008952F923F924F925F92C1
S1132DA06F927F928F929F92AF92BF92CF92DF9257
S1132DB0EF92FF920F931F93CF93DF9300D000D035
S1132DC000D0CDB7DEB785E0EBE3F3E0DE0111968A
S1132DD001900D928A95E1F720E040E066ED71E004
S1132DE082E992E00E945A128091340581FF11C059
S1132DF040E060E28BE992E00E94AA082FEF8DE3A5
S1132E0099E4215080409040E1F700C000001E8208
S1132E1098C0DE0111966D01A12CB12C0F2EF5E2A4
S1132E20EF2EF1E0FF2EF02D4D01212C512C3C2CE6
S1132E30492CD70150961C926A2C7B2C062D172DF9
S1132E40D7015096EC9150970E2E000CFF0BEA55CB
S1132E50FD4F8081F601808350968C91082E000CE2
S1132E60990B8E33910508F0822DD70150968C93DF
S1132E706DEF74E0832D942D0E94041149E160E20A
S1132E800E94AA0886B3B82FB071BE8384FDD6CF42
S1132E90EFE7F8E321E0E150F0402040E1F700C023
S1132EA00000B49BFECFD801AC5CBA4FF401E00F34
S1132EB0F11F80811E968C938AE280839FEFA91A6A
S1132EC0B90AAFEFCA1ADA0AB4E0AB16B10409F0D2
S1132ED0B0CFA2E4B5E0EDE8F2E021E932E010E0A1
S1132EE09D918191981301C01F5FE217F307C1F709
S1132EF040E060E285EE92E00E94AA08143031F4CA
S1132F00E4E3F5E08081826080831BC0E4E3F5E0C4
S1132F1080818D7F808340E060E28FE293E00E94B5
S1132F20AA08E7E4F5E0808182608083EFEFFEE9A0
S1132F3024E2E150F0402040E1F700C0000081E0CD
S1132F408E838E8126960FB6F894DEBF0FBECDBF5A
S1132F50DF91CF911F910F91FF90EF90DF90CF9071
S1132F60BF90AF909F908F907F906F905F904F90A5
S1132F703F902F9008952F923F924F925F926F92BD
S1132F807F928F929F92AF92BF92CF92DF92EF92F5
S1132F90FF920F931F93CF93DF938091340581FDAC
S1132FA006C00E94CC168091340581FFE4C020E065
S1132FB040E066ED71E080E493E00E945A12809153
S1132FC04905809335010F2EF5E26F2EF1E07F2E37
S1132FD0F02D0DEF14E0302E412E0F2EF9E12F2E9F
S1132FE0F02D0F2EFCE7AF2EFDE2BF2EF02D0F2E9D
S1132FF0FCE7CF2ED12CF02D0F2EFAE8EF2EF0E0C7
S1133000FF2EF02DF30150888089082E000C990BB7
S113301099230CF480E0F301808B8089082E000C46
S1133020990B8F3F910508F080E0F301808B652DAB
S113303070E0C8010E944E0AF80180818823C1F023
S1133040EEEFF4E090E080538A3008F49F5F8191C2
S11330508111F9CF09C0913059F0EDEFF4E081818D
S113306081938111FCCF9150F8018081803399F3D1
S113307040E068E287E493E00E94AA08F801019026
S11330800020E9F7319780E290E2918380831282F5
S113309082E10E940B07482F68E2C8010E94AA0837
S11330A0852D0E94070BF801222D11922A95E9F72C
S11330B00F2EFAE78F2EF0E09F2EF02DC2E8D0E01D
S11330C050FE08C0F40165917591832D942D0E94E2
S11330D0542109C0F80101900020E9F73197B18229
S11330E0A082D382C2825694F2E08F0E911C8C1679
S11330F09D0631F784E00E940B07482F68E1C80160
S11331000E94AA08F801222D11922A95E9F750FE8F
S113311008C0FE0165917591832D942D0E94542160
S113312009C0F80101900020E9F73197B182A0822B
S1133130D382C28256942296CE15DF0541F784E0ED
S11331400E940B07482F60E1C8010E94AA08B499A5
S113315059CFFFE728E381E0F15020408040E1F7B8
S113316000C00000B49BFECFE4E3F5E080818D7FD6
S113317080831092350180E0DF91CF911F910F91F0
S1133180FF90EF90DF90CF90BF90AF909F908F9083
S11331907F906F905F904F903F902F900895CF93C2
S11331A0DF93EC018AE0E8E5F3E0DE0101900D92A3
S11331B08A95E1F70E94FF04BC01CE010E945421CC
S11331C0FE0101900020E9F7319720E23CE73183CA
S11331D0208380E290E093838283DE010D900020BF
S11331E0E9F711974FE0E9E8F1E001900D924A9573
S11331F0E1F7FE0101900020E9F731973183208344
S113320093838283FE0101900020E9F7EC1BCF55E4
S1133210DF4FE250E883DF91CF910895CF93DF939E
S1133220EC019B01FC01EF55FF4F8081DE01A80FEB
S1133230B11D9AE0E2E6F3E001900D929A95E1F770
S11332406DEF74E0C9010E946205BC01CE010E94C9
S11332505421DE010D900020E9F7119785E0ECE69A
S1133260F3E001900D928A95E1F7FE0101900020B0
S1133270E9F7EC1BC056DF4FE250E883DF91CF91B2
S11332800895CF92DF92EF92FF920F931F93CF9303
S1133290DF93EC0183E595E00E94B40603E515E0B5
S11332A0F8014081618182810E94071DBC01FE01F9
S11332B0E056FF4F90819E01290F311DC9010E94E4
S11332C06A21FE0101900020E9F731970F2EF0E208
S11332D0CF2EFCE7DF2EF02DD182C0826894EE243D
S11332E0E5F8F12CF382E282F801468157814053DC
S11332F0584F2581638184810E94861DBC01CE01C3
S11333000E945421FE0101900020E9F73197D182F7
S1133310C082F382E282FE0101900020E9F7EC1BF7
S1133320CE55DF4FE250E883DF91CF911F910F918B
S1133330FF90EF90DF90CF9008951F93CF93DF938A
S1133340142FC82FD92FFE0101900020E9F7CF01D7
S113335001970E946A21112361F009900020E9F786
S113336021978BE29BE2998388838BE290E09B8395
S11333708A83DF91CF911F910895CF93DF93EC015E
S113338062E34C960E941122E199FECF63E2CE01E2
S11333904B960E941122E199FECF60E1CE01039683
S11333A00E941122E199FECF40E150E0BE016C5F22
S11333B07F4F81E793E00E940722E199FECF47E027
S11333C050E0BE016C5E7F4F8AE793E00E940722C3
S11333D0E199FECF60E070E0CE0101960E941E22CA
S11333E0E199FECF61E0CE014D960E9411226CE37B
S11333F0CE010E941122E199FECFDF91CF91089571
S1133400CF930E94CC16811121C01092350143E064
S113341050E065E271E085E990E00E941F11C82F39
S11334208823A9F3813019F0823029F011C00E9459
S1133430BB178C2F0DC080E090E00E94BD19E09175
S11334401605F091170509958C2F02C081E000C084
S1133450CF910895EF92FF920F931F93CF93DF9331
S1133460EC018B01F8940E94D821F80180838C33FD
S113347041F0CE010E94BD19B801CE010E942A1A62
S11334803BC0CE014B960E94D821F801838FCE0118
S11334904C960E94D821F801848FCE0103960E9495
S11334A0D821F8018383BE016C5E7F4F47E050E072
S11334B0C80144960E94C821F801438150E0BE012E
S11334C06C5F7F4FC80104960E94C8217E01FFEF04
S11334D0EF1AFF0AC7010E94E021BC016F5F7F4F12
S11334E0F80172836183C7010E941E22CE014D96AA
S11334F00E94D821F801858F7894DF91CF911F9194
S11335000F91FF90EF90089580E691E00E943F0AAA
S113351080EA91E00E943F0A8EE691E00E943F0A11
S113352080EA91E00E943F0A89E891E00E943F0A04
S113353080EA91E00E943F0A0E94FF040E943F0A31
S113354008950E94BD0587E690E00E94010A0E944A
S1133550A0040E94E00583E80E94A5060E94190BBE
S11335600E943009789466E476E080E090E00E945E
S11335702A1A809161060E9459078CEB90E00E9400
S1133580810764E375E08AE596E00E94DB0B00970F
S113359019F00E94A30B04C085EC91E00E94A30BD8
S11335A02FEF83ED90E3215080409040E1F700C07D
S11335B000008FE595E00E94CF180E944507C6E4FD
S11335C0D6E08C8DE1E2F1E08083818382830E94E6
S11335D0841A0E944507E1E4F5E080819D8D90FB0B
S11335E080F980834CE050E065E271E081ED90E089
S11335F00E941F118C30B1F7C4E3D5E00EE610E051
S11336000F2EFDE0EF2EF1E0FF2EF02D89819A813F
S1133610AB81BC8189389341A105B10530F1198290
S11336201A821B821C824FE760E08AE00E94EE0847
S11336306B897C898FE595E00E940E198FE595E0F2
S11336400E94411940E061E873E08FE595E00E9433
S11336509D1941E06AE476E08FE595E00E949D19AA
S11336606FE575E087E00E940D1080914F05909101
S11336705005A0915105B09152058135934CA10597
S1133680B105B0F183E595E00E94B4060E949C095F
S1133690F80182839181891784F48183F7018083FF
S11336A0E3E5F5E04081618182810E94071DBC0150
S11336B08EE091E00E946A2113C0F801938198176B
S11336C07CF48383F7018287E3E5F5E0408161813F
S11336D082810E94071DBC0188E191E00E946A2159
S11336E010924F05109250051092510510925205F8
S11336F082E096E00E94990C89CF1F920F920FB638
S11337000F9211242F933F934F935F936F937F9363
S11337108F939F93AF93BF93EF93FF9380914F0544
S113372090915005A0915105B09152050196A11DAB
S1133730B11D80934F0590935005A0935105B0930C
S11337405205E4E3F5E081819281A381B48101967D
S1133750A11DB11D81839283A383B4838581968146
S1133760A781B0850196A11DB11D85839683A7838A
S1133770B0878091F7049091F804A091F904B09176
S1133780FA040196A11DB11D803127E2920708F0C9
S113379017C1AA27BB278093F7049093F804A0933A
S11337A0F904B093FA04893C9105A105B10510F41C
S11337B0C79824C0AC01BD01405951406109710949
S11337C0493C51056105710510F4C79A17C0AC0155
S11337D0BD01485E53406109710941395140610599
S11337E0710510F4C7980AC080549640A109B10924
S11337F0893C9105A105B10508F4C79AE5E2F1E019
S1133800818924E08202C00111248F70818BC99BBD
S113381003C081898260818BCA9B05C0E5E2F1E027
S113382081898160818BA5E2B1E05196EC91519739
S11338300E2E000CFF0BEB5DFE4F808150969C9189
S11338405097890F50968C938091F604843618F023
S11338501092F60403C08F5F8093F60490912101C7
S11338608091F604891710F0AD9801C0AD9A90913B
S113387022018091F604891710F0AE9801C0AE9A27
S1133880909123018091F604891710F0AF9801C03C
S1133890AF9A909135018091F504981791F0809139
S11338A035018093F5041092390510923A0510926F
S11338B03B0510923C05E4E2F1E080818160808365
S11338C031C06091390570913A0580913B05909122
S11338D03C050E94FD1F20E034E244E759E40E94C5
S11338E08B201816FCF48091410580FF72C0E4E23D
S11338F0F1E080818E7F8083E4E3F5E08185928529
S1133900A385B485AC01BD014F5F5F4F6F4F7F4FFF
S11339104187528763877487893C9105A105B10566
S1133920D8F464C0E4E3F5E081859285A385B48589
S1133930AC01BD014F5F5F4F6F4F7F4F418752878F
S113394063877487893C9105A105B10508F44EC0CD
S11339508091410580FF4AC08091240180FF12C0FC
S11339609091210180916206981708F5E1E2F1E057
S113397080818F5F808381818F5F818382818F5F6C
S1133980828315C080912101882361F0E1E2F1E096
S113399080818150808381818150818382818150A3
S11339A0828305C0E4E2F1E080818E7F80831092FF
S11339B03D0510923E0510923F051092400516C039
S11339C01092F7041092F8041092F9041092FA0479
S11339D0EFCEE4E3F5E081859285A385B485019675
S11339E0A11DB11D81879287A387B487FF91EF91B1
S11339F0BF91AF919F918F917F916F915F914F9103
S1133A003F912F910F900FBE0F901F901895E6E2F3
S1133A10F5E0982F92959F70905D90838F70805DF4
S1133A2081839AE39283862F82958F70805D83834E
S1133A306F70605D64839583842F82958F70805D41
S1133A4086834F70405D47831086CF0108958F3F72
S1133A5031F4E6E2F5E088E78083818314C0E6E28E
S1133A60F5E09DEC899F912D112496959695969558
S1133A7020E3290F2083990F292F220F220F920F61
S1133A80891B805D81838AE3809328056F3F31F42D
S1133A90E6E2F5E088E78383848314C0E6E2F5E098
S1133AA08DEC689F812D112486958695869590E3EB
S1133AB0980F9383880F982F990F990F890F681B7C
S1133AC0605D64838AE380932B054F3F31F4E6E223
S1133AD0F5E088E78683878314C0E6E2F5E08DECA1
S1133AE0489F812D112486958695869590E3980F9D
S1133AF09683880F982F990F990F890F481B405D63
S1133B00478310922E0586E295E00895CF93DF93C4
S1133B10E22FC8E1D5E0982F92959F70905D98832D
S1133B208F70805D89839EE29A83862F82958F7041
S1133B30805D8B836F70605D6C839D839A01369585
S1133B4027953695279536952795A5ECB0E20E94E2
S1133B502721929582958F7089279F70892720E36A
S1133B60280F2E8368EE73E0869F9001879F300DA7
S1133B70969F300D1124421B530B89E2489F812DDF
S1133B80112482958F7090E3980F9F8394E6899F08
S1133B9040191124842F82958F70805D88874F701F
S1133BA0405D498780E28A878E2F90E0FC0131973F
S1133BB0E730F105A8F5E65DFF4F0C942121E8E11B
S1133BC0F5E083E583878FE684872CC0E8E1F5E0A0
S1133BD08DE483878FE6848725C0E8E1F5E084E4FB
S1133BE0838789E684871EC0E8E1F5E08DE4838756
S1133BF089E6848717C0E8E1F5E084E483878FE6EB
S1133C00848710C0E8E1F5E086E4838782E784874F
S1133C1009C0E8E1F5E083E5838781E6848702C093
S1133C20109222051092250588E195E0DF91CF914D
S1133C300895CF93DF93E22F8F3F39F4A8E1B5E0E5
S1133C4088E78C9311968C9315C0A8E1B5E09DECA0
S1133C50899F912D112496959695969520E3290F89
S1133C602C93990F292F220F220F920F891B805D0D
S1133C7011968C938EE280931A056F3F49F4A8E164
S1133C80B5E088E713968C93139714968C9317C01A
S1133C90A8E1B5E08DEC689F812D11248695869569
S1133CA0869590E3980F13969C931397880F982FFB
S1133CB0990F990F890F681B605D14966C93A8E1A6
S1133CC0B5E08EE215968C93159782E316968C9345
S1133CD0169780E317968C9317974F3F8FEF5807EB
S1133CE039F488E718968C93189719968C9321C009
S1133CF0405D5740C8E1D5E09A01ADECBCEC0E94B0
S1133D00272196958795969587959695879520E38F
S1133D10280F28879C01220F331F880F991F880FB3
S1133D20991F880F991F820F931F481B590B405DE1
S1133D30498780E280932205E33011F120F4E130D9
S1133D4089F048F016C0E53049F108F1E63069F130
S1133D50EF3F91F136C0E8E1F5E083E583878FE634
S1133D6084872FC0E8E1F5E08DE483878FE68487BC
S1133D7028C0E8E1F5E084E4838789E6848721C0EC
S1133D80E8E1F5E08DE4838789E684871AC0E8E1F9
S1133D90F5E084E483878FE6848713C0E8E1F5E0E7
S1133DA086E4838782E784870CC0E8E1F5E083E555
S1133DB0838781E6848705C0E8E1F5E088E78387A7
S1133DC084871092250588E195E0DF91CF910895CD
S1133DD05058BB27AA270E94001F0C9451200E9410
S1133DE0432038F00E944A2020F039F49F3F19F410
S1133DF026F40C9440200EF4E095E7FB0C943A2052
S1133E00E92F0E94622058F3BA17620773078407E8
S1133E10950720F079F4A6F50C9484200EF4E0952F
S1133E200B2EBA2FA02D0B01B90190010C01CA0170
S1133E30A0011124FF27591B99F0593F50F4503E1B
S1133E4068F11A16F040A22F232F342F4427585F0D
S1133E50F3CF469537952795A795F0405395C9F725
S1133E607EF41F16BA0B620B730B840BBAF09150DD
S1133E70A1F0FF0FBB1F661F771F881FC2F70EC07C
S1133E80BA0F621F731F841F48F48795779567954F
S1133E90B795F7959E3F08F0B0CF9395880F08F03B
S1133EA09927EE0F9795879508950E94691F0C94A2
S1133EB051200E944A2058F00E94432040F029F4E7
S1133EC05F3F29F00C943A2051110C9485200C94F6
S1133ED040200E94622068F39923B1F3552391F3A3
S1133EE0951B550BBB27AA2762177307840738F065
S1133EF09F5F5F4F220F331F441FAA1FA9F335D0C2
S1133F000E2E3AF0E0E832D091505040E695001C75
S1133F10CAF72BD0FE2F29D0660F771F881FBB1F2F
S1133F20261737074807AB07B0E809F0BB0B802D0D
S1133F30BF01FF2793585F4F3AF09E3F510578F039
S1133F400C943A200C9485205F3FE4F3983ED4F31C
S1133F50869577956795B795F7959F5FC9F7880F0D
S1133F60911D9695879597F90895E1E0660F771F5F
S1133F70881FBB1F621773078407BA0720F0621BF0
S1133F80730B840BBA0BEE1F88F7E09508950E941B
S1133F90CE1F6894B1110C94852008950E946A2064
S1133FA088F09F5798F0B92F9927B751B0F0E1F0F6
S1133FB0660F771F881F991F1AF0BA95C9F714C0A6
S1133FC0B13091F00E948420B1E008950C948420D3
S1133FD0672F782F8827B85F39F0B93FCCF38695DF
S1133FE077956795B395D9F73EF49095809570953C
S1133FF061957F4F8F4F9F4F0895E89409C097FBB9
S11340003EF490958095709561957F4F8F4F9F4FAB
S11340109923A9F0F92F96E9BB279395F6958795EF
S113402077956795B795F111F8CFFAF4BB0F11F4B2
S113403060FF1BC06F5F7F4F8F4F9F4F16C0882359
S113404011F096E911C0772321F09EE8872F762F8F
S113405005C0662371F096E8862F70E060E02AF0D0
S11340609A95660F771F881FDAF7880F96958795BC
S113407097F9089597F99F6780E870E060E00895E4
S11340809FEF80EC089500240A941616170618066C
S11340900906089500240A94121613061406050648
S11340A00895092E0394000C11F4882352F0BB0FD9
S11340B040F4BF2B11F460FF04C06F5F7F4F8F4F3C
S11340C09F4F089557FD9058440F551F59F05F3F77
S11340D071F04795880F97FB991F61F09F3F79F026
S11340E087950895121613061406551FF2CF4695A8
S11340F0F1DF08C0161617061806991FF1CF86952A
S11341007105610508940895E894BB27662777270D
S1134110CB0197F908950E94FD2008F48FEF0895CC
S11341200E94A3200C9451200E94432038F00E9446
S11341304A2020F0952311F00C943A200C9440204E
S113414011240C9485200E94622070F3959FC1F382
S1134150950F50E0551F629FF001729FBB27F00D31
S1134160B11D639FAA27F00DB11DAA1F649F662786
S1134170B00DA11D661F829F2227B00DA11D621FD5
S1134180739FB00DA11D621F839FA00D611D221F8F
S1134190749F3327A00D611D231F849F600D211D73
S11341A0822F762F6A2F11249F5750409AF0F1F0F6
S11341B088234AF0EE0FFF1FBB1F661F771F881F5F
S11341C091505040A9F79E3F510580F00C943A203D
S11341D00C9485205F3FE4F3983ED4F3869577955D
S11341E06795B795F795E7959F5FC1F7FE2B880F05
S11341F0911D9695879597F90895990F0008550F85
S1134200AA0BE0E8FEEF16161706E807F907C0F058
S113421012161306E407F50798F0621B730B840B60
S1134220950B39F40A2661F0232B242B252B21F43A
S113423008950A2609F4A140A6958FEF811D811DDA
S11342400895EE0FFF1F0590F491E02D0994A29FAD
S1134250B001B39FC001A39F700D811D1124911D56
S1134260B29F700D811D1124911D0895FC018827B2
S11342709927E89421912032E9F3293010F02E3067
S1134280C8F32B3241F02D3239F4689404C00E94F3
S11342909621820F911D219120532A30C0F31EF4E0
S11342A0909581959F4F0895FB01DC010D900020AE
S11342B0E9F7119701900D920020E1F70895FC01B0
S11342C08191861721F08823D9F79927089531978A
S11342D0CF010895FB01DC0101900D920020E1F76C
S11342E00895FB0151915523A9F0BF01DC014D91C3
S11342F045174111E1F759F4CD010190002049F02F
S11343004D9140154111C9F3FB014111EFCF81E0FB
S113431090E001970895BB274A3031F4992322F4A1
S1134320BDE2909581959F4F0C949F217AE0979FD1
S1134330902D879F802D910D11240895BB27FB019B
S11343405527AA27880F991FAA1FA41710F0A41B8A
S113435083955051B9F7A05DAA3308F0A95DA193E4
S1134360009779F7B111B1931192CB010C94B82154
S1134370DC01FC01672F71917723E1F7329704C0C8
S11343807C916D9370836291AE17BF07C8F3089553
S1134390DC01CB01FC01E199FECF06C0FFBBEEBB03
S11343A0E09A31960DB20D9241505040B8F70895FD
S11343B0E199FECF9FBB8EBBE09A99278DB30895F8
S11343C0A8E1B0E042E050E00C94CA21DC01A40F63
S11343D0B51F4150504048F0CB01840F951F2E91DA
S11343E00E94F72141505040D0F70895262FE199BB
S11343F0FECF9FBB8EBBE09A01970DB2021631F03F
S11344002DBB0FB6F894E29AE19A0FBE0895DC0131
S1134410CB0103C02D910E94122241505040D0F78D
S11344200895262FE199FECF9FBB8EBB2DBB0FB6FF
S1134430F894E29AE19A0FBE019608950E9411221F
S10D4440272F0C941222F894FFCFEA
S113444A3030303030303030303030303030007F3F
S113445A19811A6372632E3A0000000000000000FA
S113446A008903000000960300000199030000027A
S113447A9E03000003A8030000004003BB1701B316
S113448A03000002B903000000BA03BE1201C50307
S113449A2112029E03000003D003000000DA033C49
S11344AA14013A026B1402E7038814039E03000002
S11344BA04F003000000F101A51201EB01871202C6
S11344CA66024D1503BA03FE1104F901671305FECA
S11344DA03F913060B04001A07D00309120811047E
S11344EA1D14091F043E120A9E0300000B003030FB
S11344FA3A30303A3030000031303A30303A3030E5
S113450A00646464000000FF000000000101000070
S113451A0000FF00000000424B4455534E45727799
S113452A63303132333435363738394142434445BE
S113453A460040A0C0A6A22FF800008125AC00AF17
S113454A446576426F61726420474C434400484490
S113455A2E3A31382E30342E3137005665722E3ABF
S113456A005365724E722E3A006279204A2E482010
S113457A456C656328432900637263206661696C2C
S113458A0D0A002D00454550204C6F636B2E3A20CE
S113459A004B6F6D6D616E646F204665686C657261
S11345AA21006F6B006661696C002D3E00526562E2
S11345BA6F6F742E2E00456E746572207A756D20A5
S11345CA5665726C617373656E2100446174756D0E
S11345DA005568727A656974004B6F6E7472617300
S11345EA74005365724E722E0042455441004D4187
S11345FA43204164722E004D61737465722E3A0031
S113460A6E696368742076657262756E64656E2E6F
S113461A2E00536C6176652E3A0053746174757377
S113462A005472616E73666572202852782F54782A
S113463A2900435243204572722E3A0054782E3A86
S113464A0052782E3A0054656D7065726174757201
S113465A004C6F772E2020204163742E20202020C6
S113466A4869672E2020004C3A00483A004A323101
S113467A380050617373776F72740041646D696EA8
S113468A2E206F6B210030313233343536373839C6
S113469A6162636465666768696A6B6C6D6E6F7084
S11346AA7172737475767778797A414243444546D0
S11346BA4748494A4B4C4D4E4F5051525354555604
S11346CA5758595A0020202020202020202020201A
S11346DA20202020202020202020202020202020CC
S11346EA20202020202020202020202020202020BC
S11346FA20202020202020202020202020202020AC
S113470A202020202020202020202020202000706B
S113471A7377642077726F6E6721002A2A2A2A0027
S113472A52656C61697300416B74697665205265E0
S113473A6C6169732E3A20002B2B2B5665722E3A24
S113474A2000205374617475732E3A00207C202053
S113475A0078787878787878787878787878787843
S113476A00557365722E3A20002D5370656963688B
S113477A65726E3F09004A61004E65696E005665AE
S113478A726C617373656E0041646D696E204D6F5E
S113479A6465005265736574002D48656C6C6967BD
S11347AA6B656974004175746F2E2044696D6D00E0
S11347BA426C7565746F6F7468004D41432041649F
S11347CA72657373656E005472616E736665720006
S11347DA45696E7374656C6C756E67656E005365B6
S11347EA7269656E6E756D6D65720041646D696E90
S11347FA00486172647761726520496E666F004E83
S113480A657573746172740070737764206F6B21B9
S113481A00203120002032200020332000203420C0
S113482A00203520002036200020372000203820A0
S113483A0041646D696E2E204D6F6465004170708D
S113484A2E20496E666F0041646D696E69737472D5
S113485A61746F72005765726B6572005665726295
S113486A756E64656E2E2E00557365722E3A0000BD
S9030000FC
