S01500004865736368446576426F6172642E737265631D
S11300000C943C000C9459000C9459000C94590025
S11300100C9459000C9459000C9459000C94D2027D
S11300200C9459000C9459000C9459000C945900E8
S11300300C9459000C9403050C942F050C9459004E
S11300400C9459000C9459000C9459000C945900C8
S11300500C9459000A0214023302520271029002F3
S1130060AF0244034A034F0355035A036003650375
S11300706B0370037503A90311241FBECFE5D8E0F9
S1130080DEBFCDBF12E0A0E6B0E0E2EEFFE002C0CA
S113009005900D92A837B107D9F722E0A8E7B2E09E
S11300A001C01D92A03FB207E1F70E9480010C94A9
S11300B0EF070C94000000C000C000C000C000C0E6
S11300C000C000000895A198A098A998A898089540
S11300D0A19AF1DF1DD00895A09AEDDFA198EBDF7E
S11300E0A098E9DFA19AE7DF13D00895082EA19A1A
S11300F0E2DF802D0DD0882311F002D0F8CF0895CF
S1130100A09AA19AD8DFA098D6DFA198D4DF089549
S11301100894881F01C0880F59F0A09A18F40000B1
S1130120A19802C0A19A00C0C6DFA098C4DFF3CF93
S1130130A09AA198C0DFA098989BFECF8827999990
S113014081E0B9DF99270895882701C081E071E033
S1130150A09AA198B0DFA098AEDF989BFECF8894B8
S113016099990894771FA0F7A09A813011F0A1986B
S113017001C0A19AA0DFA098989BFECF9CDF872F97
S1130180992708958AB3886F8ABB84B3806E84BB31
S1130190BF9ABE9AA49A81B38C6F81BB84B38C60DE
S11301A084BB87B3807F87BBD098AC988AB3897FA0
S11301B08ABB0895CF93823170F4C62FE82FF0E004
S11301C0E959FD4F808180950E9425048C2F8095EC
S11301D08F770E943404CF91089580FF02C0929AD1
S11301E001C0929881FF02C0939A01C0939882FF44
S11301F002C0949A01C0949883FF02C0959A01C0EA
S1130200959884FF02C0969A01C0969885FF02C013
S1130210979A01C0979886FF02C0AA9A01C0AA982B
S1130220882314F4AB9A0895AB9808958EB58B6027
S11302308EBD89B7806189BF86E891E09BBD8ABD88
S11302400895CF93DF9383E90E946C000E94A60077
S1130250C0E6D0E088830E94A40089830E948000C5
S11302608881298130E1839FC00111242695269538
S11302702695822BDF91CF910895EBEEF2E0982F33
S113028092959F7090838F708183862F82958F7053
S113029082836F706383089599236CF5919581959A
S11302A09109662319F0613091F404C02DE0209384
S11302B0EB0216C02AE501C020E02A3521F420E132
S11302C02093EB020DC02EE02093EB0209C06F3F98
S11302D021F42FE02093EB0203C02BE02093EB02E8
S11302E0EBEEF2E06AE070E00E94C1076183828372
S11302F08CE0838308956623C9F26130E9F2EDCF7F
S11303000E94C20087E690E00E9454050E946300A8
S11303100E94A5040E940F0483E80E9443040E94E3
S113032016017894C3E7D0E0888199810E94790509
S113033085EA91E00E947905888599850E9479056E
S113034085EA91E00E9479058E819F810E9479055A
S113035085EA91E00E9479058A819B810E94790552
S113036085EA91E00E9479058C819D810E9479053E
S113037085EA91E00E947905E0E6F0E08FEF90E0F5
S113038097878687918B808B09ED12E0EF010F2E02
S1130390FAE0AF2EB12CF02D0F2EFFED8F2EF2E0F0
S11303A09F2EF02D40907F02509080026090810239
S11303B070908202730162018FEFC81AD80AE80AAA
S11303C0F80AC301B2010E949D062601370120E00C
S11303D030E44CE157E40E942B0718165CF71092A6
S11303E07F02109280021092810210928202D80140
S11303F01196EC91119781E08E0F11968C938E2FAC
S113040090E08730910508F0C9C0FC01E65DFF4F1C
S11304100C94D50783E991E00E947905F401618188
S113042082810E943D01BECF8D819E8160E00E9449
S11304304C0188EA91E00E9479058D819E81B50185
S11304400E94C10780E3860F0E9468058D819E810A
S1130450B5010E94C107805D0E94680585EA91E0AC
S11304600E9479059FCF8B819C8161E00E944C01A1
S113047087EB91E00E9479058B819C81B5010E94F4
S1130480C10780E3860F0E9468058B819C81B501BA
S11304900E94C107805D0E94680586EC91E00E947D
S11304A0790580CF8E859F8561E00E944C018BEC9D
S11304B091E00E9479058E859F85B5010E94C10750
S11304C080E3860F0E9468058E859F85B5010E9492
S11304D0C107805D0E94680585EA91E00E94790564
S11304E061CF8A859B8561E00E944C018BED91E090
S11304F00E9479058A859B85B5010E94C10780E326
S1130500860F0E9468058A859B85B5010E94C107F4
S1130510805D0E94680585EA91E00E94790542CFDA
S11305208C859D8561E00E944C018BEE91E00E94D8
S113053079058C859D85B5010E94C10780E3860FEE
S11305400E9468058C859D85B5010E94C107805D68
S11305500E94680585EA91E00E94790523CF888985
S1130560998961E00E944C018BEF91E00E9479052A
S113057088899989B5010E94C10780E3860F0E948A
S1130580680588899989B5010E94C107805D0E9428
S113059068058BE092E00E94790504CFD80111969A
S11305A01C9200CF1F920F920FB60F9211242F931B
S11305B03F934F935F936F937F938F939F93AF93E7
S11305C0BF93EF93FF9380917D0290917E029C01F3
S11305D02F5F3F4F30937E0220937D02893C91052B
S11305E008F4C79880917D0290917E0280599140D1
S11305F0893C910508F4C79A80917D0290917E020E
S1130600885E93408139914008F4C79880917D02B7
S113061090917E0280549640893C910508F4C79AD3
S113062080917D0290917E02803E9E4220F0109245
S11306307E0210927D028091D90280FF17C08091C2
S11306407C0291E0980F90937C028A3008F4AC9A73
S113065080917B0291E0980F90937B028D3038F06B
S1130660AC9810927B0210927C0201C0AC98E0918D
S11306707A028E2F90E08B30910508F095C0FC0132
S1130680EF5CFF4F0C94D50760E48091EB020E946D
S1130690DA008AC067E88BE00E94DA0085C060E275
S11306A08091EC020E94DA007FC067E88BE00E9430
S11306B0DA007AC060E18091ED020E94DA0074C031
S11306C067E88BE00E94DA006FC068E08091EE0278
S11306D00E94DA0069C067E88BE00E94DA0064C017
S11306E08FED92E00E9452045FC080917802909155
S11306F079029C012F5F3F4F309379022093780257
S11307008436910508F476C010927902109278022A
S11307100E94CC040E94B104E0E6F0E09683858355
S113072025813681828593858217930724F48581F8
S1130730968193878287E0E6F0E02581368186857D
S113074097852817390784F5858196819787868749
S11307502BC00E942101BC0180E090E00E949D0614
S113076020E030E040E85DE30E9430070E94670625
S1130770E0E6F0E074836383238134818485958586
S11307808217930724F48381948195878487E0E614
S1130790F0E023813481808991892817390724F472
S11307A083819481918B808B80917A028B3020F4A9
S11307B08F5F80937A0202C010927A02E0E6F0E042
S11307C0258136818289082E000C990B2817390758
S11307D04CF4238134818289082E000C990B28174C
S11307E0390724F08FEF0E94ED0008C080E00E94DA
S11307F0ED0004C08AE080937A02E0CFFF91EF918C
S1130800BF91AF919F918F917F916F915F914F9124
S11308103F912F910F900FBE0F901F90189580E479
S11308200E9476001092830280E00E9488008091EA
S113083083020E94880081E00E94880080918302E4
S11308400E9488000E9480000895CF93C82F80E4FE
S11308500E94760082E10E9488008C2F0E9488000A
S11308600E948000CF910895CF93C82F80E40E9406
S1130870760083E10E9488008C2F0E9488000E94E9
S11308808000CF910895CF93C82F82EA0E9476000A
S11308908DE00E9488008C2F0E9488000E948000B6
S11308A0CF910895CF93DF93EC01789482EA0E946C
S11308B0760082E00E94880083EA0E946C000E9415
S11308C0A60088830E94A60089830E94A6008A83CA
S11308D00E94A6008C830E94A6008D830E94A6001D
S11308E08B830E94A60090E09F838E830E94A600C3
S11308F088870E94A60089870E94A6008A870E9492
S1130900A4008B870E94800088818F7788838981E7
S11309108F7789838A818F738A838C818F738C8389
S11309208B818F718B838D8187708D8388858F7781
S1130930888789858F7789878A858F778A878B854A
S11309408F778B87DF91CF91089584E90E94760099
S113095081E20E94880080E30E9488000E94800057
S11309600895BC0180E090E00E949D0620E030E004
S11309704FE253E40E94300720E03FEF4FE757E493
S11309800E94F50520E030E044E352E40E9488052B
S11309900E946706CB0108951F93CF93DF9384E9E8
S11309A00E94760080EE0E94880080E00E94880009
S11309B085E90E946C000E94A600D82F0E94A60020
S11309C0C82F0E94A400182F0E9480009FEF9D272B
S11309D088E021E3990F08F492278A95D9F79C2798
S11309E088E021E3990F08F492278A95D9F719131F
S11309F004C08C2F90E09D2B02C088E692E4DF9126
S1130A00CF911F9108951F920F920FB60F92112448
S1130A102F938F939F93EF93FF938BB12CB1887196
S1130A20E0918602EF5FEF7190918502E91739F04A
S1130A30E0938602F0E0E757FD4F208301C082E097
S1130A4090918402892B80938402FF91EF919F916E
S1130A508F912F910F900FBE0F901F9018951F929A
S1130A600F920FB60F9211248F939F93EF93FF93DE
S1130A709091880280918702981761F0E091870233
S1130A80EF5FEF71E0938702F0E0E755FD4F80815F
S1130A908CB901C05598FF91EF919F918F910F9060
S1130AA00FBE0F901F901895109288021092870223
S1130AB0109286021092850299231CF422E02BB92D
S1130AC09F7790BD89B988E98AB986E880BD089581
S1130AD0209188022F5F2F71909187022917E1F3EB
S1130AE0E22FF0E0E755FD4F808320938802559A6A
S1130AF00895CF93DF93EC018881882331F0219608
S1130B000E94680589918111FBCFDF91CF910895EF
S1130B105058BB27AA270E94A0050C94F1060E94F6
S1130B20E30638F00E94EA0620F039F49F3F19F4F6
S1130B3026F40C94E0060EF4E095E7FB0C94DA0638
S1130B40E92F0E94020758F3BA1762077307840754
S1130B50950720F079F4A6F50C9424070EF4E0959B
S1130B600B2EBA2FA02D0B01B90190010C01CA0163
S1130B70A0011124FF27591B99F0593F50F4503E0E
S1130B8068F11A16F040A22F232F342F4427585F00
S1130B90F3CF469537952795A795F0405395C9F718
S1130BA07EF41F16BA0B620B730B840BBAF09150D0
S1130BB0A1F0FF0FBB1F661F771F881FC2F70EC06F
S1130BC0BA0F621F731F841F48F487957795679542
S1130BD0B795F7959E3F08F0B0CF9395880F08F02E
S1130BE09927EE0F9795879508950E9409060C940E
S1130BF0F1060E94EA0658F00E94E30640F029F448
S1130C005F3F29F00C94DA0651110C9425070C94DB
S1130C10E0060E94020768F39923B1F3552391F388
S1130C20951B550BBB27AA2762177307840738F057
S1130C309F5F5F4F220F331F441FAA1FA9F335D0B4
S1130C400E2E3AF0E0E832D091505040E695001C68
S1130C50CAF72BD0FE2F29D0660F771F881FBB1F22
S1130C60261737074807AB07B0E809F0BB0B802D00
S1130C70BF01FF2793585F4F3AF09E3F510578F02C
S1130C800C94DA060C9425075F3FE4F3983ED4F302
S1130C90869577956795B795F7959F5FC9F7880F00
S1130CA0911D9695879597F90895E1E0660F771F52
S1130CB0881FBB1F621773078407BA0720F0621BE3
S1130CC0730B840BBA0BEE1F88F7E09508950E940E
S1130CD06E066894B1110C94250708950E940A07C2
S1130CE088F09F5798F0B92F9927B751B0F0E1F0E9
S1130CF0660F771F881F991F1AF0BA95C9F714C099
S1130D00B13091F00E942407B1E008950C942407B7
S1130D10672F782F8827B85F39F0B93FCCF38695D1
S1130D2077956795B395D9F73EF49095809570952E
S1130D3061957F4F8F4F9F4F0895E89409C097FBAB
S1130D403EF490958095709561957F4F8F4F9F4F9E
S1130D509923A9F0F92F96E9BB279395F6958795E2
S1130D6077956795B795F111F8CFFAF4BB0F11F4A5
S1130D7060FF1BC06F5F7F4F8F4F9F4F16C088234C
S1130D8011F096E911C0772321F09EE8872F762F82
S1130D9005C0662371F096E8862F70E060E02AF0C3
S1130DA09A95660F771F881FDAF7880F96958795AF
S1130DB097F9089597F99F6780E870E060E00895D7
S1130DC09FEF80EC089500240A941616170618065F
S1130DD00906089500240A9412161306140605063B
S1130DE00895092E0394000C11F4882352F0BB0FCC
S1130DF040F4BF2B11F460FF04C06F5F7F4F8F4F2F
S1130E009F4F089557FD9058440F551F59F05F3F69
S1130E1071F04795880F97FB991F61F09F3F79F018
S1130E2087950895121613061406551FF2CF46959A
S1130E30F1DF08C0161617061806991FF1CF86951C
S1130E407105610508940895E894BB276627772700
S1130E50CB0197F908950E949D0708F48FEF089538
S1130E600E9443070C94F1060E94E30638F00E94A6
S1130E70EA0620F0952311F00C94DA060C94E006AF
S1130E8011240C9425070E94020770F3959FC1F367
S1130E90950F50E0551F629FF001729FBB27F00D24
S1130EA0B11D639FAA27F00DB11DAA1F649F662779
S1130EB0B00DA11D661F829F2227B00DA11D621FC8
S1130EC0739FB00DA11D621F839FA00D611D221F82
S1130ED0749F3327A00D611D231F849F600D211D66
S1130EE0822F762F6A2F11249F5750409AF0F1F0E9
S1130EF088234AF0EE0FFF1FBB1F661F771F881F52
S1130F0091505040A9F79E3F510580F00C94DA06A9
S1130F100C9425075F3FE4F3983ED4F386957795C8
S1130F206795B795F795E7959F5FC1F7FE2B880FF7
S1130F30911D9695879597F90895990F0008550F77
S1130F40AA0BE0E8FEEF16161706E807F907C0F04B
S1130F5012161306E407F50798F0621B730B840B53
S1130F60950B39F40A2661F0232B242B252B21F42D
S1130F7008950A2609F4A140A6958FEF811D811DCD
S1130F80089597FB072E16F4009407D077FD09D037
S1130F900E94DB0707FC05D03EF4909581959F4F96
S1130FA00895709561957F4F0895EE0FFF1F05908A
S1130FB0F491E02D0994AA1BBB1B51E107C0AA1FA1
S1130FC0BB1FA617B70710F0A61BB70B881F991FE6
S1130FD05A95A9F780959095BC01CD010895F89490
S1050FE0FFCF3D
S1130FE20000000000000000000000000000780083
S1130FF200001E230232023B024B025902494243C1
S11310020D0A004B31207365740D0A004B312075B3
S11310126E7365740D0A004B32207365740D0A00F9
S11310224B3220756E7365740D0A004B3320736561
S1131032740D0A004B3320756E7365740D0A004BF0
S113104234207365740D0A004B3420756E73657415
S11310520D0A004B35207365740D0A004B3520755B
S11310626E7365740D0A004B36207365740D0A00A5
S11310724B3620756E7365740D0A004B3720736509
S1131082740D0A004B3720756E7365740D0A004B9C
S113109238207365740D0A004B3820756E736574BD
S11310A20D0A002A2A2A493243205363616E6E656F
S11310B2722A2A2A0052656C656173652074686518
S11310C2205377697463682E2E210053657420536C
S11310D2797374656D2054696D652E2E00486F6CAA
S11310E2642074686520456E632E202D0053776951
S11310F274636820746F207365742044617465217D
S1131102005365742053797374656D20446174656A
S11311122E2E002A2A2A2A2A2A2A2A2A2A2A2A2A4B
S11311222A2A2A2A2A0D0A0053545333782E3A20A3
S113113220202020202000544D503130322E3A20DD
S11311422020202020000D0A0A0A00535453337829
S1131152206D696E2E3A2020202000535453337898
S1131162206D61782E3A2020202000544D503130D9
S113117232206D61782E3A20202000544D503130B7
S113118232206D696E2E3A202020000D0A2A2A2A66
S11311922A2A2A2A2A2A2A2A2A2A2A2A2A2A2A0DC6
S11311A20A0A00202020202020446576426F6172C2
S11311B2640048562E3A20312E300053562E3A20DF
S11311C2312E302E302E303831310048572E3A200D
S11311D231382E30342E31370053572E3A203330E3
S11311E22E30352E3137003F065B4F666D7D077F0B
S10B11F26F800063010840480E
S9030000FC
