:100000000C9436000C9453000C9453000C94530041
:100010000C9453000C9453000C9453000C947D05E5
:100020000C9453000C9453000C9453000C94530004
:100030000C9453000C9427030C9453030C9453001A
:100040000C9453000C9453000C9453000C945300E4
:100050000C9453000D0A2A2A45696E7A656C626910
:1000600074204D6F6475732A2A0D0A0011241FBE77
:10007000CFE5D8E0DEBFCDBF12E0A0E6B0E0ECE80F
:10008000FCE002C005900D92A833B107D9F723E038
:10009000A8E3B2E001C01D92A83EB207E1F70E94BA
:1000A000E9040C9444060C940000E0E6F0E081E3DF
:1000B00080832EE2218390E2928330E33383248392
:1000C00095838683878384E3808788E3818722877B
:1000D0009387348785878687108ACF0108950F9389
:1000E0001F93CF93DF930097C1F061157105C1F0A5
:1000F000EC010E9422068C016BE370E0CE010E94AD
:100100001706892B81F00115110581F01093390232
:1001100000933802802F912F0BC080E090E008C040
:1001200080E090E005C080E090E002C0802F912F39
:10013000DF91CF911F910F910895EF92FF920F934E
:100140001F93CF93DF932091E4033091E503232B9A
:1001500029F17C0180E090E0C0E002EE13E0D7E2FC
:10016000D89F9001D99F300D1124F80160817181D1
:10017000620F731F6C5E7F4FC7010E946F00892B57
:1001800011F08C2F0CC0CF5F8C2F90E0F8012281F2
:1001900033818217930720F38FEF01C08FEFDF9138
:1001A000CF911F910F91FF90EF900895E2EEF3E051
:1001B000918380835383428375836483DB011D9223
:1001C0001C920480F581E02D128208951F93CF9335
:1001D000DF93EC016AE370E00E941706009749F094
:1001E000FC0181818B3339F011E08C3229F410E06D
:1001F00003C010E001C010E0209791F06CE270E0C5
:10020000CE0101960E941706EC01892B49F08981E5
:100210008B35A1F38B3391F38C3281F31F5FEECFDB
:10022000E091E603F091E7031283812FDF91CF91F4
:100230001F9108950E949D008F3F61F02091E2037D
:100240003091E303A90167E28602400D511D11249C
:10025000CA01089580E090E008950E949D008F3FBC
:1002600061F0E091E203F091E30397E28902E00D8F
:10027000F11D112483A194A1089580E090E00895D8
:10028000BF92CF92DF92EF92FF920F931F93CF9383
:10029000DF937C018B01C42EFC0101900020E9F763
:1002A0003197AF01481B590B60E070E00E940506D2
:1002B000C8010E94E6008C1508F458C08091E40340
:1002C0009091E503892B09F482C020E030E0D12C25
:1002D000C2EED3E00F2EF7E2BF2EF02DB29EC0018A
:1002E000B39E900D112468817981680F791F6C5E2F
:1002F0007F4FC8010E946F00892B09F05BC0D39427
:100300002D2D30E08A819B812817390738F35FC093
:100310008C3279F1CC2089F0C0E06CE270E0CD0144
:100320000E941706DC011196FC0191819B3321F19B
:100330009C3229F1CF5FCC12F0CF8C91882311F140
:100340008C3219F18B3321F18B3529F1F70111969C
:1003500002C08B3519F181938D91882311F18C3274
:1003600019F18B33B1F78E2D9F2D33C080E090E0D3
:1003700030C080E090E02DC080E090E02AC080E0B6
:1003800090E027C08E2D9F2D24C08E2D9F2D21C043
:100390008E2D9F2D1EC080E090E01BC080E090E07D
:1003A00018C08E2D9F2D15C08E2D9F2D12C080E060
:1003B00090E00FC06AE370E0C8010E941706DC01FC
:1003C0001196FC0181818B3309F0A2CFF0CF80E040
:1003D00090E0DF91CF911F910F91FF90EF90DF9010
:1003E000CF90BF900895CF93DF93D82FC92FCB0123
:1003F0006BE570E00E941706FC01009759F1DC01E3
:1004000011978C918C32A9F491819923A9F09B3397
:10041000B1F09D35B9F0AD2FBC2F32969D939191DF
:10042000992399F09B33A1F09D35C1F7ED2FFC2F57
:1004300011C0E0E0F0E00EC0ED2FFC2F0BC0ED2F5F
:10044000FC2F08C0ED2FFC2F05C0ED2FFC2F02C0A4
:10045000ED2FFC2FCF01DF91CF9108958F929F92C6
:10046000AF92BF92CF92DF92EF92FF920F931F93C2
:10047000CF93DF93EC01FC0101900020E9F7319765
:10048000AF01481B590B60E070E00E94050682E155
:10049000E2E7F0E0DE0101900D928A95E1F7DE01DE
:1004A0000D900020E9F711978DE3E4E8F0E001906A
:1004B0000D928A95E1F7FE0101900020E9F731974E
:1004C00087E290E091838083FE0101900020E9F7AC
:1004D00031972AE330E031832083DE010D90002044
:1004E000E9F7119724E1E1ECF0E001900D922A95F3
:1004F000E1F7FE0101900020E9F7319791838083B5
:10050000FE0101900020E9F731972CE230E03183C1
:100510002083DE010D900020E9F7119726E1E5ED3B
:10052000F0E001900D922A95E1F7FE010190002084
:10053000E9F7319791838083FE0101900020E9F76C
:100540003197EC1BFD0BCE018E0F911DFC018BE34F
:100550008083DE010D900020E9F7119787E1EBEE33
:10056000F0E001900D928A95E1F7DE010D900020F8
:10057000E9F711978EE0E2E0F1E001900D928A95A3
:10058000E1F78091E4039091E503892B09F451C0D0
:1005900080E090E0912C0F2EF7E28F2EF02D0F2EA1
:1005A000F2EEEF2EF3E0FF2EF02D6894AA24A5F8CA
:1005B000B12C0F2EFDE0CF2EFAE0DF2EF02D889E1D
:1005C0008001899E100D1124F70160817181600FF7
:1005D000711FCE010E940C06FE0101900020E9F778
:1005E0003197B182A082F70160817181600F711F24
:1005F0006C5E7F4FCE010E940C06F70180819181D5
:10060000FC01E00FF11F65A176A1CE010E940C064E
:10061000FE0101900020E9F73197D182C082128259
:100620009394892D90E0F7012281338182179307FB
:1006300030F2CE01DF91CF911F910F91FF90EF909B
:10064000DF90CF90BF90AF909F908F9008951F92B2
:100650000F920FB60F9211242F938F939F93EF93C6
:10066000FF938BB12CB18871E0913C02EF5FEF7387
:1006700090913B02E91739F0E0933C02F0E0E15C35
:10068000FD4F208301C082E090913A02892B809334
:100690003A02FF91EF919F918F912F910F900FBE92
:1006A0000F901F9018951F920F920FB60F92112462
:1006B0008F939F93EF93FF9390913E0280913D0221
:1006C000981761F0E0913D02EF5FEF71E0933D021A
:1006D000F0E0E158FD4F80818CB901C05598FF9141
:1006E000EF919F918F910F900FBE0F901F901895D3
:1006F00010923E0210923D0210923C0210923B0278
:1007000099231CF422E02BB99F7790BD89B988E921
:100710008AB986E880BD089590913C0280913B02A1
:10072000981781F0E0913B02EF5FEF73E0933B029B
:10073000F0E0E15CFD4F808190913A0210923A0224
:1007400090E0089580E091E0089520913E022F5FAF
:100750002F7190913D022917E1F3E22FF0E0E1586B
:10076000FD4F808320933E02559A0895CF93DF93E7
:10077000EC018881882331F021960E94A50389919C
:100780008111FBCFDF91CF9108958AB3886F8ABB27
:1007900084B3806E84BBBF9ABE9AA49A81B38C6FD7
:1007A00081BB84B38C6084BBA49A87B3807F87BBF2
:1007B000D098AC988AB3897F8ABB0895DF92EF9274
:1007C000FF920F931F93CF93DF93CDB7DEB72A9796
:1007D0000FB6F894DEBF0FBECDBF7C011A8219821E
:1007E000FE01339688E0DF011D928A95E9F740E02B
:1007F000B701CE0101960E9440010E94E705D82E64
:10080000082F192F41E0B701CE0101960E94400147
:100810000E94E7057C01833008F070C09927813081
:10082000910571F18230910509F44FC0892B09F0CF
:1008300060C080919E03E81621F084E590E00E945C
:10084000B6030730110570F422B30F5F1F4F81E02C
:1008500090E002C0880F991F0A95E2F780958223E5
:1008600082BB47C025B30550110981E090E002C06A
:10087000880F991F0A95E2F78095822385BB39C0BE
:1008800080919E03E81621F084E590E00E94B60373
:100890000730110568F422B30F5F1F4F81E090E02D
:1008A00002C0880F991F0A95E2F7822B82BB21C0F4
:1008B00025B30550110981E090E002C0880F991F0F
:1008C0000A95E2F7822B85BB14C080919E03E8163F
:1008D00021F080E191E00E94B603DD0CDD0CD2BA7C
:1008E000007C1127129502950F7001271F700127B8
:1008F00005BBE0929E0380E390E002C080E090E0C0
:100900002A960FB6F894DEBF0FBECDBFDF91CF9110
:100910001F910F91FF90EF90DF90089583E291E097
:100920000E94B6030E9455000E94B60388E891E039
:100930000E94B60384EA92E00E942E020E94B6034F
:1009400080E090E008958EB589608EBD89B78061A2
:1009500089BF80ED97E09BBD8ABD0895CF93DF935B
:10096000EC010E948C0390FD2FC0813021E09207A2
:1009700028F01092A30280E090E028C09C01332769
:100980002D30310519F02A30310559F48091A30238
:10099000FE01E80FF11D10821092A3028C2F9D2FF3
:1009A00015C02091A302203428F01092A30280E009
:1009B00090E00CC091E0920F9093A302C20FD11D62
:1009C000888380E090E002C080E090E0DF91CF91EA
:1009D0000895CF93DF9300D000D01F92CDB7DEB73C
:1009E0000E94C50383E390E00E9478030E94A30461
:1009F00078948AE291E00E94B60382E491E00E943A
:100A0000B6038BE591E00E94B60383E291E00E9479
:100A1000B6030E9455000E94B6038CE091E00E944C
:100A2000B60342E050E06FED73E08AEE91E00E9481
:100A3000D6000F2EF3E0BF2EF02D6E0183E0C80E1E
:100A4000D11C8FE993E00E94AE040097D1F30E947D
:100A50001A018C01892B09F43FC08CE691E00E94B9
:100A6000B6038FE993E00E942D017C01892BA1F050
:100A7000C8010E94B60360E070E08FE993E0F701DF
:100A80000995892B29F08BE891E00E94B60304C0F8
:100A900084E991E00E94B6031A821982F6018B2D37
:100AA00011928A95E9F76FE973E0CE0101960E94F1
:100AB000F3018C01892B59F08EE991E00E94B60375
:100AC000C8010E94B60388E891E00E94B6038CE654
:100AD00091E00E94B603B5CF85EA91E00E94B6038B
:100AE00082EB91E00E94B6038FE993E00E94B60387
:100AF00088E891E00E94B603A4CF1F920F920FB630
:100B00000F9211242F934F935F936F937F938F9343
:100B10009F93AF93BF9380919F029091A002A09169
:100B2000A102B091A2020196A11DB11D813127E25F
:100B30009207B0F5AA27BB2780939F029093A0024B
:100B4000A093A102B093A202893C9105A105B10531
:100B500010F4C7982EC0AC01BD0140595140610945
:100B60007109493C51056105710510F4C79A21C00E
:100B7000AC01BD01485E53406109710941395140E2
:100B80006105710510F4C79814C080549640A109FE
:100B9000B109893C9105A105B10558F4C79A09C06E
:100BA00010929F021092A0021092A1021092A20233
:100BB000D0CFBF91AF919F918F917F916F915F91B6
:100BC0004F912F910F900FBE0F901F901895FC0121
:100BD00088279927E89421912032E9F3293010F0F1
:100BE0002E30C8F32B3241F02D3239F4689404C012
:100BF0000E943C06820F911D219120532A30C0F3A0
:100C00001EF4909581959F4F0895DC0101C06D936E
:100C100041505040E0F70895FB01DC010D900020A9
:100C2000E9F7119701900D920020E1F70895FC017A
:100C30008191861721F08823D9F799270895319754
:100C4000CF010895FB0151915523A9F0BF01DC01AB
:100C50004D9145174111E1F759F4CD010190002064
:100C600049F04D9140154111C9F3FB014111EFCFFE
:100C700081E090E0019708957AE0979F902D879FFB
:0C0C8000802D910D11240895F894FFCFF1
:100C8C003030303030303030303030303030303058
:100C9C0030004B6F6D6D616E646F2053796E7461B3
:100CAC00783A20005B4B4F4D4D414E444F20574FEF
:100CBC0052445D5B504152414D4554455220535472
:100CCC004152545D5B504152414D455445525D5B20
:100CDC004B4F4D4D414E444F20454E44455D0D0A02
:100CEC000027202D3E5B504152412E20535441523F
:100CFC00545D0D0A0027202D3E5B504152412E20A1
:100D0C005452454E4E45525D0D0A0027202D3E5B38
:100D1C004B4F4D4D414E444F20454E44455D0D0AC1
:100D2C000A004B6F6D6D616E646F733A0D0A0A00A9
:100D3C000D0A2A2A42797465204D6F6475732A2A2C
:100D4C000D0A005665722E3A20002A2A52656C61F3
:100D5C006973537769746368426F6172642A2A0DF0
:100D6C000A00537570706F7274206279204A2E4895
:100D7C00202D20456C65632E0D0A007777772E6A3F
:100D8C00682D656C65632E64650D0A002A2A2A2A73
:100D9C002A2A2A2A2A2A2A2A2A2A2A2A2A2A2A2AA7
:100DAC002A2A2A2A2A2A2A2A0D0A00434D445F4F4E
:100DBC004B0D0A00434D445F4241440D0A0043521F
:100DCC00432E3A20006E6F20636F6D6D616E640D63
:100DDC000A004C6F6F706261636B3A20003A5245A7
:100DEC004C4149532C303D4F46467C313D4F4E7C57
:100DFC00323D427974654D6F64652C234352435BDD
:100E0C004F5054494F4E414C5D0052656C616973B3
:100E1C003A000000000000000000000000002D6BF4
:100E2C0000000000000000000000000000DE03BD18
:100E3C000148656C7020203A0000000000000000A2
:100E4C0000000000002D6800000000000000000001
:080E5C00000000008E040000FC
:00000001FF
