:100000000C9436000C9453000C9453000C94530041
:100010000C9453000C9453000C9453000C943F0523
:100020000C9453000C9453000C9453000C94530004
:100030000C9453000C94EC020C9418030C94530091
:100040000C9453000C9453000C9453000C945300E4
:100050000C9453000D0A2A2A45696E7A656C626910
:1000600074204D6F6475732A2A0D0A0011241FBE77
:10007000CFE5D8E0DEBFCDBF12E0A0E6B0E0E0E122
:10008000FCE002C005900D92A834B107D9F723E037
:10009000A8E4B2E001C01D92A83FB207E1F70E94B8
:1000A000EA040C9406060C940000E0E6F0E081E31C
:1000B00080832EE2218390E2928330E33383248392
:1000C00095838683878384E3808788E3818722877B
:1000D0009387348785878687108ACF0108950F9389
:1000E0001F93CF93DF930097C1F061157105C1F0A5
:1000F000EC010E94E4058C016BE370E0CE010E94EC
:10010000D905892B81F00115110581F01093490261
:1001100000934802802F912F0BC080E090E008C030
:1001200080E090E005C080E090E002C0802F912F39
:10013000DF91CF911F910F910895EF92FF920F934E
:100140001F93CF93DF932091F4033091F503232B7A
:1001500029F17C0180E090E0C0E002EF13E0D7E2FB
:10016000D89F9001D99F300D1124F80160817181D1
:10017000620F731F6C5E7F4FC7010E946F00892B57
:1001800011F08C2F0CC0CF5F8C2F90E0F8012281F2
:1001900033818217930720F38FEF01C08FEFDF9138
:1001A000CF911F910F91FF90EF900895E2EFF3E050
:1001B000918380835383428375836483DB011D9223
:1001C0001C920480F581E02D128208951F93CF9335
:1001D000DF93EC016AE370E00E94D905009749F0D3
:1001E000FC0181818B3339F011E08C3229F410E06D
:1001F00003C010E001C010E0209791F06CE270E0C5
:10020000CE0101960E94D905EC01892B49F0898124
:100210008B35A1F38B3391F38C3281F31F5FEECFDB
:10022000E091F603F091F7031283812FDF91CF91D4
:100230001F9108950E949D008F3F61F02091F2036D
:100240003091F303A90167E28602400D511D11248C
:10025000CA01089580E090E008950E949D008F3FBC
:1002600061F0E091F203F091F30397E28902E00D6F
:10027000F11D112483A194A1089580E090E00895D8
:10028000BF92CF92DF92EF92FF920F931F93CF9383
:10029000DF937C018B01C42EFC0101900020E9F763
:1002A0003197AF01481B590B60E070E00E94C70511
:1002B000C8010E94E6008C1508F458C08091F40330
:1002C0009091F503892B09F482C020E030E0D12C15
:1002D000C2EFD3E00F2EF7E2BF2EF02DB29EC00189
:1002E000B39E900D112468817981680F791F6C5E2F
:1002F0007F4FC8010E946F00892B09F05BC0D39427
:100300002D2D30E08A819B812817390738F35FC093
:100310008C3279F1CC2089F0C0E06CE270E0CD0144
:100320000E94D905DC011196FC0191819B3321F1DA
:100330009C3229F1CF5FCC12F0CF8C91882311F140
:100340008C3219F18B3321F18B3529F1F70111969C
:1003500002C08B3519F181938D91882311F18C3274
:1003600019F18B33B1F78E2D9F2D33C080E090E0D3
:1003700030C080E090E02DC080E090E02AC080E0B6
:1003800090E027C08E2D9F2D24C08E2D9F2D21C043
:100390008E2D9F2D1EC080E090E01BC080E090E07D
:1003A00018C08E2D9F2D15C08E2D9F2D12C080E060
:1003B00090E00FC06AE370E0C8010E94D905DC013B
:1003C0001196FC0181818B3309F0A2CFF0CF80E040
:1003D00090E0DF91CF911F910F91FF90EF90DF9010
:1003E000CF90BF9008958F929F92AF92BF92CF927D
:1003F000DF92EF92FF920F931F93CF93DF93EC0165
:10040000FC0101900020E9F73197AF01481B590B1F
:1004100060E070E00E94C70582E1E6E7F0E0DE01FF
:1004200001900D928A95E1F7DE010D900020E9F729
:1004300011978DE3E8E8F0E001900D928A95E1F7DD
:10044000FE0101900020E9F7319787E290E0918367
:100450008083FE0101900020E9F731972AE330E024
:1004600031832083DE010D900020E9F7119724E10C
:10047000E5ECF0E001900D922A95E1F7FE01019084
:100480000020E9F7319791838083FE0101900020DD
:10049000E9F731972CE230E031832083DE010D90C3
:1004A0000020E9F7119726E1E9EDF0E001900D92C7
:1004B0002A95E1F7FE0101900020E9F73197918339
:1004C0008083FE0101900020E9F73197EC1BFD0BC2
:1004D000CE018E0F911DFC018BE38083DE010D9018
:1004E0000020E9F7119787E1EFEEF0E001900D921F
:1004F0008A95E1F7DE010D900020E9F711978EE073
:10050000E6E0F1E001900D928A95E1F78091F40325
:100510009091F503892B09F451C080E090E0912C73
:100520000F2EF7E28F2EF02D0F2EF2EFEF2EF3E0CD
:10053000FF2EF02D6894AA24A5F8B12C0F2EFDE013
:10054000CF2EFAE0DF2EF02D889E8001899E100DBF
:100550001124F70160817181600F711FCE010E942B
:10056000CE05FE0101900020E9F73197B182A0820B
:10057000F70160817181600F711F6C5E7F4FCE014A
:100580000E94CE05F70180819181FC01E00FF11FEF
:1005900065A176A1CE010E94CE05FE01019000204A
:1005A000E9F73197D182C08212829394892D90E02D
:1005B000F701228133818217930730F2CE01DF9158
:1005C000CF911F910F91FF90EF90DF90CF90BF9050
:1005D000AF909F908F9008951F920F920FB60F9239
:1005E00011242F938F939F93EF93FF938BB12CB193
:1005F0008871E0914C02EF5FEF7390914B02E91725
:1006000039F0E0934C02F0E0E15BFD4F208301C044
:1006100082E090914A02892B80934A02FF91EF91E8
:100620009F918F912F910F900FBE0F901F90189553
:100630001F920F920FB60F9211248F939F93EF93F7
:10064000FF9390914E0280914D02981761F0E091D6
:100650004D02EF5FEF71E0934D02F0E0E157FD4F87
:1006600080818CB901C05598FF91EF919F918F9136
:100670000F900FBE0F901F90189510924E0210927F
:100680004D0210924C0210924B0299231CF422E06E
:100690002BB99F7790BD89B988E98AB986E880BD72
:1006A000089590914C0280914B02981781F0E0914F
:1006B0004B02EF5FEF73E0934B02F0E0E15BFD4F25
:1006C000808190914A0210924A0290E0089580E061
:1006D00091E0089520914E022F5F2F7190914D026D
:1006E0002917E1F3E22FF0E0E157FD4F80832093DB
:1006F0004E02559A0895CF93DF93EC0188818823A9
:1007000031F021960E946A0389918111FBCFDF911C
:10071000CF9108958AB3886F8ABB84B3806E84BBFF
:10072000BF9ABE9AA49A81B38C6F81BB84B38C604C
:1007300084BBA49A87B3807F87BBD098AC988AB3D8
:10074000897F8ABB0895CF92DF92EF92FF920F9339
:100750001F93CF93DF93CDB7DEB72A970FB6F894E8
:10076000DEBF0FBECDBF8C011A821982FE01339607
:1007700088E0DF011D928A95E9F740E0B801CE01DB
:1007800001960E9440010E94A905D82EC92E41E081
:10079000B801CE0101960E9440010E94A9057C018A
:1007A000833008F07BC0E091F603F091F70392816B
:1007B000923009F076C00D2D1C2D97013327213082
:1007C000310571F12230310509F44FC0232B09F0B6
:1007D00060C09091AE03891721F084E590E00E94FB
:1007E0007B030730110570F422B30F5F1F4F81E0C8
:1007F00090E002C0880F991F0A95E2F78095822346
:1008000082BB47C025B30550110981E090E002C0CA
:10081000880F991F0A95E2F78095822385BB39C01E
:100820009091AE03891721F084E590E00E947B034C
:100830000730110568F422B30F5F1F4F81E090E08D
:1008400002C0880F991F0A95E2F7822B82BB21C054
:1008500025B30550110981E090E002C0880F991F6F
:100860000A95E2F7822B85BB14C09091AE038917DD
:1008700021F084E191E00E947B03DD0CDD0CD2BA13
:10088000007C1127129502950F7001271F70012718
:1008900005BBE092AE0380E390E005C080E090E00D
:1008A00002C080E090E02A960FB6F894DEBF0FBE3B
:1008B000CDBFDF91CF911F910F91FF90EF90DF900F
:1008C000CF90089587E291E00E947B030E9455003B
:1008D0000E947B0380E691E00E947B0384EB92E020
:1008E0000E94F3010E947B0380E090E008958EE275
:1008F00091E00E947B032FEF81EE94E02150804035
:100900009040E1F700C00000E0E0F0E0099580E0F1
:1009100090E008958EB589608EBD89B7806189BFEA
:1009200080ED97E09BBD8ABD0895CF93DF93EC01E6
:100930000E94510390FD2FC0813021E0920728F0E2
:100940001092B30280E090E028C09C0133272D3044
:10095000310519F02A30310559F48091B302FE01B6
:10096000E80FF11D10821092B3028C2F9D2F15C03D
:100970002091B302203428F01092B30280E090E07E
:100980000CC091E0920F9093B302C20FD11D8883E7
:1009900080E090E002C080E090E0DF91CF91089588
:1009A000CF93DF93EC010E9455009B838A8388815B
:1009B00099810E947B038EE391E00E947B038A81F0
:1009C0009B810E947B0380E691E00E947B03DF9184
:1009D000CF9108950E948A0383E390E00E943D0333
:1009E0000E948A04789482E790E00E94D00443E059
:1009F00050E06FEE73E083ED91E00E94D6008FEA45
:100A000093E00E9495040097D1F30E941A01EC0133
:100A1000892B21F184E491E00E947B038FEA93E02B
:100A20000E942D018C01892BA1F0CE010E947B0335
:100A300060E070E08FEA93E0F8010995892B29F0D6
:100A400083E691E00E947B0304C08CE691E00E9463
:100A50007B0384E491E00E947B03D1CF86E791E0A1
:100A60000E947B0383E891E00E947B038FEA93E07E
:100A70000E947B0380E691E00E947B03C0CF1F921F
:100A80000F920FB60F9211242F934F935F936F9392
:100A90007F938F939F93AF93BF938091AF02909179
:100AA000B002A091B102B091B2020196A11DB11D98
:100AB000813127E29207B0F5AA27BB278093AF02C6
:100AC0009093B002A093B102B093B202893C910519
:100AD000A105B10510F4C7982EC0AC01BD01405965
:100AE000514061097109493C51056105710510F4D6
:100AF000C79A21C0AC01BD01485E5340610971092C
:100B0000413951406105710510F4C79814C08054F3
:100B10009640A109B109893C9105A105B10558F498
:100B2000C79A09C01092AF021092B0021092B1029F
:100B30001092B202D0CFBF91AF919F918F917F91D0
:100B40006F915F914F912F910F900FBE0F901F905B
:100B50001895FC0188279927E89421912032E9F320
:100B6000293010F02E30C8F32B3241F02D3239F4F9
:100B7000689404C00E94FE05820F911D21912053AC
:100B80002A30C0F31EF4909581959F4F0895DC01A3
:100B900001C06D9341505040E0F70895FB01DC0126
:100BA0000D900020E9F7119701900D920020E1F7D8
:100BB0000895FC018191861721F08823D9F79927A0
:100BC00008953197CF010895FB0151915523A9F064
:100BD000BF01DC014D9145174111E1F759F4CD01F9
:100BE0000190002049F04D9140154111C9F3FB01DE
:100BF0004111EFCF81E090E0019708957AE0979F4F
:100C0000902D879F802D910D11240895F894FFCF8A
:100C100030303030303030303030303030303030D4
:100C20003000BB0100004B6F6D6D616E646F20532F
:100C3000796E7461783A20005B4B4F4D4D414E44C4
:100C40004F20574F52445D5B504152414D455445F2
:100C5000522053544152545D5B504152414D4554D2
:100C600045525D5B4B4F4D4D414E444F20454E44E8
:100C7000455D0D0A0027202D3E5B504152412E203C
:100C800053544152545D0D0A0027202D3E5B5041C4
:100C900052412E205452454E4E45525D0D0A0027BA
:100CA000202D3E5B4B4F4D4D414E444F20454E4411
:100CB000455D0D0A0A004B6F6D6D616E646F733A8E
:100CC0000D0A0A000D0A2A2A42797465204D6F64C4
:100CD00075732A2A0D0A005665722E3A2000526555
:100CE000626F6F74206E6F772E2E0D0A0A005665A4
:100CF000723A20002A2A2A2A2A2A2A2A2A2A2A2A30
:100D00002A2A2A2A2A2A2A2A2A2A2A2A2A2A2A2A43
:100D10000D0A00434D445F4F4B0D0A00434D445FA5
:100D20004241440D0A006E6F20636F6D6D616E6409
:100D30000D0A004C6F6F706261636B3A20003A528B
:100D4000454C4149532C303D4F46467C313D4F4E3A
:100D50007C323D427974654D6F64652C2343524368
:100D60005B4F5054494F4E414C5D002A2A2A526530
:100D70006C616973537769746368426F782A2A2AB1
:100D80000D0A0052656C6169733A000000000000B2
:100D9000000000000000002D6B00000000000000BB
:100DA000000000000000A3038E01496E69743A0040
:100DB00000000000000000000000000000002D699D
:100DC0006E6974000000000000000000007704005D
:100DD0000048656C7020203A000000000000000010
:100DE00000000000002D680000000000000000006E
:080DF000000000006204000095
:00000001FF
