S017000052656C616973537769746368426F782E7372656312
S11300000C942A000C9447000C9447000C9447006D
S11300100C9447000C9447000C9447000C94410442
S11300200C9447000C9447000C9447000C94470030
S11300300C9447000C94D4010C9400020C944700D7
S11300400C9447000C9447000C9447000C94470010
S11300500C94470011241FBECFE5D8E0DEBFCDBF0E
S113006011E0A0E6B0E0E8E6FAE002C005900D92E7
S1130070AC37B107D9F721E0ACE7B1E001C01D927C
S1130080AF3FB207E1F70E949B030C9432050C9436
S11300900000E0E6F0E081E380832EE2218390E239
S11300A0928330E33383248395838683878384E335
S11300B0808788E38187228793873487858786872B
S11300C0108ACF0108950F931F93CF93DF93009766
S11300D0C1F061157105C1F0EC010E94DB048C01D3
S11300E06BE370E0CE010E94D004892B81F00115EE
S11300F0110581F010937D0100937C01802F912FD5
S11301000BC080E090E008C080E090E005C080E093
S113011090E002C0802F912FDF91CF911F910F911A
S11301200895EF92FF920F931F93CF93DF93FC01F7
S113013022813381232B21F17B018C0180E090E02B
S1130140C0E0D5E2D89F9001D99F300D1124F80169
S113015060817181620F731F6C5E7F4FC7010E94C3
S11301606300892B11F08C2F0CC0CF5F8C2F90E093
S1130170F801228133818217930720F38FEF01C0A6
S11301808FEFDF91CF911F910F91FF90EF90089522
S1130190EF92FF921F93CF93DF937C01EB016AE30D
S11301A070E0CE010E94D004009741F011E0DC0120
S11301B011968C918B3319F410E001C010E0209754
S11301C051F06CE270E0CE0101960E94D004EC0183
S11301D01F5F892BB1F7D7011496ED91FC91159708
S11301E08FEF810F8283DF91CF911F91FF90EF906A
S11301F00895CF93DF93EC010E9491008F3F51F05B
S113020028813981A90165E28602400D511D11241E
S1130210CA0102C080E090E0DF91CF910895CF93AE
S1130220DF93EC010E9491008F3F51F0E881F98146
S113023095E28902E00DF11D112483A194A102C06D
S113024080E090E0DF91CF910895BF92CF92DF924A
S1130250EF92FF920F931F93CF93DF93DC011296DB
S1130260ED91FC911397EF2B09F45FC0C22E8A0124
S1130270F72EE62EEC0180E090E0D12C0F2EF5E273
S1130280BF2EF02DB89EF001B99EF00D11246881A7
S113029079816E0F7F1F6C5E7F4FC8010E946300DF
S11302A0892B09F045C0D3948D2D90E02A813B81A0
S11302B08217930738F339C0C0E06CE270E00E9403
S11302C0D0040196CF5FCC12F8CFFC012081222309
S11302D0B9F02C32C1F02B33C9F02332D1F0AE2D5A
S11302E0BF2D319602C02332B9F02D9321912223E0
S11302F0B1F02C32B9F02B33B1F78E2D9F2D21C0E4
S11303008E2D9F2D1EC08E2D9F2D1BC08E2D9F2D9B
S113031018C080E090E015C080E090E012C08E2DFF
S11303209F2D0FC08E2D9F2D0CC080E090E009C042
S11303306AE370E0C8010E94D0040196C110BCCFEA
S1130340C4CFDF91CF911F910F91FF90EF90DF9079
S1130350CF90BF900895CF93DF93D82FC92FCB01AF
S113036063E270E00E94D004FC01892BC9F0918102
S1130370992371F09B3379F0AD2FBC2F32969D9366
S11303809191992359F09B33D1F7ED2FFC2F08C09D
S1130390ED2FFC2F05C0ED2FFC2F02C0ED2FFC2FFD
S11303A0CF01DF91CF9108951F920F920FB60F9254
S11303B011242F938F939F93EF93FF938BB12CB1C1
S11303C08871E0918001EF5FEF7390917F01E917ED
S11303D039F0E0938001F0E0ED57FE4F208301C037
S11303E082E090917E01892B80937E01FF91EF91B1
S11303F09F918F912F910F900FBE0F901F90189582
S11304001F920F920FB60F9211248F939F93EF9325
S1130410FF939091820180918101981761F0E0919E
S11304208101EF5FEF71E0938101F0E0ED53FE4F46
S113043080818CB901C05598FF91EF919F918F9164
S11304400F900FBE0F901F9018951092820110927A
S113045081011092800110927F0199231CF422E003
S11304602BB99F7790BD89B988E98AB986E880BDA0
S113047008959091800180917F01981781F0E09117
S11304807F01EF5FEF73E0937F01F0E0ED57FE4FE4
S1130490808190917E0110927E0190E0089580E029
S11304A091E00895209182012F5F2F719091810135
S11304B02917E1F3E22FF0E0ED53FE4F8083209300
S11304C08201559A0895CF93DF93EC0188818823A4
S11304D031F021960E94520289918111FBCFDF9164
S11304E0CF9108958AB3886F8ABB84B3806E84BB2E
S11304F0BF9ABE9AA49A81B38C6F81BB84B38C607B
S113050084BBA49A87B3807F87BBD098AC988AB306
S1130510897F8ABB08950F931F93CF93DF93CDB741
S1130520DEB76E970FB6F894DEBF0FBECDBF8C0159
S11305301A821982FE0133968CE1DF011D928A959D
S1130540E9F788E790E00E94630220E0A801BE0179
S11305506F5F7F4F82E790E00E9425010E94630253
S113056087E091E00E94630280E090E06E960FB60F
S1130570F894DEBF0FBECDBFDF91CF911F910F91D5
S11305800895EF92FF920F931F93CF93DF93CDB70C
S1130590DEB72A970FB6F894DEBF0FBECDBF7C013D
S11305A01A821982FE01339688E0DF011D928A9532
S11305B0E9F720E0A701BE016F5F7F4F82E790E07B
S11305C00E9425010E94AB04182F21E0A701BE015F
S11305D06F5F7F4F82E790E00E9425010E94AB0489
S11305E07C0184E890E00E94630280E3810F0E9412
S11305F05202C7019927009719F0019709F13DC0EC
S1130600173068F422B31F5F81E090E002C0880FC6
S1130610991F1A95E2F78095822382BB0CC025B3FB
S1130620155081E090E002C0880F991F1A95E2F7F7
S11306308095822385BB8DE890E00E9463021DC0F3
S1130640173060F422B31F5F81E090E002C0880F8E
S1130650991F1A95E2F7822B82BB0BC025B3155064
S113066081E090E002C0880F991F1A95E2F7822B6F
S113067085BB84E990E00E94630287E091E00E94D8
S1130680630280E090E02A960FB6F894DEBF0FBEB6
S1130690CDBFDF91CF911F910F91FF90EF900895FF
S11306A08EB589608EBD89B7806189BF80ED97E082
S11306B09BBD8ABD0895CF93DF93EC010E9439025C
S11306C090FD34C0813021E0920728F01092E701B8
S11306D080E090E02DC09C0133272A30310519F0C9
S11306E02D30310581F48091E701FE01E80FF11D01
S11306F010821092E701BE0182E790E00E94C800D8
S11307008C2F9D2F15C02091E701203428F01092E2
S1130710E70180E090E00CC091E0920F9093E70134
S1130720C20FD11D888380E090E002C080E090E099
S1130730DF91CF910895CF93DF9300D000D01F9223
S1130740CDB7DEB70E94720287E690E00E942502D0
S11307500E945003789489E990E00E94630286EB3A
S113076090E00E9463028FEC90E00E94630280EEAE
S113077090E00E9463020E9449000E94630287EE97
S113078090E00E9463020F2EF3E0BF2EF02D7E0155
S113079083E0E80EF11C88EE91E00E945B038C017B
S11307A00097C9F3BC0182E790E00E94F9006C0154
S11307B0892B09F461C08BEE90E00E946302C601AC
S11307C00E94630287E091E00E946302E091760058
S11307D0F091770082818823A9F08AE091E00E9459
S11307E06302E0917600F091770082814AE060E054
S11307F070E090E00E94F5040E94630287E091E0BB
S11308000E946302B80182E790E00E940F01FC019C
S1130810892B21F060E070E0C80109951A821982E1
S1130820F7018B2D11928A95E9F7B801CE01019653
S11308300E94AB018C01892B59F08EE191E00E945A
S11308406302C8010E94630287E091E00E94630290
S1130850E8EEF1E001900020E9F73197AF01485E3E
S1130860514060E070E088EE91E00E94C9048BEE94
S113087090E00E9463028FCF85E291E00E946302C0
S11308808ACF1F920F920FB60F9211242F934F937A
S11308905F936F937F938F939F93AF93BF93809155
S11308A0E3019091E401A091E501B091E601019684
S11308B0A11DB11D813127E29207B0F5AA27BB27FC
S11308C08093E3019093E401A093E501B093E601E2
S11308D0893C9105A105B10510F4C7982EC0AC015F
S11308E0BD014059514061097109493C51056105F7
S11308F0710510F4C79A21C0AC01BD01485E534094
S113090061097109413951406105710510F4C798B5
S113091014C080549640A109B109893C9105A105F0
S1130920B10558F4C79A09C01092E3011092E4018A
S11309301092E5011092E601D0CFBF91AF919F9143
S11309408F917F916F915F914F912F910F900FBE77
S11309500F901F901895FC0188279927E8942191FE
S11309602032E9F3293010F02E30C8F32B3241F055
S11309702D3239F4689404C00E940005820F911D41
S1130980219120532A30C0F31EF4909581959F4FF6
S11309900895DC0101C06D9341505040E0F7089583
S11309A0FC018191861721F08823D9F799270895AE
S11309B03197CF010895FB0151915523A9F0BF014F
S11309C0DC014D9145174111E1F759F4CD01019036
S11309D0002049F04D9140154111C9F3FB0141112B
S11309E0EFCF81E090E001970895BB274A3031F4BE
S11309F0992322F4BDE2909581959F4F0C940905AB
S1130A007AE0979F902D879F802D910D1124089552
S1130A10BB27FB015527AA27880F991FAA1FA417D4
S1130A2010F0A41B83955051B9F7A05DAA3308F0C8
S1130A30A95DA193009779F7B111B1931192CB01FC
S1130A400C942205DC01FC01672F71917723E1F7F7
S1130A50329704C07C916D9370836291AE17BF0787
S10B0A60C8F30895F894FFCFD8
S1130A68303030303030303030303030303030307A
S1130A78300032010200FC014C6F6F706261636BDD
S1130A882E3A200052656C6169733A200020756E15
S1130A987365740020736574002A2A486573636853
S1130AA8446576426F6172645F375365676D656E3E
S1130AB8742A2A0D0A00537570706F727420627953
S1130AC8204A2E48202D20456C65632E0D0A007798
S1130AD877772E6A682D656C65632E64650D0A0048
S1130AE85665722E3A20000D0A0A002A2A2A2A2A52
S1130AF82A2A2A2A2A2A2A2A2A2A2A2A2A2A2A2A4A
S1130B082A2A2A2A2A2A2A0D0A00416E7A61686C3E
S1130B1820506172616D657465722E3A20004352EB
S1130B28432E3A20006E6F20636F6D6D616E640D05
S1130B380A0052656C6169732048616E646C657261
S1130B483A00000000002D52454C61697300000012
S1130B580000000000C102554152542048616E64EF
S1130B686C65723A000000000000002D544553548F
S10F0B78000000000000000000008B02E0
S9030000FC
