S017000052656C616973537769746368426F782E7372656312
S11300000C942A000C9447000C9447000C9447006D
S11300100C9447000C9447000C9447000C94000384
S11300200C9447000C9447000C9447000C94470030
S11300300C9447000C9482010C94AE010C9447007C
S11300400C9447000C9447000C9447000C94470010
S11300500C94470011241FBECFE5D8E0DEBFCDBF0E
S113006011E0A0E6B0E0E0E0F8E002C005900D92F7
S1130070A636B107D9F721E0A6E6B1E001C01D928A
S1130080AF3FB207E1F70E94A4020C94FE030C9464
S11300900000E0E6F0E031E330832EE2218390E2D9
S11300A0928380E3838324839583868387838087F5
S11300B08187828723879487358733E3368735E3BF
S11300C0378738E3308B218B928B838B87E3848B48
S11300D0358B178ACF0108950F931F93CF93DF9326
S11300E00097C1F061157105C1F0EC010E9488030D
S11300F08C016BE370E0CE010E947603892B81F0C2
S11301000115110581F010937D0100937C01802F6E
S1130110912F0BC080E090E008C080E090E005C023
S113012080E090E002C0802F912FDF91CF911F914A
S11301300F910895EF92FF920F931F93CF93DF9344
S1130140FC0122813381232B21F17B018C0180E08E
S113015090E0C0E0D5E2D89F9001D99F300D1124E2
S1130160F80160817181620F731F6C5E7F4FC7015C
S11301700E946C00892B11F08C2F0CC0CF5F8C2F48
S113018090E0F801228133818217930720F38FEFE7
S113019001C08FEFDF91CF911F910F91FF90EF90EE
S11301A00895CF93DF93EC010E949A008F3F51F0A2
S11301B028813981A90165E28602400D511D11246F
S11301C0CA0102C080E090E0DF91CF910895CF93FF
S11301D0DF93EC010E949A008F3F51F0E881F9818E
S11301E095E28902E00DF11D112483A194A102C0BE
S11301F080E090E0DF91CF910895EF92FF920F930A
S11302001F93CF93DF937C01D42FE8E6F1E00190B4
S11302100020E9F73197AF014856514060E070E0A3
S113022088E691E00E946F0300917C0110917D01AA
S11302300115110509F453C0F701E480F5806AE360
S113024070E0C8010E947603009709F451C0C1E030
S1130250FC0181818B3309F04CC0C0E04AC0C22F3D
S11302606CE270E001960E94760321E02C0F009767
S1130270B1F7F701C2836BE370E0C8010E94760313
S1130280892B81F16AE370E0C8010E9476039C0126
S11302902F5F3F4F009779F16FE770E0C9010E942B
S11302A06A03009711F1DD2351F0C0E06FE770E0BD
S11302B080E090E00E946A03CF5FDC13F7CFBC01BB
S11302C088E691E00E9481036BE370E088E691E0A8
S11302D00E947603FC01108288E691E00CC080E065
S11302E090E009C080E090E006C080E090E003C0A8
S11302F0C0E0C801B5CFDF91CF911F910F91FF905E
S1130300EF9008951F920F920FB60F9211242F931E
S11303108F939F93EF93FF938BB12CB18871E091EE
S11303208001EF5FEF7390917F01E91739F0E0935B
S11303308001F0E0ED57FE4F208301C082E09091F0
S11303407E01892B80937E01FF91EF919F918F9184
S11303502F910F900FBE0F901F9018951F920F9220
S11303600FB60F9211248F939F93EF93FF93909165
S1130370820180918101981761F0E0918101EF5F22
S1130380EF71E0938101F0E0ED53FE4F80818CB971
S113039001C05598FF91EF919F918F910F900FBEDF
S11303A00F901F9018951092820110928101109263
S11303B0800110927F0199231CF422E02BB99F77CE
S11303C090BD89B988E98AB986E880BD089590917D
S11303D0800180917F01981781F0E0917F01EF5FA8
S11303E0EF73E0937F01F0E0ED57FE4F8081909131
S11303F07E0110927E0190E0089580E091E00895DE
S1130400209182012F5F2F71909181012917E1F3CF
S1130410E22FF0E0ED53FE4F808320938201559A42
S11304200895CF93DF93EC018881882331F02196DE
S11304300E94000289918111FBCFDF91CF91089531
S11304408AB3886F8ABB84B3806E84BBBF9ABE9A1A
S1130450A49A81B38C6F81BB84B38C6084BBA49A4F
S113046087B3807F87BBD098AC988AB3897F8ABBD7
S1130470089581E890E00E94110240E068EE71E086
S113048089E790E00E94FD000E94110285E091E05E
S11304900E9411028EE890E00E94110241E068EE91
S11304A071E089E790E00E94FD000E94110285E05E
S11304B091E00E94110280E090E008958EB5896079
S11304C08EBD89B7806189BF80ED97E09BBD8ABDF1
S11304D00895CF93DF93EC010E94E70190FD2FC0B4
S11304E0813021E0920728F01092E70180E090E04B
S11304F028C09C0133272A30310519F02D303105ED
S113050059F48091E701FE01E80FF11D1082109269
S1130510E7018C2F9D2F15C02091E701203428F08E
S11305201092E70180E090E00CC091E0920F90936C
S1130530E701C20FD11D888380E090E002C080E013
S113054090E0DF91CF9108950E94200287E690E029
S11305500E94D3010E945E0278948BE990E00E948D
S1130560110288EB90E00E94110281ED90E00E945C
S1130570110282EE90E00E9411020E9449000E9442
S1130580110288EE91E00E946902EC01892BC9F303
S113059089EE90E00E941102BE0189E790E00E947A
S11305A0D100009731F00E94110285E091E00E9491
S11305B01102BE0189E790E00E94E700FC01892B4B
S11305C029F060E070E080E090E0099588E091E037
S11305D00E941102E0917D00F0917E0082814AE048
S11305E060E070E090E00E94C9030E94110285E07F
S11305F091E00E94110289EE90E00E941102C1CFA5
S11306001F920F920FB60F9211242F934F935F9363
S11306106F937F938F939F93AF93BF938091E301E5
S11306209091E401A091E501B091E6010196A11D2C
S1130630B11D813127E29207B0F5AA27BB27809329
S1130640E3019093E401A093E501B093E601893CB2
S11306509105A105B10510F4C7982EC0AC01BD01E8
S11306604059514061097109493C510561057105C1
S113067010F4C79A21C0AC01BD01485E5340610922
S11306807109413951406105710510F4C79814C0CE
S113069080549640A109B109893C9105A105B10591
S11306A058F4C79A09C01092E3011092E401109221
S11306B0E5011092E601D0CFBF91AF919F918F9148
S11306C07F916F915F914F912F910F900FBE0F907B
S11306D01F90189546E651E00E94A2030895DC019C
S11306E001C06D9341505040E0F70895FC018191A1
S11306F0861721F08823D9F7992708953197CF01D8
S11307000895FB01DC0101900D920020E1F70895AA
S1130710FB0151915523A9F0BF01DC014D9145170F
S11307204111E1F759F4CD010190002049F04D91B8
S113073040154111C9F3FB014111EFCF81E090E075
S113074001970895FA01A191B081009719F41097C7
S1130750E1F0CD01DC01CD010D90002011F4C001C8
S113076013C0FB012191222319F02015D9F7F3CFEF
S1130770FB012191201519F41E92119606C0222323
S1130780C1F70D900020A1F7D001FA01A193B08325
S11307900895BB274A3031F4992322F4BDE29095A1
S11307A081959F4F0C94D503BB27FB015527AA279E
S11307B0880F991FAA1FA41710F0A41B83955051EA
S11307C0B9F7A05DAA3308F0A95DA193009779F762
S11307D0B111B1931192CB010C94EE03DC01FC0135
S11307E0672F71917723E1F7329704C07C916D9361
S11307F070836291AE17BF07C8F30895F894FFCFD2
S113080030303030303030303030303030303030E4
S11308103030303030303030001C010200FC012C0C
S113082000506172616D65746572303A20005061E8
S113083072616D65746572313A20002A2A486573C5
S11308406368446576426F6172645F375365676DB0
S1130850656E742A2A0D0A00537570706F727420C5
S11308606279204A2E48202D20456C65632E0D0A9E
S1130870007777772E6A682D656C65632E64650D45
S11308800A005665722E3A20002A2A2A2A2A2A2A7F
S11308902A2A2A2A2A2A2A2A2A2A2A2A2A2A2A2AB4
S11308A02A2A2A2A2A0D0A00416E7A61686C20508D
S11308B06172616D657465722E3A200052656C61D7
S11308C069732048616E646C65723A000000000030
S11308D02D52454C6169730000000000000000398E
S11308E00252656C6169732048616E646C65723A8A
S11308F000000000002D52454C00000000000000E4
S1090900000000003902B2
S9030000FC
