:100000000C942A000C9447000C9447000C94470071
:100010000C9447000C9447000C9447000C947B020E
:100020000C9447000C9447000C9447000C94470034
:100030000C9447000C94F7000C9423010C94470097
:100040000C9447000C9447000C9447000C94470014
:100050000C94470011241FBECFE5D8E0DEBFCDBF12
:1000600011E0A0E6B0E0EEECF6E002C005900D92E3
:10007000A834B107D9F721E0A8E4B1E001C01D928E
:10008000A93CB207E1F70E941F020C9465030C948F
:100090000000E0E6F0E031E330832EE2218390E2DD
:1000A000928380E3838324839583868387838087F9
:1000B0008187828723879487358733E3368735E3C3
:1000C000378738E3308B218B928B838B87E3848B4C
:1000D000358B178ACF0108950F931F93CF93DF932A
:1000E000009791F06115710591F0EC010E940E03EB
:1000F000082F192F6BE370E0CE010E940303892BB8
:1001000049F0802F912F08C080E090E005C080E08A
:1001100090E002C080E090E0DF91CF911F910F91BD
:100120000895CF92DF92EF92FF920F931F93CF9398
:10013000DF93FC01028113810115110511F1EB011F
:10014000E080F18080E090E0D12C0F2EF5E2CF2E00
:10015000F02DC89EB001C99E700D11246E0D7F1D3B
:100160006C5E7F4FCE010E946C00892B11F08D2DAB
:1001700009C0D3948D2D90E08017910750F38FEF35
:1001800001C08FEFDF91CF911F910F91FF90EF9002
:10019000DF90CF900895CF93DF93EC010E94910000
:1001A0008F3F51F028813981A90165E28602400D17
:1001B000511D1124CA0102C080E090E0DF91CF916F
:1001C0000895CF93DF93EC010E9491008F3F51F08F
:1001D000E881F98195E28902E00DF11D112483A1E6
:1001E00094A102C080E090E0DF91CF9108951F922A
:1001F0000F920FB60F9211242F938F939F93EF932B
:10020000FF938BB12CB18871E0914A01EF5FEF73DE
:1002100090914901E91739F0E0934A01F0E0E35B7E
:10022000FE4F208301C082E090914801892B80938A
:100230004801FF91EF919F918F912F910F900FBEE9
:100240000F901F9018951F920F920FB60F921124C6
:100250008F939F93EF93FF9390914C0180914B016B
:10026000981761F0E0914B01EF5FEF71E0934B0164
:10027000F0E0E357FE4F80818CB901C05598FF91A3
:10028000EF919F918F910F900FBE0F901F90189537
:1002900010924C0110924B0110924A0110924901A8
:1002A00099231CF422E02BB99F7790BD89B988E986
:1002B0008AB986E880BD089590914A0180914901EC
:1002C000981781F0E0914901EF5FEF73E0934901E6
:1002D000F0E0E35BFE4F808190914801109248016D
:1002E00090E0089580E091E0089520914C012F5F07
:1002F0002F7190914B012917E1F3E22FF0E0E357C2
:10030000FE4F808320934C01559A0895CF93DF933D
:10031000EC018881882331F021960E947501899132
:100320008111FBCFDF91CF9108958AB3886F8ABB8B
:1003300084B3806E84BBBF9ABE9AA49A81B38C6F3B
:1003400081BB84B38C6084BBA49A87B3807F87BB56
:10035000D098AC988AB3897F8ABB08958FE790E0E4
:100360000E9486016CE870E082EB91E00E946C00D4
:10037000C0960E94E502805D0E9475018BE091E0CD
:100380000E94860184E990E00E9486016CE870E09A
:1003900082EB91E00E946C00C0960E94E502805DB5
:1003A0000E9475018BE091E00E94860180E090E060
:1003B00008958EB589608EBD89B7806189BF80ED53
:1003C00097E09BBD8ABD0895CF93DF93EC010E9417
:1003D0005C0190FD2FC0813021E0920728F010923F
:1003E000B10180E090E028C09C0133272A3031051C
:1003F00019F02D30310559F48091B101FE01E80F5B
:10040000F11D10821092B1018C2F9D2F15C02091EB
:10041000B101203428F01092B10180E090E00CC0CE
:1004200091E0920F9093B101C20FD11D888380E0BB
:1004300090E002C080E090E0DF91CF9108950E94AB
:10044000950187E690E00E9448010E94D9017894C6
:1004500081EA90E00E9486018EEB90E00E94860186
:1004600087ED90E00E94860188EE90E00E94860170
:100470000E9449000E94860182EB91E00E94E40103
:10048000EC01892BC9F38FEE90E00E948601BE013A
:1004900089E790E00E94CB00009731F00E9486012E
:1004A0008BE091E00E948601BE0189E790E00E9406
:1004B000E100FC01892B29F060E070E080E090E031
:1004C00009958EE091E00E948601E0917D00F09117
:1004D0007E0082814AE060E070E090E00E942803A4
:1004E0000E9486018BE091E00E9486018FEE90E0F1
:1004F0000E948601C1CF1F920F920FB60F92112456
:100500002F934F935F936F937F938F939F93AF93AB
:10051000BF938091AD019091AE01A091AF01B091D8
:10052000B0010196A11DB11D813127E29207B0F5FE
:10053000AA27BB278093AD019093AE01A093AF0192
:10054000B093B001893C9105A105B10510F4C7989D
:100550002EC0AC01BD014059514061097109493CAF
:1005600051056105710510F4C79A21C0AC01BD01A8
:10057000485E534061097109413951406105710577
:1005800010F4C79814C080549640A109B109893C61
:100590009105A105B10558F4C79A09C01092AD01A3
:1005A0001092AE011092AF011092B001D0CFBF9166
:1005B000AF919F918F917F916F915F914F912F910B
:1005C0000F900FBE0F901F901895FC018827992758
:1005D000E89421912032E9F3293010F02E30C8F34D
:1005E0002B3241F02D3239F4689404C00E94330359
:1005F000820F911D219120532A30C0F31EF4909553
:1006000081959F4F0895FC018191861721F08823E1
:10061000D9F7992708953197CF010895FB0151919A
:100620005523A9F0BF01DC014D9145174111E1F7B8
:1006300059F4CD010190002049F04D914015411130
:10064000C9F3FB014111EFCF81E090E001970895DC
:10065000BB274A3031F4992322F4BDE2909581956D
:100660009F4F0C943C037AE0979F902D879F802D9D
:10067000910D11240895BB27FB015527AA27880F48
:10068000991FAA1FA41710F0A41B83955051B9F706
:10069000A05DAA3308F0A95DA193009779F7B11185
:1006A000B1931192CB010C945503DC01FC01672F2F
:1006B00071917723E1F7329704C07C916D93708339
:0E06C0006291AE17BF07C8F30895F894FFCFFC
:1006CE00303030303030303030303030303030301C
:1006DE0030303030303030300022010100C6015051
:1006EE006172616D65746572303A20002D52454C11
:1006FE0061697300506172616D65746572313A2083
:10070E00002A2A4865736368446576426F61726495
:10071E005F375365676D656E742A2A0D0A0053752F
:10072E0070706F7274206279204A2E48202D2045F9
:10073E006C65632E0D0A007777772E6A682D656CCF
:10074E0065632E64650D0A005665722E3A20002AE6
:10075E002A2A2A2A2A2A2A2A2A2A2A2A2A2A2A2AEB
:10076E002A2A2A2A2A2A2A2A2A2A2A0D0A00416EE7
:10077E007A61686C20506172616D657465722E3A93
:10078E00200052656C6169732048616E646C6572FD
:10079E003A00000000002D52454C616973000000C4
:0807AE000000000000AE010094
:00000001FF
