S017000052656C616973537769746368426F782E7372656312
S11300000C942A000C9447000C9447000C9447006D
S11300100C9447000C9447000C9447000C94D103B3
S11300200C9447000C9447000C9447000C94470030
S11300300C9447000C9482010C94AE010C9447007C
S11300400C9447000C9447000C9447000C94470010
S11300500C94470011241FBECFE5D8E0DEBFCDBF0E
S113006010E0A0E6B0E0EAE7F8E002C005900D92E7
S1130070AA38B107D9F725E0AAE8B0E001C01D927B
S1130080AF30B207E1F70E947A030C943B040C945E
S11300900000E0E6F0E081E380832EE2218390E239
S11300A0928330E3338324839583368337E3378322
S11300B033E33087318722879387848798E3958752
S11300C086878787108ACF010895FC0110821182E8
S11300D01282138214821582168210861782089562
S11300E0FC0190E081918D3229F480818B3211F4EE
S11300F0892F08959F5F9F3FA9F78FEF08950F936E
S11301001F93CF93DF938C01EB010E9470008F3F0C
S113011009F463C0482F082E000C550BF801E40FB6
S1130120F51F928198839381998324812A83258161
S11301302B8326812C83FA013796E00FF11F20814F
S11301402D83911103C018861F8207C09A01285F6E
S11301503F4F200F311F38872F831E821082D80112
S1130160A40FB51F485F5F4F400F511F30E0682F49
S1130170880F770B27E0FB019D91932788E0992353
S113018024F4990F392F322702C0392F330F8150AD
S1130190932FA9F7A417B50771F730938A006981E3
S11301A06623C9F03896E00FF11F40E057E0219133
S11301B0922F932728E0992324F4990F392F352778
S11301C002C0392F330F2150932FA9F74F5F4617E1
S11301D070F330938A003E8301C081E0DF91CF91B8
S11301E01F910F9108951F93CF93DF93DC01EBE8E8
S11301F0F0E0178217961C9117971896DC911897C0
S11302001196CC911197C85F8DE280838BE2818334
S113021013968C9113978583C28311968C911197B1
S1130220838312968C911297848314968C911497DD
S1130230868363E970E030E047E02191922F9327B1
S113024028E0992324F4990F392F342702C0392F39
S1130250330F2150932FA9F7E617F70771F730935F
S11302608A0011965C9111975523C1F0E12FFD2F5F
S113027040E087E09191932728E0992324F4990F93
S1130280392F382702C0392F330F2150932FA9F764
S11302904F5F451778F330938A0004C018961C9278
S11302A01E9217973093920013961C9213971296EE
S11302B01C92129714961C921497CC938BE890E09E
S11302C0DF91CF911F910895EF92FF920F93FC015C
S11302D0638342832483F086E78201830F91FF9036
S11302E0EF900895CF93DF93EC010E94F30068E050
S11302F00E94110269818F8198850E941102DF9109
S1130300CF9108951F920F920FB60F9211242F933D
S11303108F939F93EF93FF938BB12CB18871E091EE
S11303209700EF5FEF7390919600E91739F0E0932F
S11303309700F0E0E656FF4F208301C082E09091E1
S11303409500892B80939500FF91EF919F918F9158
S11303502F910F900FBE0F901F9018951F920F9220
S11303600FB60F9211248F939F93EF93FF93909165
S1130370990080919800981761F0E0919800EF5FE0
S1130380EF71E0939800F0E0E652FF4F80818CB962
S113039001C05598FF91EF919F918F910F900FBEDF
S11303A00F901F9018951092990010929800109237
S11303B097001092960099231CF422E02BB99F77A2
S11303C090BD89B988E98AB986E880BD089590917D
S11303D0970080919600981781F0E0919600EF5F66
S11303E0EF73E0939600F0E0E656FF4F8081909122
S11303F095001092950090E0089580E091E00895B2
S1130400209199002F5F2F71909198002917E1F3A3
S1130410E22FF0E0E652FF4F808320939900559A33
S113042008950F931F93CF93DF93009781F0662372
S113043071F0EC016150062F10E00F5F1F4F080FA1
S1130440191F89910E9400020C171D07D1F7DF9133
S1130450CF911F910F910895CF93DF93EC010E94E8
S1130460E70190FD31C0813021E0920728F010921D
S1130470940080E090E02AC0209193002D3079F41C
S11304808A30910561F480919400FE01E80FF11D1A
S113049031971082109294008C2F9D2F17C0809357
S11304A0930020919400203428F01092940080E06E
S11304B090E00CC091E0920F90939400C20FD11D74
S11304C0888380E090E002C080E090E0DF91CF91EB
S11304D008958AB3886F8ABB84B3806E84BBBF9A45
S11304E0BE9AA49A81B38C6F81BB84B38C6084BBA5
S11304F0A49A87B3807F87BBD098AC988AB3897F4E
S11305008ABB0895CF93DF9300D0CDB7DEB7DC016B
S11305101796ED91FC9118979081292F30E08181F5
S1130520813041F120F0823009F445C052C02730B7
S1130530310580F462B32F5F3F4F41E050E0FA0190
S113054002C0EE0FFF1F2A95E2F79F012095262394
S113055022BB3FC065B32550310941E050E0DA01C8
S113056002C0AA0FBB1F2A95E2F79D0120952623FE
S113057025BB2FC02730310578F462B32F5F3F4F7E
S113058041E050E0FA0102C0EE0FFF1F2A95E2F7A6
S11305909F01262B22BB1DC065B32550310941E0C4
S11305A050E0DA0102C0AA0FBB1F2A95E2F79D01B1
S11305B0262B25BB0EC0292F220F220F22BB292F49
S11305C0207C30E0329522952F7023273F7023271B
S11305D025BB99838A83E6E0F5E013821482CE0179
S11305E001969087878382E08183CF010E94720104
S11305F080E00F900F90DF91CF910895EF92FF92DA
S11306000F930E9449007C0100E120E044E061E096
S113061086E095E00E94640186E095E00E94720104
S113062080E00F91FF90EF900895EF92FF920F9367
S1130630CF93DF9300D000D000D0CDB7DEB7E0E099
S1130640F5E09481858199838A83928183819B8358
S11306508C83908181819D838E83CE0101967C0160
S113066006E020E041E062E086E095E00E9464015B
S113067086E095E00E94720180E026960FB6F89419
S1130680DEBF0FBECDBFDF91CF910F91FF90EF90F2
S11306900895EF92FF920F930F2EF2E7EF2EF0E002
S11306A0FF2EF02D06E020E044E063E086E095E0D4
S11306B00E94640186E095E00E9472012FEF81EEB2
S11306C094E0215080409040E1F700C00000E0E059
S11306D0F0E0099580E00F91FF90EF9008958EB5BA
S11306E089608EBD89B7806189BF80ED97E09BBD2D
S11306F08ABD08950E94690287E690E00E94D301B2
S113070086E095E00E9465000E946F037894C0E043
S1130710D5E08EEF90E00E942C029093FF0480932A
S1130720FE040097B1F366E075E00E947F0081113A
S1130730F0CFE6E0F5E09581868198131AC0E09148
S11307400905E430B0F48C819D8101969D838C83EE
S11307508A819B8101969B838A83F0E0EE0FFF1FC1
S1130760EF57FF4F0190F081E02D86E095E0099569
S1130770D0CF888199810196998388830F2EF9E7D8
S1130780EF2EF0E0FF2EF02D07E02FEF44E06FEFA7
S113079086E095E00E94640186E095E00E94720183
S11307A0B8CF1F920F920FB60F9211242F934F932D
S11307B05F936F937F938F939F93AF93BF93809136
S11307C0FA009091FB00A091FC00B091FD0001960D
S11307D0A11DB11D813127E29207B0F5AA27BB27DD
S11307E08093FA009093FB00A093FC00B093FD006B
S11307F0893C9105A105B10510F4C7982EC0AC0140
S1130800BD014059514061097109493C51056105D7
S1130810710510F4C79A21C0AC01BD01485E534074
S113082061097109413951406105710510F4C79896
S113083014C080549640A109B109893C9105A105D1
S1130840B10558F4C79A09C01092FA001092FB003F
S11308501092FC001092FD00D0CFBF91AF919F91F8
S11308608F917F916F915F914F912F910F900FBE58
S10D08700F901F901895F894FFCF25
S113087A303030303030303030303030303030306A
S113088A30005265626F6F7400636D645F62616405
S10D089A008202FE02150349030068
S9030000FC
